:060000000200890207A8BE
:01000B0032C2
:0100130032BA
:01001B0032B2
:0100230032AA
:01002B0032A2
:01003300329A
:01003B003292
:01004300328A
:03004B00020F0A97
:01005300327A
:01005B003272
:01006300326A
:01006B003262
:01007300325A
:01007B003252
:03008300020ACCA2
:0300F10002008684
:030086000202690A
:1000F40090F000E4F0A3F0A3F0A3F002032D121A91
:1001040074E508605390F438740DF0E50830E44564
:1001140090F004E0FFB40100E433FF2409FDE4346B
:10012400F4FE8D828E83E0702CB2A390F000E02464
:1001340001F0A3E03400F0A3E03400F0A3E03400C5
:10014400F0C007121C6ED007EF2409F582E434F4E2
:10015400F5837401F0750800227528177529317527
:100164002A8075270075820002134890DF2FE4F07F
:1001740090DF30F090DF31F090DF00740CF090DF0E
:1001840001744EF090DF0274FFF090DF037420F0EE
:1001940090DF04E4F090DF05F090DF06F090DF09D3
:1001A4007421F090DF0A7465F090DF0B746AF090AC
:1001B400DF077406F090DF08E4F090DF0C74CAF0F7
:1001C40090DF0D7483F090DF0E7404F090DF0F74F1
:1001D40023F090DF107411F090DF117435F090DF8C
:1001E400127407F090DF13743FF090DF147418F06A
:1001F40090DF157416F090DF16746CF090DF1774AE
:1002040043F090DF187440F090DF197491F090DFA0
:100214001A7456F090DF1B7410F090DF1C74E9F030
:1002240090DF1D742AF090DF1EE4F090DF1F741F2E
:10023400F090DF237481F090DF247435F090DF2593
:100244007409F090DF2E7450F0748EF090DF09740E
:1002540022F090DF0A74B1F090DF0B743BF02212AD
:100264000EA1020ECD120263122AFA120F311212DB
:1002740043D2A490012C120D53C2A490012C120D50
:10028400531203B01200F4121633D2AF121EC61268
:04029400010280F8EB
:10311700494D4D4520534E4946462076302E3100C5
:10029800122D67AC82AD83AEF0FFC004C005C00666
:1002A800C0079037BD75F086743D122C44AC82AD02
:1002B80083AEF0FFE58124FCF581E4C0E0C0E07482
:1002C800D0C0E07441C0E08C828D838EF0EF122F95
:1002D800E9AC82AD83AEF0FFE58124FCF5818C8228
:1002E8008D838EF0EF122D7AAC82AD83AEF090DF65
:1002F80009EEF08D0390DF0AEBF090DF0BECF022B3
:1003080075E10490DF3BE0FFBF01F890F40FE0F5E2
:10031800E190F40FE0FFBF04012290DF3BE0FFBF54
:10032800010280ED2290F40FE0FFBF02012290DF6E
:1003380013E0FF74F05FF0E0FF740F4FF090F40FDC
:100348007402F002074F90F40FE0FFBF0301229000
:10035800DF13E0FF74F05FF0E0FF740A4FF090F4F1
:100368000F7403F0F5E190DF3BE0FFBF13F8229034
:10037800F40FE0FFBF04012290DF13E0FF74F05F89
:10038800F0AF9174EF5FF59175E10490DF3BE0FF0A
:10039800BF01F8AF9B74FC5FF59BAFE974EF5FF5A5
:1003A800E990F40F7404F02290F412E4F0A3F090B2
:1003B800F405F0A3F090F407F0A3F053C6C7759DB9
:1003C80000859E9E439E0485A9A943B90190F40F18
:1003D8007404F0750F00751000F51190F00575F0B4
:1003E80000122D4812016FD2A87591D175E90075D8
:1003F8000800439A0175E10490DF3BE0FFBF01F874
:10040800227E007F00C3EE94DCEF9405502490DF39
:100418003CE0FD5450600490000122900032C00777
:10042800C006120D81D006D00774322EFEE43FFFBD
:1004380080D390000022AF83E58290F42FF0EFA3E1
:10044800F090F431E4F090DF02E0FF90DF3BE0FE53
:10045800BE1304B2A480F4C2A490F4B7E4F090F4FC
:100468002BE0FDA3E0FE90F4ADEDF0EEA3F090F4E8
:100478002DE0FBA3E0FC90F4B3EBF0ECA3F090F4D8
:1004880029E0F9A3E0FA90F4AFE9F0EAA3F090F4D8
:10049800B1E9C39BF0EA9CA3F090F4B1E0FBA3E0C0
:1004A800FC8D0F8E108B828C83C007C006C005C0E0
:1004B80002C001122DCEAB82AC83D001D002D00590
:1004C800D006D00790F4B5EB29F0EC3AA3F0E94A4E
:1004D800705D90F42FE0FBA3E0FC8B828C83E0F846
:1004E8008809750A0090F429E509F0E50AA3F09057
:1004F800DF04E0F8530003B800028018B801028056
:10050800030205C990F42974012509F0E4350AA30A
:10051800F00205C990F42F74012BF0E43CA3F0908D
:10052800F429E0FBA3E0FC90DF02EBF00205C990A0
:10053800DF04E0FC530403BC00028046BC010280D7
:10054800030205C990F42FE0FBA3E0FC90F432E924
:10055800F0EAA3F090F4347401F0E4A3F08B828CF9
:1005680083C007C002C001120CFED001D002D00720
:1005780090F42FE0FBA3E0FC89008B828C83E8F0E9
:10058800803FED4E603690F4B5E0FDA3E090DF02C9
:10059800EDF090DF04E0FE74FC5EF090F4B5E0FD51
:1005A800A3E0FEC374FF9DE49E500990DF04E0FEC3
:1005B80074024EF090F4B77401F0800590DF02E900
:1005C800F0D2A890F4B8E0FE20E3030206F790DF2B
:1005D80004E0FE530603BE010690F4317401F09066
:1005E800F431E0FE90F42FE0FCA3E0FDEE2CFAE4F9
:1005F8003DFB90F429E0F8A3E0F990F450E8F0E925
:10060800A3F08A828B83C007C006C005C0041210FD
:1006180084AA82AB83D004D005D006D00790F4B862
:10062800E0F9530104B90448C007EE2CF8E43DF999
:1006380090F4B8E0FF5307F090F454E8F0E9A3F021
:1006480090F456EAF0EBA3F090F458EFF088828922
:1006580083C007C006C005C004C003C0021210BE94
:10066800D002D003D004D005D006D007D0078046EA
:10067800C007EE2CF8E43DF990F4B8E0FF5307F01A
:1006880090F45BE8F0E9A3F090F45DEAF0EBA3F0F6
:1006980090F45FEFF088828983C007C006C005C068
:1006A80004C003C002121107D002D003D004D00541
:1006B800D006D007D007EE601E90F4B8E0FE5306CF
:1006C800F0BE50098C828D837410F080228A068CCB
:1006D800828D83EEF0801890F4B8E0FE5306F0BEE9
:1006E800500890DF027410F0800590DF02EAF09065
:1006F800F42FE0FDA3E0FE90F40BEDF0EEA3F090F4
:10070800F4ABE4F0A3F075E1037D607EEA90DF3B93
:10071800E0FCBC1302800D1DBDFF011EED4E600400
:10072800B2A480E9D2A4ED4E700690F4397413F0A7
:1007380090DF3BE0FEBE1304B2A480F4C2A490DFB5
:1007480002EFF075820122D2A8750F0075100075AE
:10075800110290F00575F000122D4890F405E4F0B0
:10076800A3F090F407F0A3F090F409F090F40A04D1
:10077800F090F004E4F0AF9B74FC5FF59BAFE97474
:10078800EF5FF5E975E10290DF3BE0FFBF0DF8434D
:1007980091102290F4BA7401F02290F4BAE4F02295
:1007A800C020C0E0C0F0C082C083C007C006C0053A
:1007B800C004C003C002C001C000C0D075D0009002
:1007C800F4387411F0C28990DF3BE0FFBF0D02805E
:1007D800030208F2D2A490F4A4E0E0602A90F4A501
:1007E800E0FEA3E0FF90F4A5E024FFFCA3E034FFC3
:1007F800FD90F4A5ECF0EDA3F074FF2F400990DF15
:1008080004E0FF74FC5FF090F40F7402F090F004C1
:10081800E025E0FEE42405FFEE34F0FEE075F0028A
:10082800A42405FC74F435F0FD8C828D83E0FAA3D2
:10083800E0FB74012AF8E43BF98C828D83E8F0E947
:10084800A3F0EA2FF582EB3EF583E5D9F090F004AA
:10085800E075F002A42405F58274F435F0F583E020
:10086800FEA3E0FFC39402501A90F004E075F00272
:10087800A42405F58274F435F0F583E0FEA3E0FFC7
:100888004E701A90F004E0FF75F002A42405F5827A
:1008980074F435F0F58374FFF07401A3F090F4A5B7
:1008A800E0A3E090F4A5E0F5F0A3E045F0600302D2
:1008B8000AAF90F4A4E0E07003020AAF90F4A7E056
:1008C800FEA3E0FF90F4A5EEF0EFA3F090F4A5E00E
:1008D800FEA3E090DF02EEF090DF04E0FF74FC5F1F
:1008E800F0E0FF74024FF0020AAF90DF3BE0FFBF79
:1008F80013028003020AAF90F4B7E0E07003020A23
:100908004090F421E0FEA3E0FF0EBE00010F90F43A
:1009180021EEF0EFA3F090F4ABE0FEA3E0FF90F43B
:10092800AFE0FCA3E0FDEEB50406EFB505028003D9
:10093800020A1390F4ADE0A3E090F4ADE0F5F0A363
:10094800E045F0603790F4ADE0FEA3E0FFBEFF05A0
:10095800BF0002801490F4ADE024FFFEA3E034FF52
:10096800FF90F4ADEEF0EFA3F090F4B3E0FEA3E057
:10097800FF90F4ABEEF0EFA3F0020A1390F4AFE0AF
:10098800F50FA3E0F51090F4A9E0FF7E008F828EAA
:1009980083122DCEAE82AF8390F40BE0FCA3E0FD72
:1009A800EE2CF582EF3DF583E4F090F4A9E0240104
:1009B800F0E0FF90F4AAE0FEEFB5060590F4A9E494
:1009C800F090F4AFE0F50FA3E0F51090F4A9E0FF84
:1009D8007E008F828E83122DCEAE82AF8390F40B71
:1009E800E0FCA3E0FDEE2CFEEF3DFF8E828F83E05E
:1009F800701090F414E4F090F4397412F0120308B3
:100A0800C2A490F4AB7401F0E4A3F090F4B5E0FE56
:100A1800A3E0FF90F4B5E024FFFCA3E034FFFD90D1
:100A2800F4B5ECF0EDA3F0BEFF22BF001F90DF0489
:100A3800E0FF74FC5FF0801490F4B5E024FFFEA39F
:100A4800E034FFFF90F4B5EEF0EFA3F090F40F74EC
:100A580003F090F4AFE0F50FA3E0F51090F4A9E0EF
:100A6800FF7E008F828E83122DCEAE82AF8390F4EC
:100A7800ABE0FCA3E0FD90F4ABE02401F0A3E0348C
:100A880000F0EC2EFEED3FFF90F40BE0FCA3E0FD40
:100A9800EE2CF582EF3DF583E0F5D990F40DE024D6
:100AA80001F0A3E03400F0D0D0D000D001D002D0C3
:100AB80003D004D005D006D007D083D082D0F0D0A0
:100AC800E0D02032C020C0E0C0F0C082C083C007A0
:100AD800C006C005C004C003C002C001C000C0D029
:100AE80075D000750B0090F4387410F0AE9B74FC50
:100AF8005EF59BE5E94208E5E930E02090F410E076
:100B0800FDA3E08D067D00AB9C7C0090F412ED4BBC
:100B1800F0EE4CA3F0AEE974FE5EF5E9E5E9547039
:100B28007003020CAF90F40FE0FEBE030AAE087427
:100B38008F5EF508020CA890F004E0FEB40100E412
:100B4800332409F582E434F4F583E0FEBE01028023
:100B580003020C8590F4B8E0FE20E103020C5E90DD
:100B6800DF04E0FE530603BE0103750B0190F4B8E1
:100B7800E0FE530601BE017090F004E025E0FDE4BC
:100B88002405FEED34F0FDAB0B7C00EB2EFEEC3DB6
:100B9800FDE0F929FAE42405F9EA34F0FAEB29FB37
:100BA800EC3AFCE075F002A42405F58274F435F003
:100BB800F583E0F9A3E0FAA80B7F00E9C398F9EA06
:100BC8009FFA90F4B8E0FF5307F090F454EBF0EC80
:100BD800A3F090F456E9F0EAA3F090F458EFF08E01
:100BE800828D831210BE806E90F004E025E0FEE452
:100BF8002405FFEE34F0FEAC0B7D00EC2FFFED3E3C
:100C0800FEE025E0FAE42405FBEA34F0FAEC2BFCDC
:100C1800ED3AFDE075F002A42405F58274F435F090
:100C2800F583E0FAA3E0FBA80B7900EAC398FAEB96
:100C380099FB90F4B8E0F95301F090F45BECF0ED17
:100C4800A3F090F45DEAF0EBA3F090F45FE9F08F85
:100C5800828E8312110790F004E0FF74016FF0E0B8
:100C6800FF75F002A42405F58274F435F0F583E4E9
:100C7800F0A3F090F409F090F40AF0802190F43990
:100C88007412F0B2A490F004E0FF75F002A42405F9
:100C9800F58274F435F0F583E4F0A3F0B2A4C2A4AD
:100CA800AFE974CF5FF5E9E5E930E61490F43974FB
:100CB80010F0B2A4120308B2A4AFE974BF5FF5E95B
:100CC800E5E930E71490F4397411F0B2A41203087E
:100CD800B2A4AFE9747F5FF5E9D0D0D000D001D0DD
:100CE80002D003D004D005D006D007D083D082D05C
:100CF800F0D0E0D02032AF83E58290F436F0EFA355
:100D0800F090F434E0FEA3E0FF90F436E0FCA3E0BA
:100D1800FD90F432E0FAA3E0FB8A008B011ABAFFD7
:100D2800011BE8496024EE2AF8EF3BF9E82CF8E9C2
:100D38003DF9EA2CF582EB3DF583C006C007E08853
:0B0D4800828983F0D007D00680CF2204
:1036EA0000000000000001000000000000000000CF
:0736FA0000000000000000C9
:100D5300AE82AF831EBEFF011FC3E49E74808FF07B
:100D630063F08095F050167CB07D04EC24FFFAED1F
:100D730034FFFB8A048B05EA4B70F080D722AE82E6
:100D8300E583CE25E0CE33FF1EBEFF011FC3E49EE5
:100D930074808FF063F08095F040ED22AE82AF83D4
:100DA300D2A49003E8C007C006120D53C2A4900159
:100DB300F4120D53D006D007150CAD0CED20E754FB
:100DC300EE30E024900019C007C006C005120D5391
:100DD300D2A4900226120D53C2A4900019120D53EF
:100DE300D005D006D0078022900113C007C006C0EB
:100DF30005120D53D2A4900032120D53C2A49001D8
:100E030013120D53D005D006D007EFC313CE13CE64
:100E1300FF1D80A8C2A49003E8020D53AFF0AE8378
:100E2300E58290F441F0EEA3F0EFA3F090F441E0FB
:100E3300FDA3E0FEA3E0FF90F43EE0FAA3E0FBA3F2
:100E4300E0FCA80FA910E8496050C000C0018D82E2
:100E53008E838FF01230B4F98A828B838CF0123038
:100E6300B4F8E9C398F98911D001D0006010E511F5
:100E7300F5123395E0F513851282851383220DBD98
:100E830000010E90F441EDF0EEA3F0EFA3F00ABAE7
:100E930000010B18B8FF011980AC90000022AFBE0F
:100EA30074FB5FF5BEE5BE30E6FBAFC674B85FF515
:100EB300C6E5C620E6FB43BE04E5BE30E6FB53C6EB
:100EC300C743E40C43E401D2B922AF9A74DF5FF560
:100ED3009AA2AFE433F452A812124E12125B12120A
:100EE3007F758200121305C28475820012131112DA
:100EF3001336752827752931752A80752700758261
:100F030000121348D28422C0E0C082C083C0D090B4
:100F1300F43AE02401F0A3E03400F0A3E03400F05D
:0E0F2300A3E03400F0D0D0D083D082D0E032F2
:10312700494D4D4520534E4946462076302E3100B5
:100F3100122B24AF8290F448EFF08FF005F074018A
:100F4100800225E0D5F0FB90F449F0EF75F008A49C
:100F5100248CFE74F435F0FF90F444EEF0EFA3F02E
:100F61008E828F83A3A374DFF08E828F83A3A3A3CA
:100F710074B1F08E828F83A3A3A3A3A37410F07422
:100F8100062EF582E43FF583E054E0441DF074073A
:100F91002EF582E43FF583E0543F4440F074072E80
:100FA100F582E43FF583E054FC4401F0122B24AFB9
:100FB1008290F44AEFF08FF005F07401800225E091
:100FC100D5F0FB90F44BF0EF75F008A4248CFE747F
:100FD100F435F0FF90F446EEF0EFA3F08E828F83AC
:100FE10074DFF08E828F83A374B2F08E828F83A31D
:100FF100A3A3A3A37410F074062EF582E43FF58336
:10100100E054E0441EF074072EF582E43FF583E0DE
:1010110054CF4410F074072EF582E43FF583E05479
:10102100FC4401F043A91043B91022AF83E582903B
:10103100F44EF0EFA3F0E5B330E3FB90F444E0FEAF
:10104100A3E0FF90F44EE0FCA3E0FD8C028D038B46
:10105100028E828F83EAF090F444E0FEA3E0FF8EDB
:10106100828F83A37D00ECF090F449E042D690F4A6
:101071004CE0FF90F44DE0FE4F4401F5B3E5B33091
:10108100E3FB22AF83E58290F452F0EFA3F090F4FA
:1010910052E0FEA3E0FF90F450E0FCA3E0FDEC542D
:1010A1000F60158C028D030CBC00010DEA2EF58238
:1010B100EB3FF583E4F080E68C828D8322AF83E5FC
:1010C1008290F459F0EFA3F090F459E0FEA3E0FF11
:1010D10090F454E0FCA3E0FD90F456E0FAA3E0FBA9
:1010E10090F458E0F990F462ECF0EDA3F090F46420
:1010F100EAF0EBA3F090F466E4F090F467E9F08E87
:10110100828F83021151AF83E58290F460F0EFA3E7
:10111100F090F460E0FEA3E0FF90F45BE0FCA3E05C
:10112100FD90F45DE0FAA3E0FB90F45FE0F990F448
:1011310062ECF0EDA3F090F464EAF0EBA3F090F42C
:10114100667402F090F467E9F08E828F8302115188
:10115100AF83E58290F468F0EFA3F0E5B330E3FBF1
:1011610090F468E0FEA3E0FF90F462E0F515A3E0DF
:10117100F51690F467E0FB74505BF51490F466E0AB
:10118100F94B4401FB740149F51390F464E0F50F48
:10119100A3E0F510E4F511F512C3E511950FE51281
:1011A1009510400122C00390F444E0F8A3E0FBE570
:1011B100112EF9E5123FFA89048A058D0488828B84
:1011C10083ECF090F444E0FCA3E0FD8C828D83A3DA
:1011D100E9F090F446E0FCA3E0FD8C828D83A3A3AB
:1011E100E5112515FCE5123516FD8C028D038B02E8
:1011F100EAF090F446E0FAA3E0FB8A828B83A3A392
:10120100A3ECF090F44BE0FD90F449E0FC4D42D6A4
:10121100D003E5146017E50F24F0FCE51034FFFD61
:10122100ECB51109EDB512058513B380028BB3E559
:10123100B330E3FB74102511F511E43512F51202F8
:02124100119A00
:0C00E200752100752201752303752407A9
:1012430090F46BE4F0A3F02202000043F32843FD83
:101253001443FE0275FF182275860075C2AA75C570
:1012630030228582C1E58630E1FBAF8674FD5FF5F0
:101273008622D282021265C282021265C291900056
:1012830001120D53D291C2847582E212127A7582D1
:101293002412127A75828112127A75826012127A7E
:1012A3007582E612127A75820012127A75822F12F3
:1012B300127A7582A112127A7582AF12127A75822E
:1012C300A412127A758200121311D284227582AC91
:1012D30012127A7582AE12127A7582A502127AAF51
:1012E3008274B02FF58212127A740F5526F582128A
:1012F300127AE526C4540FFF740F5F2410F582029F
:10130300127AAF82743F5F4440F58202127AAF8251
:1013130074015F44A6F58202127A7526001212E266
:101323007F00758200C007121275D0070FBF8400BB
:1013330040F0227F008F82C00712131DD0070FBF1A
:10134300090040F122AF82852882852983852AF00E
:10135300C007122FD1AD82AE83D007EF24F750011F
:1013630022E52775F006A4F5268F82C0051212E246
:10137300D005AC28AE29AF2A8D031DEB60268C82E5
:101383008E838FF01230B4FBA3AC82AE838B82C00A
:1013930007C006C005C004122A81D004D005D006B8
:1013A300D00780D422AF82E4FBFCFDFEEF24F7508C
:1013B3000122E52B75F006A4F5268F82C006C00531
:1013C300C004C0031212E2D003D004D005D00675C6
:1013D3003000E52C452D452E452F700302146D8BEF
:1013E3000F8C108D118E1290000AE4F5F0122DEB84
:1013F300AB82AC83ADF0FE750F0AE4F510F511F581
:1014030012852C82852D83852EF0E52FC006C0051D
:10141300C004C003122B5CA882A983AAF0FFD003E7
:10142300D004D005D006E82BFBE93CFCEA3DFDEFF8
:101433003EFE750F0AE4F510F511F512852C828531
:101443002D83852EF0E52FC006C005C004C003120E
:101453002BDF85822C85832D85F02EF52FD003D0AD
:1014630004D005D00605300213D5E530604D750F65
:101473000AE4F510F511F5128B828C838DF0EEC022
:1014830006C005C004C003122B5CA882743028F583
:1014930082122A81D003D004D005D006750F0AE446
:1014A300F510F511F5128B828C838DF0EE122BDF84
:1014B300AB82AC83ADF0FE153080AF22AF82E4FD8A
:1014C300FEEF24F7500122E53175F006A4F5268FCF
:1014D30082C006C0051212E2D005D0067F00E532B5
:1014E300453360538D0F8E1090000AC007122DCE26
:1014F300AD82AE83750F0A75100085328285338302
:10150300C006C005122E59AB82AC83D005D006EBC2
:101513002DFDEC3EFE750F0A751000853282853372
:1015230083C006C005122B33858232858333D005F1
:10153300D006D0070F80A7EF6037750F0A7510002C
:101543008D828E83C007C006C005122E59AB8274EC
:10155300302BF582122A81D005D006750F0A75103B
:10156300008D828E83122B33AD82AE83D0071F8012
:10157300C622E582FF24F7500122E53475F006A464
:10158300F5268F821212E27F048F061FEE604774E6
:10159300F05536C4540FFD7E00C3ED940AEE94005B
:1015A30050108D0474302CF582C007122A81D007A5
:1015B300800C74372DF582C007122A81D007E536D7
:1015C300C454F0C535C4C5356535C53554F0C53586
:1015D3006535F53680B322AF8253077FC3EF64804E
:1015E30094A0404B7E00EFFC3395E0FDEC24E0F546
:1015F3000FED34FFF510900005C007C006122DCE85
:10160300AC82AD83D006EC2437FCED3431FDEE2CF7
:10161300F582E43DF583E493F582C006121275D09A
:1016230006D0070EBE050040BD758200021275226A
:1016330022AF8290DF0EE0FE53068FEFC454F0908A
:10164300DF0E4EF022E52575F003A42421F5827404
:101653003335F0F583E493FDA3E493FEA3E493FF12
:101663008D828E838FF022AF8290DF0EE0FE5306D1
:10167300F874075F90DF0E4EF0228582378583383A
:1016830085F039F53A7B007A00BA0400400302176B
:10169300478AF005F0780179008006E828F8E933F5
:1016A300F9D5F0F7880FE9F5103395E0F511F51248
:1016B3008537828538838539F0E53AC002122DEBF0
:1016C300122D67AC82AD83AEF0FFC004C005C00627
:1016D300C007900000E4F5F07441122C44AC82ADD5
:1016E30083AEF0FFE58124FCF581C004C005C0068C
:1016F300C007905D4075F0C6744B122FE9AC82AD04
:1017030083AEF0FFE58124FCF581E4C0E0C0E07422
:1017130060C0E023C0E08C828D838EF0EF122EA692
:10172300AC82AD83AEF0FFE58124FCF5818C828D24
:10173300838EF0EF1230ACAB82D002BB04004004C6
:101743000A02168C90DF0CE0FF53070FEA030354E1
:10175300C04207EBC454F090DF0C4FF02290DF0C33
:10176300E0FFE4A2E7CF33CF33A2E7CF33CF33CFCA
:1017730054035307037E0090DF0CE0FDE4CDC45413
:101783000F6DCD540FCD6DCD5305037C008D828C31
:1017930083A3A3A3A3C007C006122F51AA82AB83BE
:1017A300ACF0FDC002C003C004C005900000E4F526
:1017B300F07441122C44AA82AB83ACF0FDE5812482
:1017C300FCF581D006D0078FF005F0900001800B67
:1017D300E5822582F582E58333F583D5F0F2C005F2
:1017E300C004C003C002122F51A882A983AEF0FF28
:1017F300D002D003D004D005C000C001C006C0078A
:101803008A828B838CF0ED122C44AC82AD83AEF0D4
:10181300FFE58124FCF5818C828D838EF0EF122FFE
:101823005DAE82AF838E0F8F10751100751200901D
:10183300BA8075F08C7401022EFF85823B85833C50
:1018430085F03DF53E780079007A007B008B3F748C
:10185300F0253F50030218FA853FF005F07D017E25
:10186300008006ED2DFDEE33FED5F0F78D0FEEF57E
:10187300103395E0F511F512853B82853C83853D58
:10188300F0E53E122BDF122D67AC82AD83AEF0FF85
:10189300C004C005C006C0079030E975F025744147
:1018A300122C44AC82AD83AEF0FFE58124FCF581BC
:1018B300E4C0E07480C0E014C0E074C3C0E08C8274
:1018C3008D838EF0EF122EA6AC82AD83AEF0FFE5D2
:1018D3008124FCF5818C828D838EF0EF122D7AA802
:1018E30082A983AAF0FBC3E99401EA9400EB940074
:1018F3004005053F02185290DF0CE0FF74F05F458E
:101903003FF090DF0DE8F02290DF0CE0FF53070F6C
:1019130090DF0DE0FE8FF005F07F017D008006EF84
:101923002FFFED33FDD5F0F7ED3395E0FCFB7A00A7
:1019330074012AFA8E0FEAF5103395E0F511F512CA
:101943008F828D838CF0EB122DEB122D67A882A969
:1019530083AAF0FEC000C001C002C006905D4075BE
:10196300F0C6743D122C44A882A983AAF0FEE58137
:1019730024FCF581888289838AF0EE022D7A05257D
:10198300E52524FC5003752500E5252421F98782EC
:10199300021634E525700575250380021525E52516
:1019A3002421F98782021634122D67AC82AD83AEEF
:1019B300F0FFC004C005C006C0079030E975F025EC
:1019C300743B122C44AC82AD83AEF0FFE58124FC62
:1019D300F5818C828D838EF0EF122D7AAC82AD83EC
:1019E300AEF08E0390DF09EBF08D0390DF0AEBF08E
:1019F30090DF0BECF02290DF09E0FF7E007D008D8D
:101A0300048E058F067F0090DF0AE0F8E4F9FAFB05
:101A1300E82FFFE93EFEEA3DFDEB3C8D048E058F8A
:101A2300067F0090DF0BE0F8E4F9FAFBE82FFFE90B
:101A33003EFEEA3DFDEB3C8F828E838DF0122D67D7
:101A4300A882A983AAF0FBC000C001C002C0039012
:101A53005D4075F0C67443122C44A882A983AAF092
:101A6300FBE58124FCF581888289838AF0EB022DD2
:101A73007AC28490DF3BE0FF8F3575360075340002
:101A830075820712157585083575360075340A7524
:101A93008207121575D28422C28412133675282D3B
:101AA300752933752A8075270075820112134875CD
:101AB3002831752933752A80752700758202121320
:101AC30048752834752933752A8075270075820374
:101AD300121348752838752933752A8075270075C0
:101AE300820412134875283D752933752A8075279A
:101AF30000758205121348752844752933752A80A9
:101B030075270075820612134875284A752933759F
:101B13002A807527067582011213481219F9AC82BF
:101B2300AD83AEF0FF752B068C2C8D2D8E2E8F2F53
:101B33007582011213A890DF06E0FB8B3575360022
:101B4300753406758202121575121648858228852A
:101B5300832985F02A752706758203121348121903
:101B63000BAC82AD83AEF0FF752855752933752A0A
:101B730080752706758204C007C006C005C004121D
:101B83001348D004D005D006D007752B068C2C8DB6
:101B93002D8E2E8F2F7582041213A8752855752943
:101BA30033752A807527087582051213481217604A
:101BB300AC82AD83AEF0FF75284A752933752A8050
:101BC300752708758205C007C006C005C004121337
:101BD30048D004D005D006D007752B088C2C8D2D4A
:101BE3008E2E8F2F7582051213A890DF0CE0FF8FC6
:101BF3003575360075340F75820412157590DF0D37
:101C0300E0FF8F3575360075340F75820512157533
:101C130090DF0EE0FF8F3575360075340F75820641
:101C230012157590DF0EE0FF5403601F90DF00E094
:101C3300FE7F0090DF01E07C004FF535EC4EF5367A
:101C4300753406758206121575801275285E75291E
:101C530033752A80752706758206121348D28422AB
:101C6300C28412133612015DD2842290F004E0FF85
:101C7300B40100E433FF3395E0EF2FFEE42405FFC6
:101C8300EE34F0FE90F004E0FDB40100E433FDC255
:101C9300D575F002ED30E704B2D5F404A430D50ACB
:101CA300F42401C5F0F43400C5F02405F58274F47E
:101CB30035F0F583E0FCA3E090F48BECF0C284757F
:101CC3002863752933752A80752700758203C00739
:101CD300C006C004121348752863752933752A801A
:101CE30075270075820412134875286375293375A7
:101CF3002A80752700758205121348752884752973
:101D030033752A80752700758201121348D0048C1D
:101D130035753600753409758201C0041215757561
:101D2300288D752933752A80752700758202121351
:101D33004890F004E0FD8D357536007534067582E4
:101D430002121575752894752933752A8075270C29
:101D530075820212134890F000E0F9A3E0FAA3E0C1
:101D6300A3E089358A36753411758202121575D050
:101D730004D006D007EC24E1500690F48B741EF0D7
:101D8300752600758203C007C0061212E2D006D082
:101D9300077D037C0090F48BE0FB8B021BEA70034E
:101DA300021EC38F828E83E0FA24E05040BA7F0084
:101DB300503B758220C007C006C005C004C0031293
:101DC3002A81D003D004D005D006D0078F828E831A
:101DD300E0F582C007C006C005C004C003122A8113
:101DE300D003D004D005D006D007021E948F828E74
:101DF30083E054F0C4540FF97A00C3E9940AEA94D7
:101E03000050208900743028F582C007C006C00541
:101E1300C004C003122A81D003D004D005D006D059
:101E230007801C743729F582C007C006C005C004AB
:101E3300C003122A81D003D004D005D006D0078F67
:101E4300828E83E0FA53020F8A017A00C3E9940A6F
:101E5300EA940050208900743028F582C007C00638
:101E6300C005C004C003122A81D003D004D005D01A
:101E730006D007801C743729F582C007C006C00549
:101E8300C004C003122A81D003D004D005D006D0E9
:101E9300070C75F00AEC84E5F0701D0D7526008DB6
:101EA30082C007C006C005C004C0031212E2D003FB
:101EB300D004D005D006D0070FBF00010E021D9D30
:101EC300D2842290F46AE0FFBF012F90F46BE0FE0E
:101ED300A3E0FFC3EE942CEF9401401390F46BE462
:101EE300F0A3F090F46AF0121C63121C6E800B9046
:101EF300F46B74012EF0E43FA3F090F46BE4F0A3D1
:101F0300F0122A6DAF82BF01030228A4BF020302AD
:101F130022F1BF03030222B6BF0A030224FA8F068B
:101F2300BE20030228D6BE2C0302259DBF3C03021C
:101F33002448BF3E030223E0BE410302201FBE44E8
:101F430003022184BE4503022136BE460302222139
:101F5300BE47030227FCBE48030227B8BE4903025B
:101F630025F2BE4A03022774BE4B03022730BE4C40
:101F7300030226ECBE4D03022636BE4E030226B4F0
:101F8300BE4F03022548BE50030224ABBE5102805C
:101F93003DBE52030221D2BE53030220D3BE5403DB
:101FA300022833BE550302267BBE560302286CBEAD
:101FB300570302206DBE5A0302226FBF5E03022342
:101FC30087BF83030228B2BF870302232C2275E154
:101FD3000490DF3BE0FFBF01F890DF0EE0FF74F8F1
:101FE3005FF0E0FF74054FF090DF00E02410F01283
:101FF3001A9B90F46A7401F090F46BE4F0A3F090F0
:102003000032120D5375E10190DF3BE0FFBF01F891
:1020130075E10290DF3BE0FFBF0DF82275E104900C
:10202300DF3BE0FFBF01F890DF0EE0FF74F85FF0E5
:10203300E0FF74054FF090DF00E024F0F0121A9BEC
:1020430090F46A7401F090F46BE4F0A3F090003222
:10205300120D5375E10190DF3BE0FFBF01F875E11D
:102063000290DF3BE0FFBF0DF82275E10490DF3BF8
:10207300E0FFBF01F890DF0EE0FF74F85FF0E0FFD0
:1020830074054FF090DF00E0FF53070FBF0F02808E
:102093000990DF00E02401F0800990DF00E0FF7485
:1020A300F05FF0121A9B90F46A7401F090F46BE401
:1020B300F0A3F0900032120D5375E10190DF3BE085
:1020C300FFBF01F875E10290DF3BE0FFBF0DF8228F
:1020D30075E10490DF3BE0FFBF01F890DF0EE0FF06
:1020E30074F85FF0E0FF74054FF090DF00E0FF54F9
:1020F3000F600890DF00E014F0800B90DF00E0FF3A
:1021030074F05F2409F0121A9B90F46A7401F09042
:10211300F46BE4F0A3F0900032120D5375E10190DB
:10212300DF3BE0FFBF01F875E10290DF3BE0FFBF5B
:102133000DF82275E10490DF3BE0FFBF01F890DF6B
:102143000EE0FF74F85FF0E0FF74054FF090DF01DD
:10215300E02410F0121A9B90F46A7401F090F46B6F
:10216300E4F0A3F0900032120D5375E10190DF3BD0
:10217300E0FFBF01F875E10290DF3BE0FFBF0DF820
:102183002275E10490DF3BE0FFBF01F890DF0EE032
:10219300FF74F85FF0E0FF74054FF090DF01E02477
:1021A300F0F0121A9B90F46A7401F090F46BE4F06F
:1021B300A3F0900032120D5375E10190DF3BE0FF75
:1021C300BF01F875E10290DF3BE0FFBF0DF8227518
:1021D300E10490DF3BE0FFBF01F890DF0EE0FF7406
:1021E300F85FF0E0FF74054FF090DF01E0E02401B9
:1021F300F0121A9B90F46A7401F090F46BE4F0A36C
:10220300F0900032120D5375E10190DF3BE0FFBF08
:1022130001F875E10290DF3BE0FFBF0DF82275E1A5
:102223000490DF3BE0FFBF01F890DF0EE0FF74F89E
:102233005FF0E0FF74054FF090DF01E0E014F0126F
:102243001A9B90F46A7401F090F46BE4F0A3F0909D
:102253000032120D5375E10190DF3BE0FFBF01F83F
:1022630075E10290DF3BE0FFBF0DF82275E10490BA
:10227300DF3BE0FFBF01F890DF0EE0FF74F85FF093
:10228300E0FF74044FF0121A9B90F46A7401F0900B
:10229300F46BE4F0A3F0900032120D5375E101905A
:1022A300DF3BE0FFBF01F875E10290DF3BE0FFBFDA
:1022B3000DF82275E10490DF3BE0FFBF01F812192E
:1022C30081121A9B90F46A7401F090F46BE4F0A30A
:1022D300F0900032120D5375E10190DF3BE0FFBF38
:1022E30001F875E10290DF3BE0FFBF0DF82275E1D5
:1022F3000490DF3BE0FFBF01F8121996121A9B907E
:10230300F46A7401F090F46BE4F0A3F090003212DD
:102313000D5375E10190DF3BE0FFBF01F875E1026A
:1023230090DF3BE0FFBF0DF82275E10490DF3BE057
:10233300FFBF01F890DF0CE0FE7F0074102EFEE477
:102343003FFFC374FF9EE49F5008EE2410FEEF345A
:10235300FFFF90DF0CEEF0121A9B90F46A7401F009
:1023630090F46BE4F0A3F0900032120D5375E10189
:1023730090DF3BE0FDBD01F875E10290DF3BE0FD3E
:10238300BD0DF82275E10490DF3BE0FDBD01F8903F
:10239300DF0CE0FDFE7F00C3EE9410EF94005004C9
:1023A30074012FFFEE24F0FEEF34FF90DF0CEEF00C
:1023B300121A9B90F46A7401F090F46BE4F0A3F0AA
:1023C300900032120D5375E10190DF3BE0FFBF0136
:1023D300F875E10290DF3BE0FFBF0DF82275E104E1
:1023E30090DF3BE0FFBF01F890DF0DE0C4540FFF27
:1023F300BF0F1D90DF0CE0FF53070FBF0F005018F6
:1024030090DF0CE004F090DF0DE0FF2410F0800873
:1024130090DF0DE0FF2410F0121A9B90F46A740110
:10242300F090F46BE4F0A3F0900032120D5375E1D9
:102433000190DF3BE0FFBF01F875E10290DF3BE075
:10244300FFBF0DF82275E10490DF3BE0FFBF01F809
:1024530090DF0DE0C4540FFF701990DF0CE0FF54C0
:102463000F601890DF0CE014F090DF0DE0FF24F014
:10247300F0800890DF0DE0FF24F0F0121A9B90F437
:102483006A7401F090F46BE4F0A3F0900032120D43
:102493005375E10190DF3BE0FFBF01F875E1029066
:1024A300DF3BE0FFBF0DF82275E10490DF3BE0FF67
:1024B300BF01F890DF0BE02401F0E0E0701290DF41
:1024C3000AE02401F0E0E0700790DF09E02401F066
:1024D300121A9B90F46A7401F090F46BE4F0A3F089
:1024E30075E10190DF3BE0FFBF01F875E10290DF8A
:1024F3003BE0FFBF0DF82275E10490DF3BE0FFBF37
:1025030001F890DF0BE014F0E0FFBFFF1190DF0A4A
:10251300E014F0E0FFBFFF0690DF09E014F0121AA9
:102523009B90F46A7401F090F46BE4F0A3F075E10E
:102533000190DF3BE0FFBF01F875E10290DF3BE074
:10254300FFBF0DF82275E10490DF3BE0FFBF01F808
:1025530090DF0BE0FFBFF000401290DF0AE02401A0
:10256300F0E0E0700790DF09E02401F090DF0BE07A
:102573002410F0121A9B90F46A7401F090F46BE447
:10258300F0A3F075E10190DF3BE0FFBF01F875E1D7
:102593000290DF3BE0FFBF0DF82275E10490DF3BC3
:1025A300E0FFBF01F890DF0BE0FF24EF401390DF63
:1025B3000AE0E0700690DF09E014F090DF0AE0140F
:1025C300F090DF0BE024F0F0121A9B90F46A740190
:1025D300F090F46BE4F0A3F075E10190DF3BE0FFD2
:1025E300BF01F875E10290DF3BE0FFBF0DF82275F4
:1025F300E10490DF3BE0FFBF01F890DF0AE0240134
:10260300F0E0E0700790DF09E02401F0121A9B90DC
:10261300F46A7401F090F46BE4F0A3F075E10190B7
:10262300DF3BE0FFBF01F875E10290DF3BE0FFBF56
:102633000DF82275E10490DF3BE0FFBF01F890DF66
:102643000AE0E0700690DF09E014F090DF0AE0147E
:10265300F0121A9B90F46A7401F090F46BE4F0A307
:10266300F075E10190DF3BE0FFBF01F875E10290F7
:10267300DF3BE0FFBF0DF82275E10490DF3BE0FF95
:10268300BF01F890DF09E02401F0121A9B90F46A6D
:102693007401F090F46BE4F0A3F075E10190DF3B7B
:1026A300E0FFBF01F875E10290DF3BE0FFBF0DF8EB
:1026B3002275E10490DF3BE0FFBF01F890DF09E002
:1026C30014F0121A9B90F46A7401F090F46BE4F026
:1026D300A3F075E10190DF3BE0FFBF01F875E10274
:1026E30090DF3BE0FFBF0DF82275E10490DF3BE094
:1026F300FFBF01F890DF097423F090DF0A7431F013
:1027030090DF0B743BF0121A9B90F46A7401F09003
:10271300F46BE4F0A3F075E10190DF3BE0FFBF0150
:10272300F875E10290DF3BE0FFBF0DF82275E1048D
:1027330090DF3BE0FFBF01F890DF097421F090DFE9
:102743000A7462F090DF0B7476F0121A9B90F46AAD
:102753007401F090F46BE4F0A3F075E10190DF3BBA
:10276300E0FFBF01F875E10290DF3BE0FFBF0DF82A
:102773002275E10490DF3BE0FFBF01F890DF0974AD
:1027830010F090DF0A74A7F090DF0B7462F0121A56
:102793009B90F46A7401F090F46BE4F0A3F075E19C
:1027A3000190DF3BE0FFBF01F875E10290DF3BE002
:1027B300FFBF0DF82275E10490DF3BE0FFBF01F896
:1027C30090DF09740CF090DF0A741DF090DF0B7436
:1027D30089F0121A9B90F46A7401F090F46BE4F0A0
:1027E300A3F075E10190DF3BE0FFBF01F875E10263
:1027F30090DF3BE0FFBF0DF82275E10490DF3BE083
:10280300FFBF01F890DF06E4F0121A9B90F46A749C
:1028130001F090F46BE4F0A3F075E10190DF3BE08D
:10282300FFBF01F875E10290DF3BE0FFBF0DF82227
:1028330075E10490DF3BE0FFBF01F890DF06E02481
:1028430001F0121A9B90F46A7401F090F46BE4F0B7
:10285300A3F075E10190DF3BE0FFBF01F875E102F2
:1028630090DF3BE0FFBF0DF82275E10490DF3BE012
:10287300FFBF01F890DF06E014F0121A9B90F46A90
:102883007401F090F46BE4F0A3F075E10190DF3B89
:10289300E0FFBF01F875E10290DF3BE0FFBF0DF8F9
:1028A300221212D0122A3BAF82BF01F802124B90C0
:1028B300DF3BE0FFBF0D0E75E10490DF3BE0FFBFA0
:1028C30001F802034E75E10490DF3BE0FFBF01F81E
:1028D30002032D90F46AE0FFE0700990F46A74013A
:1028E300F0021A9BBF010B90F46AE4F0121C63021E
:0328F3001C6E2236
:10313700000000000000005E0000000E000E0028E6
:103147007C287C2808547C542026100864002854C6
:1031570028400000000E0000003C42000000423CF6
:103167000000005438540010107C101000806020BC
:10317700001010101000006060000020100804000C
:10318700003C423C0000447E40004462524C002216
:103197004A4A360018147E10002E4A4A32003C4A2A
:1031A7004A300002621A0600344A4A34000C52526E
:1031B7003C00006C6C0000806C2C00000010284460
:1031C70000282828280000442810000004520C007A
:1031D7003C425A1C007C12127C007E4A4A34003C56
:1031E700424224007E42423C007E4A4A42007E0A16
:1031F7000A02003C425274007E08087E0000427EAC
:1032070042002040403E007E182442007E4040405D
:10321700007E0C0C7E007E0C307E003C42423C005F
:103227007E12120C003C6242BC007E12324C00241B
:103237004A52240000027E02003E40403E001E60CB
:10324700601E007E30307E006618186600000E7023
:103257000E0062524A4600007E42420004081020D7
:10326700000042427E00000402040040404040004B
:10327700000204000030482878007E4848300030BB
:10328700484800003048487E003068581000107CDD
:1032970012040050A8A898007E0808700000487A19
:1032A70040000040807A007E1028400000427E40A7
:1032B700007810187000780808700030484830000F
:1032C700F848483000304848F8007808081000509F
:1032D70058682800083E48400038404078000038C9
:1032E7004038007860607800483030480018A040C7
:1032F7003800486858480000083C420000007E003B
:103307000000423C08003246534B004746534B00EF
:1033170041534B20004D534B20000D338012338017
:103327001733801C3380465251004348004D4F44A9
:103337000042415544004348414E42570053594EBD
:10334700435700202020202020202020200020205C
:10335700202020202020002D2D2D2D002020202072
:103367002020202020202020202020202020202056
:10337700202020202020202020202020004C656EA7
:103387006774683A2000437572723A2000436E747E
:033397003A2000D9
:1028F600AFFD743D5FF5FDAFFE74035FF5FE4380EB
:10290600C24390FC7F007E00EEFD24F850030229AE
:1029160089EE240A83F582EE240C83F583E473356D
:1029260037434F5B67737F2929292929292929805C
:102936005243FD02AC8074FD5CF580804643FE0484
:10294600AC9074FB5CF590803A43FE08AC9074F74B
:102956005CF590802E43FE10AC9074EF5CF5908091
:102966002243FE20AC9074DF5CF590801643FE4057
:10297600AC9074BF5CF590800A43FE80AC90747F87
:102986005CF590AB807C00EBF4FBECF4FCEB30E107
:10299600027D01AB907C00EBF4FBECF4FCEB30E247
:1029A600027D02AB907C00EBF4FBECF4FCEB30E335
:1029B600027D03AB907C00EBF4FBECF4FCEB30E423
:1029C600027D04AB907C00EBF4FBECF4FCEB30E511
:1029D600027D05AB907C00EBF4FBECF4FCEB30E6FF
:1029E600027D06AB907C00EBF4FBECF4FCEB30E7ED
:1029F600027D07AB807C00EBF4FBECF4FCEB30E6ED
:102A0600027D08AB807C00EBF4FBECF4FCEB30E7DA
:102A1600027D09EDB50602800DEF75F00AA42D9032
:102A2600339A93F582220E8E07BE080050030229C0
:102A36000E758200221228F6AF82C0071228F6AE63
:102A460082D007EFB5060280071228F6AF8280EA29
:102A5600AEFD743D5EF5FDAEFE74035EF5FE43808D
:102A6600C24390FC8F8222122A3BE582FFB50D02FB
:0B2A760080048F0D80027F008F822201
:10339A0000004F4B4E4D015000000000594743209A
:1033AA003C2C033E00000051574552545549000039
:1033BA00000041534446484A0000000000825A581F
:1033CA005642000000000000838485860000000049
:1033DA00000000025E5E00000000000000000A4CCF
:102A8100E582FF7012FE758200C006121275D00633
:102A91000EBE070040F022C3EF648094E1400F7442
:102AA100FA8FF063F08095F04004EF24E0FFEF33FC
:102AB10095E0FEEF24E0FFEE34FFFE8F0F8E1090C5
:102AC1000006122DCEAF82AE837D008D037C00EB1C
:102AD1002FFBEC3EFCEB24EAF582EC3433F583E486
:102AE10093F582C007C006C005121275D005D00645
:092AF100D0070DBD060040D32200
:1033EA00000000000000005F5F000000000300030F
:1033FA000000147F147F1400000000000000231353
:10340A0008646200000007000000000000000000DD
:10341A0000000000000000000000000000000000A2
:10342A000000000000000000000000000000000092
:10343A000000000000000000000000000000000082
:10344A003E5149453E0000427F40000042615149D9
:10345A0046002141454B31001814127F10002745C0
:10346A00454539003C4A49493000017109050300C4
:10347A00364949493600064949291E0000363600B0
:10348A0000000056360000000814224100001414FF
:10349A001414140041221408000002015109060004
:1034AA003E415D494F007E0909097E007F4949492D
:1034BA0036003E41414122007F4141413E007F4961
:1034CA00494941007F09090901003E4149497900FA
:1034DA007F0808087F0000417F41000030404040DB
:1034EA003F007F08142241007F40404040007F0295
:1034FA000C027F007F0408107F003E4141413E00DC
:10350A007F09090906003C42523C40007F091929FB
:10351A00460046494949310001017F0101007F40C7
:10352A0040407F000718601807003F4038403F00BE
:10353A00631C081C630003047C0403006161514995
:10354A004700020151090600020151090600020161
:10355A00510906000201510906000201510906003B
:10356A00020151090600020151090600020151092E
:10357A000600020151090600020151090600020172
:10358A00510906000201510906000201510906000B
:10359A0002015109060002015109060002015109FE
:1035AA000600020151090600020151090600020142
:1035BA0051090600020151090600020151090600DB
:1035CA0002015109060002015109060002015109CE
:1035DA000600020151090600020151090600020112
:1035EA0051090600020151090600020151090600AB
:1035FA00020151090600020151090600020151099E
:10360A0006000201510906000201510906000201E1
:10361A00510906000201510906000201510906007A
:10362A00020151090600020151090600020151096D
:10363A0006000201510906000201510906000201B1
:10364A00510906000201510906000201510906004A
:10365A000000000000000000000000000000000060
:10366A000000000000000000000000000000000050
:10367A000000000000000000000000000000000040
:10368A000000000000000000000000000000000030
:10369A000000000000000000000000000000000020
:1036AA000000000000000000000000000000000010
:1036BA000000000000000000000000000000000000
:1036CA0000000000000000000000000000000000F0
:1036DA0000000000000000000000000000000000E0
:0300EE00750E008C
:102AFA007E8C7FF48FD57E8C7FF48ED47E947FF487
:102B0A008FD37E947FF47F008ED28F0F7510188F2B
:102B1A001190F48C75F000022D487403B50E0475FB
:102B2A0082FF22850E82050E227A10E4FBFCE582E2
:102B3A0025E0F582E58333F583EB33FBEC33FCEBDD
:102B4A00950FF5F0EC95104006FCABF0438201DAE4
:102B5A00DD22F9E50F45104511451260777800C36B
:102B6A0008E51220E73BE50F25E0F50FE51033F500
:102B7A0010E51133F511E51233F512E582950FE5EB
:102B8A00839510E5F09511E9951250D4C3E5121317
:102B9A00F512E51113F511E51013F510E50F13F50C
:102BAA000FE582950FFCE5839510FDE5F09511FE82
:102BBA00E995124007F98EF08D838C82C3E51213D2
:102BCA00F512E51113F511E51013F510E50F13F5DC
:102BDA000FD8CEE922FB7A20E4FCFDFEFFE5822530
:102BEA0082F582E58333F583E5F033F5F0EB33FBC9
:102BFA004017DAE98042E5822582F582E58333F5DA
:102C0A0083E5F033F5F0EB33FBEC33FCED33FDEE0B
:102C1A0033FEEF33FFEC950FED9510EE9511EF951E
:102C2A00124013EC950FFCED9510FDEE9511FEEF99
:102C3A009512FF438201DABEEB22122CE7BC000395
:102C4A00022F89EF60FA30D502B2D1E583B4FF03CF
:102C5A00022F9FE582B4FF03022F9F25834007249A
:102C6A0082400B022F892483145003022F9FF5827E
:102C7A00EA8DF0A4A8F0EA8EF0A428F8E435F0F979
:102C8A00EB8DF0A428E935F0F9E433CA8FF0A429D2
:102C9A00F9EA35F0FAEBF88EF0A429F9EA35F0FAF8
:102CAA00E433FBEC8DF0A429F9EA35F0FAE43BFBB6
:102CBA00E88FF0A42AFAEB35F0FBE433CCFD8EF072
:102CCA00A42AFAEB35F0FBE43CFCED8FF0A42BFBD5
:102CDA00EC35F0FC20E703122D15022F68AA82AB0F
:102CEA0083A2F73392D1F5826002D2F7ACF0E58184
:102CFA0024F9F8E6FD08E6FE0886F008E6A2F733AE
:0B2D0A0092D5F5836002D2F7AFF022F3
:0600B800E478FFF6D8FD1C
:102D15007804EC7011E58224F8500AF582E4C9CAFA
:102D2500CBFCD8EF22EC7820058220E713D5820171
:102D350022C3E933F9EA33FAEB33FBEC33FCD8EA87
:102D4500158222AC82AD83AE10AF11BE0004EF60D8
:102D55000C1F0FE50F122DB3A3DEFADFF88C828D61
:022D65008322C7
:100096007917E94400601B7A019036EA78A47593D3
:1000A600F4E493F2A308B800020593D9F4DAF275E2
:0200B60093FFB6
:102D6700FCABF0AA83A982749EC2D1F582122D15FD
:102D7700022F687F9E122DA130D103022F89C3EF46
:102D87009582500974FFF5F0F583F58222790012D8
:102D970030D089828A838BF0EC22AA82AB83A2F798
:102DA7003392D1F5826002D2F7ACF02220F71130CE
:102DB700F6138883A88220F509F6A8837583002275
:102DC70080FEF280F5F022E582850FF0A4C582C06F
:102DD700F08510F0A4D0F025F0C583850FF0A42569
:102DE70083F58322AAF0FBE582850FF0A4FCADF002
:102DF700E583850FF0A42DFDE435F0FEE58285100F
:102E0700F0A42DFDE5F03EFEE433FFEA850FF0A4C4
:102E17002EFEE5F03FFFE5838510F0A42EFEE5F0DA
:102E27003FFFE5828511F0A42EFEE5F03FFFEB851D
:102E37000FF0A42FFFEA8510F0A42FFFE58385117B
:102E4700F0A42FFFE5828512F0A42F8EF08D838CDE
:102E57008222E50F451060467A01E50F25E0F50F60
:102E6700E510334012F510E582950FE58395104084
:102E7700030A80E6C3E51013F510E50F13F50FC33A
:102E8700E582950FF5F0E58395104005F58385F00C
:102E970082C3E51013F510E50F13F50FDAE12212DF
:102EA7002CE77900E583B58202800D5003122FB716
:102EB700E583C395821230D0E5D0C465D020E117F1
:102EC700EA2DFAEB3EFBEC3FFC500974011230D0BF
:102ED700EC4480FC022F68C3EA9DFAEB9EFBEC9F53
:102EE700FC500FC3E499F9E49AFAE49BFBE49CFCD9
:082EF700B2D1122D15022F6863
:1000BE007800E84400600A79007593F0E4F309D8FB
:1000CE00FC78A4E84404600C790590F000E4F0A3F9
:0400DE00D8FCD9FA77
:102EFF00FBC2D530E715D2D5E4C39582F582E495B0
:102F0F0083F583E495F0F5F0E49BFBE51230E717CA
:102F1F00B2D5E4C3950FF50FE49510F510E49511B4
:102F2F00F511E49512F512EB122BDF30D513FBE4FC
:102F3F00C39582F582E49583F583E495F0F5F0E48B
:102F4F009B22E4AC83AB82FAF9748E022D707F8ED4
:102F5F00122D7CF58385F08222B98003EA13B340EA
:102F6F0010EA2401FAE43BFBE43CFC50047C8005AE
:102F7F0082BC000EBB000BBA0008E4F5F0F583F538
:102F8F008222A2D1E582138CF092F78B838A822260
:102F9F00E4F583F58275F080F4A2D11322E4F58372
:102FAF00F58275F0C0747F22E582C583F582A2D1C8
:102FBF0033A2D592D11392D5ECCFFCEBCEFBEACD59
:102FCF00FA22AA82AB831230B46003A380F8C3E560
:102FDF00829AF582E5839BF58322122CE730D50286
:102FEF00B2D1BF0009BC0003022FAC022F9FBC005F
:102FFF0003022F89E583B4FF0BE582B4FF03022F91
:10300F00AC022F89E582B4FF03022F9FC395835033
:10301F0007247F400B022F892480145003022F9F17
:10302F00F582C3ED9AEE9BEF9C40111582C3EA33F4
:10303F00F9EB33FAEC33FBE433FC8005E4CCCBCA79
:10304F00F9C08275F019C3E99DEA9EEB9FEC9400DD
:10305F00D5F002802D400EE99DF9EA9EFAEB9FFB19
:10306F00EC9400FCC3B3E833F8E58233F582E583D3
:10307F0033F583C3E933F9EA33FAEB33FBEC33FC73
:10308F0080C4B3E4F938FAE43582FBE43583FCD02D
:0D309F0082500405827C80122D15022F80C6
:0D00890075813F123113E58260030200868D
:1030AC007F86122D7CF5822220F71430F61488834B
:1030BC00A88220F507E6A88375830022E280F7E456
:1030CC009322E0226040F82582500274FFF582E8DA
:1030DC0024F8501ECCCBCAF9E4CC24F85014CBCA3B
:1030EC00F9E4CB24F8500BCAF9E4CA24F85003795C
:1030FC00002224086010F8C3EC13FCEB13FBEA135A
:0B310C00FAE913F9D8F12275820022C5
:00000001FF
