:0614000002148B024A02F7
:01140B0032AE
:0114130032A6
:01141B00329E
:011423003296
:01142B00328E
:031433000242CFA3
:01143B00327E
:011443003276
:03144B0002512D1E
:03145300021A93E7
:03145B00021D6D02
:011463003256
:03146B00024352E7
:011473003246
:01147B00323E
:03148300024D26F1
:0314E70002148666
:03148600022E0330
:1014EA00AF83E58290F554F0EFA3F075E10490DF45
:1014FA003BE0FFBF01F890F554E0FEA3E0FF90DF68
:10150A0006EEF075E10290DF3BE0FFBF0DF8227EA8
:10151A00007F0090FC28E0FCA3E0FD8E028F03C34D
:10152A00EA9CEB9D503AEE2400FCEF34F0FD90FC6F
:10153A0026E0F513A3E0F5148A828B83C007C00660
:10154A00C005C004125662AA82AB83D004D005D06B
:10155A0006D0078C828D83EAF00EBE00B60F80B3E8
:10156A0022E58290F556F0E0FFE59CC39FF59CE5E5
:10157A009C24FAF59C439E10D2BA22AF9E74EF5F68
:10158A00F59E22AF83E58290F55AF0EFA3F090FC26
:10159A0021E060139058241243C190FC21E0F582A7
:1015AA001244037582EF2290FC217406F090DF3B0F
:1015BA00E0FFBF130280F6C29090F557E0FEA3E069
:1015CA00FF90FC88EEF0EFA3F090FC8274F1F0E457
:1015DA00A3F090FC187472F074F3A3F090FC80E40A
:1015EA00F0A3F090FC33F090FC7CF090FC32F09089
:1015FA00FC7E04F0E4A3F090FC7D7402F090F55CAC
:10160A00E4F090000012173290F55AE0FEA3E0FFD2
:10161A0090F559E0FD7B007C008D017A00C3EB99BF
:10162A00EC9A50548B02EA75F0F0A42EF9E43FFAD2
:10163A0090F55C74F0F089828A83C007C006C00501
:10164A00C004C003121732AA82D003D004D005D036
:10165A0006D007EA601B905876C0021243C1D00236
:10166A0090FC21E4F08A82C002124403D0028A82EA
:10167A00220BBB00A40C80A190FC8BE0FF30E3336B
:10168A0090FC88E0FEA3E0FFEE540F602690FC88F1
:10169A00E0FEA3E053060F7F007410C39EFEE49F92
:1016AA00FF90FC88E0FCA3E0FD90FC88EE2CF0EFB4
:1016BA003DA3F090FC88E0FEA3E0FFC374FF9EE424
:1016CA009F502390FC88E0FEA3E090DF02EEF090AA
:1016DA00DF04E0FF74FC5FF0E0FF74024FF090FC5F
:1016EA008A7401F0801290FC88E0FEA3E0FF90DF8C
:1016FA0002EEF090FC8AE4F075E1037E607FEA90E6
:10170A00DF3BE0FDBD130280091EBEFF011FEE4F45
:10171A0070EDD290EE4F700C90FC467413F0905816
:10172A008E1243C175820022AF83E58290F55DF087
:10173A00EFA3F090F55CE0FF240F500A90589F1237
:10174A0043C17582FF22EF703E90FC32E4F090FCB8
:10175A0032E0FE90FC7DE0FDC3EE9D502190FC320C
:10176A00E075F0F1A42472F58274F335F0F583E4A0
:10177A00F090FC32E0FE0E90FC32EEF080D090FC4D
:10178A0032E4F07582002290FC21E0FE601DBE0664
:10179A001E90FC32E0601890DF3BE0FEBE13028030
:1017AA000E90FC217407F07582ED227582ED22906D
:1017BA00FC32E075F0F1A42472FD74F335F0FE8D6D
:1017CA00828E83E0600A90FC467418F07582FE22CD
:1017DA008D828E8374FFF090FC32E075F0F1A424C0
:1017EA0072FD74F335F0FE0DBD00010E7C0090F51C
:1017FA005DE0FAA3E0FB8A138B148C158F037F003C
:10180A008B168F178D828E838CF0C007C0031255FA
:10181A0089D003D00790FC8BE0FE20E3030218DA9C
:10182A0090FC32E075F0F1A42472FD74F335F0FEF9
:10183A000DBD00010E90FC5DEBF0EFA3F08D828EE2
:10184A00831252A7AE8290F55CEEF090FC8BE0FF1B
:10185A00530704BF043F90FC32E075F0F1A42472F0
:10186A00FD74F335F0FF0DBD00010F8E037C00906F
:10187A00FC8BE0FA5302F090FC61EDF0EFA3F090DC
:10188A00FC63EBF0ECA3F090FC65EAF08D828F83A9
:10189A001252E1803B90FC32E075F0F1A42472FD13
:1018AA0074F335F0FF0DBD00010F7C0090FC8BE056
:1018BA00FB5303F090FC68EDF0EFA3F090FC6AEEA6
:1018CA00F0ECA3F090FC6CEBF08D828F8312532A1C
:1018DA0090FC32E075F0F1A42472FE74F335F0FF47
:1018EA0090F55CE0FD8E828F83F090FC32E0FF0F72
:1018FA0090FC32EFF090FC7DE0FEEFB5060590FC1F
:10190A0032E4F075820022AF83E58290F55FF0EF52
:10191A00A3F090FC21E0FF6014BF0102800F9058F1
:10192A00B91243C190FC21E0F582124403121585D5
:10193A0090FC2AE4F0A3F090FC2AE0FEA3E0FF8EDC
:10194A00828F83121A1390DF3BE0FFBF0DF890DFFE
:10195A003AE0FF53077FBF6000402790FC2AE0FE71
:10196A00A3E0FF0EBE00010F90FC2AEEF0EFA3F0F9
:10197A00D29090000A124FADC29090000A124FAD59
:10198A0080B590FC217402F090FC47E0FCA3E0FDD6
:10199A00A3E0A3E090FC2CECF0EDA3F090F55FE05F
:1019AA00FEA3E0FF90FC30EEF0EFA3F02290FC21C2
:1019BA00E4F090FC47E0FCA3E0FDA3E0A3E090FC88
:1019CA002CECF0EDA3F02290FC217404F090FC477B
:1019DA00E0FCA3E0FDA3E0A3E090FC2CECF0EDA377
:1019EA00F02290FC217405F090FC34E4F0A3F0900E
:1019FA00FC47E0FCA3E0FDA3E0A3E090FC2CECF0A4
:101A0A00EDA3F075820002156BAF83E58290F56154
:101A1A00F0EFA3F090F561E0FEA3E0FFEE2400F5FD
:101A2A0082EF34F0F583E0FF7E008F828E8302140A
:101A3A00EAAF83E58290F563F0EFA3F090F563E0F7
:101A4A00FEA3E0FF90F370EEF0EFA3F0222290FCE9
:101A5A002AE0FEA3E0FF0EBE00010F90FC2AEEF082
:101A6A00EFA3F0C3EE9470EF9403400790FC2AE4CE
:101A7A00F0A3F090FC2AE0FEA3E0FFEE2400F5823A
:101A8A00EF34F0F583E0F58222C021C0E0C0F0C057
:101A9A0082C083C007C006C005C004C003C002C01C
:101AAA0001C000C0D075D00090FC1DE02401F0A355
:101ABA00E03400F090FC22E0FEA3E0FF90FC1DE081
:101ACA00FCA3E0FDECB5060BEDB5070790FC1DE4A1
:101ADA00F0A3F090FC1DE0FEA3E0FFBE0005BF00EE
:101AEA0002800BBE0105BF00028068021C5590FCF3
:101AFA001DE0FEA3E08E077E00AC9C7D00EC420652
:101B0A00ED420790FC2EEEF0EFA3F090FC2AE0FEE7
:101B1A00A3E0FF0EBE00010F90FC2AEEF0EFA3F047
:101B2A0090FC28E0FCA3E0FDC3EE9CEF9D400790EB
:101B3A00FC2AE4F0A3F090DF3BE0FFBF1303021D91
:101B4A005090FC2AE0FEA3E0FF8E828F83121A13C4
:101B5A00021D5090FC21E0FFBF05028003021D50C8
:101B6A00900019124FAD90F567741CF090FC2AE0B2
:101B7A00FEA3E090F568EEF090FC2AE0A3E090F571
:101B8A0069F090F56A7442F090F56B744CF090F538
:101B9A006C7441F090F56D7448F090F56E7442F0F3
:101BAA0090F56F744CF090F5707441F090F5717483
:101BBA0048F090F5727442F090F573744CF090F519
:101BCA00747441F090F5757448F090F5767442F0AB
:101BDA0090F577744CF090F5787441F090F579743B
:101BEA0048F090F57A7442F090F57B744CF090F5D9
:101BFA007C7441F090F57D7448F090F57E7442F063
:101C0A0090F57F744CF090F5807441F090F58174F2
:101C1A0048F090F5827420F090FC36741CF0E4A32E
:101C2A00F090FC38F0A3F090FC3AF0A3F090F5683D
:101C3A0012467B90FC34E0FEA3E0FF0EBE00010FCB
:101C4A0090FC34EEF0EFA3F0021D5090FC21E0FF6F
:101C5A00BF03028065BF04028008BF050280030239
:101C6A001D5090FC2CE0FEA3E0FF90FC47E0FAA395
:101C7A00E0FBA3E0FCA3E0FD8E008F01E4FEFFEA97
:101C8A00C398FAEB99FBEC9EFCED9FFDC374649A32
:101C9A00E49BE49CE49D50229058E71243C190FCD7
:101CAA00217405F090FC47E0FCA3E0FDA3E0FEA34D
:101CBA00E0FF90FC2CECF0EDA3F090FC33E075F023
:101CCA00F1A42472FE74F335F0FF8E828F83E060F4
:101CDA0075900019124FAD90FC33E075F0F1A42411
:101CEA0072FE74F335F0FF90DF04E05401FDB40195
:101CFA0000E4332EFDE43FFC8E828F83E090FC36B5
:101D0A00F0E4A3F090FC38F0A3F090FC3AF0A3F0D2
:101D1A008D828C8312467B90FC33E075F0F1A4240B
:101D2A0072F58274F335F0F583E4F090FC33E0FF4A
:101D3A000F90FC33EFF0BF0200400590FC33E4F053
:101D4A009059051243C1D0D0D000D001D002D0039F
:101D5A00D004D005D006D007D083D082D0F0D0E00E
:101D6A00D021323290FC21E4F090FC32F090FC3326
:101D7A00F090FC2AF0A3F090FC267453F0E4A3F050
:101D8A0090FC287453F0E4A3F090FC2EF0A3F0909A
:101D9A00FC2CF0A3F090FC227406F0E4A3F090FC73
:101DAA0024F0A3F090FC30F0A3F090FC34F0A3F000
:101DBA0012151990FC21E4F0759DDC859E9E439EC8
:101DCA000443CB1022021D6E9021F612334890FC78
:101DDA0047E4F0A3F0A3F0A3F0121DCF90F583E43B
:101DEA00F090F5847412F074F8A3F02290FC21E0CC
:101DFA00FFBF000302212BBF0103021FFCBF020326
:101E0A00021EFABF030302212BBF040302212BBFC8
:101E1A00050302210CBF060122BF40028006BF4112
:101E2A000280422275E10490DF3BE0FFBF01F89097
:101E3A00DF0374E5F090DF047404F090DF07741296
:101E4A00F090DF08E4F090DF147410F090DF17E0F0
:101E5A00FF74C04FF090FC217441F090F584741225
:101E6A00F074F8A3F090F583E4F090FC34E0FEA35C
:101E7A00E0FF90F583E0FDFB7C00C3EB9EEC9F50F6
:101E8A004590DF06EDF075E10490DF3BE0FFBF010E
:101E9A00F875E10290DF3BE0FFBF0DF890000212F7
:101EAA004FAD90F584E0FEA3E0FF90F583E02EFEAF
:101EBA00E43FFF90DF3AE0FD8E828F83F090F58356
:101ECA00E02401F080A475E10490DF3BE0FFBF014C
:101EDA00F890FC34E0FEA3E08E3375340090F5846C
:101EEA00E0F535A3E0F536753201758243022E35E9
:101EFA00E50E7003021FEA90FC45740DF0AF9A7468
:101F0A00FE5FF59AE50E20E403021FEA90FC2174B5
:101F1A0003F090FC1FE0FEA3E08E8212156B90592D
:101F2A00131243C190FC1FE0FEA3E0FF8E828F8351
:101F3A0012441E90F811E025E0FEE42412FFEE346C
:101F4A00F8FE8F828E831243C190F811E0FFB4012C
:101F5A0000E433FF90F583F0EF2416FDE434FCFE31
:101F6A008D828E83E0707290DF04E0FE30E0378F5E
:101F7A0006EE2EFDE42412F582ED34F8F583E0FE38
:101F8A008E337534008F06EE2EFDE42412FEED34F6
:101F9A00F8FD74012EF535E43DF53675320175828A
:101FAA0042122E35802290DF02E0FE8E33E4F534B1
:101FBA00EF2FFEE42412FFEE34F8FE8F358E3675CD
:101FCA003201758242122E3590F583E0FF2416F510
:101FDA0082E434FCF5837401F0AF0E74EF5FF50E02
:101FEA00D20010AF02C200750E00A20092AF439A4F
:101FFA000122E50E70030220FA90FC45740DF0AF41
:10200A009A74FE5FF59AE50E20E4030220FA90F82E
:10201A0011E0FF90F583B40100E433F090592812DF
:10202A0043C190F583E025E0FEE42412FFEE34F884
:10203A00FE8F828E8312441E90F583E025E0FEE433
:10204A002412FFEE34F8FE8F828E831243C190F879
:10205A0011E0FFB40100E433FF90F583F0EF24169A
:10206A00FDE434FCFE8D828E83E0707290DF04E022
:10207A00FE30E0378F06EE2EFDE42412F582ED34B1
:10208A00F8F583E0FE8E337534008F06EE2EFDE4FC
:10209A002412FEED34F8FD74012EF535E43DF536D3
:1020AA00753201758242122E35802290DF02E0FEDF
:1020BA008E33E4F534EF2FFEE42412FFEE34F8FEFB
:1020CA008F358E36753201758242122E3590F58320
:1020DA00E0FF2416F582E434FCF5837401F0D200A3
:1020EA0010AF02C200AF0E74EF5FF50EA20092AFFE
:1020FA00D20010AF02C200750E00A20092AF439A3E
:10210A00012290FC34E0FEA3E0FF90FC28E0FCA34F
:10211A00E0FDC3EE9CEF9D50012290FC217404F077
:10212A0022E50E70012290FC45740DF0E50E543044
:10213A0070012290F811E0FFB40100E433FF90F53A
:10214A0083F0EF2416FDE434FCFE8D828E83E0607A
:10215A00030221E390DF04E0FE30E0378F06EE2E23
:10216A00FDE42412F582ED34F8F583E0FE8E337532
:10217A0034008F06EE2EFDE42412FEED34F8FD74D1
:10218A00012EF535E43DF536753201758242122E7F
:10219A0035803590FC77E0E0600A90FC7AE0FDA398
:1021AA00E0FE800890DF02E0FCFD7E00EF2FFCE4F9
:1021BA002412FFEC34F8FC8F358C367532018D33DE
:1021CA008E34758242122E3590F583E0FF2416F57F
:1021DA0082E434FCF5837401F0D20010AF02C2002D
:1021EA00AF0E74CF5FF50EA20092AF2290F7C3E054
:1021FA00FDA3E0FEA3E0FF90F7C8E0FCBC4202802A
:10220A0003022B9190F7C9E0FC24BE5003022B83F2
:10221A00EC240A83F582EC244683F583E4738383F2
:10222A00FC4483AF6A889BD40D3174128383D857D8
:10223A007EF1162995093E83838383838383E8711C
:10224A00B8AED183838383838383838383838383A6
:10225A008383838383838383838383838383ACE6B8
:10226A002B2B22252B2324242424252525262B2BFE
:10227A00282929292A2A2A28292B2B2B2B2B2B2BB5
:10228A002A2B2A29292B2B2B2B2B2B2B2B2B2B2B9A
:10229A002B2B2B2B2B2B2B2B2B2B2B2B2B2B2B2B84
:1022AA002222C007C006C005121585D005D006D067
:1022BA000790FC217440F08D828E838FF01257C1F3
:1022CA00FC7B0090FC34ECF0EBA3F090F7E9EDF026
:1022DA00EEA3F0758201124113022B9190FC21E4C6
:1022EA00F090F7E9EDF0EEA3F075820112411302C6
:1022FA002B9190FC21E060099059421243C1022BB4
:10230A00918D828E838FF01257C1FC7B0090F586E7
:10231A00ECF0EBA3F08D828E83A3E0FAE4F92CFCB7
:10232A00EA3BFB90F586ECF0EBA3F08D828E83A35B
:10233A00A3A3A3E0FA8A0889098D828E83A3A3A3A3
:10234A00A3A3E0FAE42508F508EA3509F50990FCA3
:10235A001AE4F0A3F074062DF9E43EFA90FC36EC88
:10236A00F0EBA3F090FC38E4F0A3F090FC3AE50817
:10237A00F0E509A3F089828A83C007C006C0051266
:10238A00467BAC82D005D006D0078D828E838FF033
:10239A00EC12562A90F7E9EDF0EEA3F075820112DD
:1023AA004113022B918D828E838FF01257C190FCBC
:1023BA007AF0E4A3F08D828E83A3E0FB7C0090FC8C
:1023CA007AE0F9A3E0FA90FC7AEC29F0EB3AA3F070
:1023DA0090FC7AE0A3E090FC7AE0F5F0A3E045F007
:1023EA00604B90FC777401F090FC78E0A3E090FCDD
:1023FA0078E0F5F0A3E045F070471245B490FC7A16
:10240A00E0FBA3E0FC90FC78EBF0ECA3F090FC7806
:10241A00E0FBA3E090DF02EBF090DF04E0FC74FC49
:10242A005CF0E0FC74024CF012456A801490FC7770
:10243A00E4F090FC78F0A3F090FC7AF0A3F0124557
:10244A00B490F7C8E0FC90F7C9E0F53275357A75B3
:10245A0036FC7533017534008C82122E35022B91AD
:10246A008D828E838FF01257C190FC8BF090F7E922
:10247A00EDF0EEA3F0758201124113022B9190F751
:10248A00E9748BF074FCA3F0758201124113022BDC
:10249A009190FC8BE0FC5304F090FC597406F09088
:1024AA00FC5AECF08D828E838FF0C007C006C005FF
:1024BA0012524FD005D006D00790F7E9EDF0EEA3FF
:1024CA00F0758210124113022B9190FC8BE0FC53A1
:1024DA0004F090FC597404F090FC5AECF08D828E52
:1024EA00838FF0C007C006C00512524FD005D00630
:1024FA00D00790F7E9EDF0EEA3F0758210124113C0
:10250A00022B918D828E838FF01257C190FC8CF032
:10251A00E0FC74015CF090F7E9EDF0EEA3F075824F
:10252A0001124113022B9190F7E9748CF074FCA309
:10253A00F0758201124113022B918D828E838FF0E6
:10254A001257C1FC7B008C828B83C007C006C00572
:10255A00121A3BD005D006D00790F7E9EDF0EEA3AA
:10256A00F0758201124113022B9190FC21E0601C4C
:10257A008D828E838FF074EF12562A90F7E9EDF070
:10258A00EEA3F0758201124113022B918D828E8384
:10259A008FF01257C1FC7B0090F586ECF0EBA3F0AC
:1025AA008D828E83A3E0FAE42CFCEA3BFB90F5864D
:1025BA00ECF0EBA3F08D828E83A3A3E0FA90FC1AD1
:1025CA00E4F0A3F074032DF8E43EF990F557ECF02B
:1025DA00EBA3F090F559EAF088828983C007C00618
:1025EA00C00512158DAC82D005D006D0078D828E1B
:1025FA00838FF0EC12562A90F7E9EDF0EEA3F0750E
:10260A008201124113022B918D828E838FF0125711
:10261A00C1FB7C0090F586EBF0ECA3F0EB4C600379
:10262A0002271A90FC88E0A3E090FC88E0F5F0A36A
:10263A00E045F0601C90DF3BE0FABA1314900028E2
:10264A00C007C006C005124FADD005D006D007801E
:10265A00D290FC88E0A3E090FC88E0F5F0A3E04586
:10266A00F0606B905967C007C006C0051243C1905D
:10267A00FC88E0F9A3E0FA89828A8312441E90F367
:10268A0072E0F58212440390F463E0F58212440387
:10269A00D005D006D00790FC467412F08D828E8346
:1026AA008FF074EC12562AC290C007C006C00512F9
:1026BA004545D005D006D00790FC21E4F090F7E913
:1026CA00EDF0EEA3F0758201124113022B91C29034
:1026DA0090FC21E4F08D828E838FF012562A905955
:1026EA007BC007C006C0051243C190FC1AE0F9A3DB
:1026FA00E0FA89828A8312441ED005D006D0079058
:10270A00F7E9EDF0EEA3F0758201124113022B9165
:10271A0090FC21E0FABA0602806190598BC007C08A
:10272A0006C0051243C1D005D006D00790FC46E08A
:10273A00FABA121B8D828E838FF074EC12562A908D
:10274A00F7E9EDF0EEA3F0758201124113801F90B4
:10275A00FC467417F08D828E838FF074EF12562A1E
:10276A0090F7E9EDF0EEA3F0758201124113C290E1
:10277A0012454590FC21E4F0022B9174012DF9E4F5
:10278A003EFA90F55CEBF089828A83C007C006C0E6
:10279A0005121732AC82D005D006D0078D828E83FF
:1027AA008FF0EC12562A8D828E838FF01257C1FB5E
:1027BA00EC603BBBFE028036905994C007C006C04D
:1027CA00051243C1D005D006D0078D828E838FF0C3
:1027DA001257C1F582C007C006C005124403C29051
:1027EA00124545D005D006D00790FC21E4F090F7B9
:1027FA00E9EDF0EEA3F0758201124113022B918DDF
:10280A00828E838FF01257C1FB7C0090F586EBF025
:10281A00ECA3F0C374F09BE49C501990589F1243A8
:10282A00C190F7E97486F074F5A3F075820112413C
:10283A0013022B9190FC32E075F0F1A42472F97422
:10284A00F335F0FA89828A83E060199059A112431C
:10285A00C190F7E97486F074F5A3F075820112410C
:10286A0013022B918B0089828A83E8F090FC32E074
:10287A0075F0F1A42472F974F335F0FA09B900017C
:10288A000A890A8A0B750C0074012DF9E43EFA894B
:10289A00138A147515008B168C17850A82850B838B
:1028AA00850CF012558990FC32E0FC0C90FC32EC5D
:1028BA00F0BC0200400590FC32E4F090F7E974861F
:1028CA00F074F5A3F0758201124113022B918D82E7
:1028DA008E838FF01257C1FC7B0090FC26ECF0EB44
:1028EA00A3F090FC26E0F9A3E0FAC374709C740389
:1028FA009B402E74022DFBE43EFC8B138C14751541
:10290A000089168A1790F00075F00012558990F721
:10291A00E97426F074FCA3F0758202124113022BAB
:10292A009190F7E974C2F07459A3F07582081241C4
:10293A0013022B9190FC26E0FBA3E090F7E97400C8
:10294A00F074F0A3F08B82124113022B91121A58E1
:10295A007B008B83121A1390FC2AE0FBA3E0FC9005
:10296A00F7E9EB2400F0EC34F0A3F0758201124190
:10297A0013022B918D828E838FF01257C1FC7B003C
:10298A008C828B83C007C006C0051214EAD005D01A
:10299A0006D00790F7E9EDF0EEA3F0758201124137
:1029AA0013022B91758200C007C006C00512156B71
:1029BA00D005D006D00790F7E9EDF0EEA3F07582C6
:1029CA0001124113022B91C007C006C005121585DA
:1029DA00D005D006D00790F7E9EDF0EEA3F07582A6
:1029EA0001124113022B918D828E838FF01257C1EF
:1029FA00FC7B0090FC22ECF0EBA3F090F7E9EDF001
:102A0A00EEA3F0758201124113022B9190F7E9743B
:102A1A0022F074FCA3F0758204124113022B918DEB
:102A2A00828E838FF0C007C006C005124380D0058E
:102A3A00D006D0078D828E838FF01257C1F582C0DF
:102A4A0007C006C005124403D005D006D0078D8200
:102A5A008E838FF01257C1FC7B008C138B148B155D
:102A6A007516158B1790FC2175F000C007C006C0BB
:102A7A0005125589D005D006D00790F7E9EDF0EE9A
:102A8A00A3F0758215124113022B9190FC1DE0FBF5
:102A9A00A3E0FC90FC24EBF0ECA3F090F7E974219E
:102AAA00F074FCA3F0758215124113022B918D82EA
:102ABA008E838FF01257C1FC7B008C828B83C007F8
:102ACA00C006C005121911D005D006D00790F7E943
:102ADA00EDF0EEA3F0758201124113022B9190FCE6
:102AEA0047E0F9A3E0FAA3E0A3E090FC2CE9F0EABE
:102AFA00A3F08D828E838FF01257C1FC90FC21F0D7
:102B0A0090FC21E0FBEC24FA404DEB2B2B902B1B85
:102B1A0073022B2D022B2D022B2D022B4F022B4F32
:102B2A00022B3EC007C006C005121585D005D00687
:102B3A00D0078023C007C006C0051219ECD005D003
:102B4A0006D0078012758200C007C006C00512159C
:102B5A006BD005D006D00790F7E9EDF0EEA3F0753B
:102B6A008201124113802090F7E97421F074FCA3CA
:102B7A00F0758201124113800E90F7E9EDF0EEA391
:102B8A00F0758201124113900000222290F7D1E0E1
:102B9A00FFBF013990F7B1E0FEA3E0FF90F7D4E060
:102BAA00FCA3E0FD90F7B4E0FAA3E0FBEA4B601D5A
:102BBA008E828F83E0F9A3AE82AF838C828D83E904
:102BCA00F0A3AC82AD831ABAFF011B80DF90F7BA7B
:102BDA00E054FDF090DE11E0FF74084FF022AE825F
:102BEA00AF83E0FD20E703022CE18E828F83A3E00E
:102BFA00FD601DBD0102802ABD0202803BBD0302A9
:102C0A00805ABD04028076BDFE03022CA3022CE189
:102C1A0075370275380090FC4575F0001230E202F3
:102C2A002CE190DE00E0FD7C007539288C3A8D821B
:102C3A008C83123156022CE18E828F83A3A3E0FC8F
:102C4A00A3E0FD74062EF582E43FF583E0F539A38F
:102C5A00E0F53A8C828D83123156807B8E048F0583
:102C6A007B0074062EF582E43FF583E0F537A3E096
:102C7A00F5388C828D838BF01230E2805A90F7B14E
:102C8A00E0FBA3E0FCA3E0FD753910753A008B82E6
:102C9A008C838DF0123156803E74022EFEE43FFF83
:102CAA007D00754BCA754C59754D807513048D148A
:102CBA008E828F838DF0125079E5828583F045F0FC
:102CCA006012D29090012C124FADC29090012C123A
:102CDA004FAD800375C9839000002290DF2FE4F086
:102CEA0090DF30F090DF31F090DF00740CF090DF6D
:102CFA0001744EF090DF0274FFF090DF037440F02D
:102D0A0090DF04E4F090DF05F090DF06F090DF0733
:102D1A007406F090DF08E4F090DF097424F090DF85
:102D2A000A743AF090DF0B74F1F090DF0C74CAF079
:102D3A0090DF0D74A3F090DF0E7401F090DF0F7432
:102D4A0023F090DF107411F090DF117436F090DFE9
:102D5A00127407F090DF13740FF090DF147418F0F8
:102D6A0090DF1514F090DF16746CF090DF1774037F
:102D7A00F090DF187440F090DF197491F090DF1A28
:102D8A007456F090DF1B7410F090DF1C74E9F09019
:102D9A00DF1D742AF090DF1EE4F090DF1F741FF02D
:102DAA0090DF237488F090DF247431F090DF25746B
:102DBA0009F090DF2E74C0F090DF07C4F090DF09AD
:102DCA007425F090DF0A7495F090DF0B7455F0903B
:102DDA00DF1A74B6F090DF1B7410F090DF1C74EAEF
:102DEA00F090DF1D742AF090DF1EE4F090DF1F746C
:102DFA001FF0221250FB025127122DFD12446812B5
:102E0A0051541230AD1245ED121DD21230DCD2AF40
:102E1A00122F80D290900002124FADC29090000AF9
:0B2E2A00124FAD124144121DF680F85B
:1058240043616E6E6F742063616C6C207472616E80
:10583400736D69745F6C6F6E67207768696C65203F
:105844004648535320486F7070696E67206F72200A
:10585400616C72656164792070726F6365737369DA
:105864006E67207472616E736D69745F6C6F6E67BE
:1058740021004D41435F7478282920726574757244
:105884006E6564206572726F72006E657665722053
:10589400656E7465726564205458004648535378A5
:1058A4006D6974206D65737361676520746F6F2013
:1058B4006C6F6E670046485353207374617465209F
:1058C400656E746572696E672053594E4348494E3C
:1058D400472066726F6D2077726F6E6720737461F4
:1058E40074650053594E43485F4D4153544552200B
:1058F4002D3E2053594E43494E474D415354455232
:105904000046485353786D697420646F6E65006E69
:105914006574776F726B207061636B65742873793B
:105924006E6329006E6574776F726B207061636BB0
:10593400657428646973636F76657279290063728C
:1059440061702C20706C65617365207573652046E9
:10595400485353786D6974282920696E737465619E
:1059640064210064726F706F75742066696E616C77
:1059740020776169742100746F74616C206279749A
:1059840065732074783A00756E64657272756E0082
:10599400627566666572206572726F7200737469EF
:1059A4006C6C2077616974696E67206F6E2074680F
:1059B40065206C617374207061636B6574004E4F75
:0B59C400204445414C005253544E005B
:102E3500AF827E0190DE0E7405F090FC457412F0B1
:102E4500E53345347003022F767C107D2790DE1123
:102E5500E0FB30E00D90FC467401F01CBCFF011D49
:102E650080EBEC4D7014D2909003E8124FADC290F8
:102E75009003E8124FAD90FFFF22BE012C7E00901B
:102E8500DE2A7440F0EFF0E532F0AC337D00ECF073
:102E9500E534F0C3743B9533E4953450067C3B7DB3
:102EA50000801AAC33AD348014C374409533E49577
:102EB5003450067C407D008004AC33AD34748025ED
:102EC5002942D6852682852783AA35AB368B01E92B
:102ED500F0852682852783A3EAF0852682852783C8
:102EE500A3A374DEF0852682852783A3A3A3742A72
:102EF500F0852682852783A3A3A3A3A3ECFBF085F6
:102F05002682852783A3A3A3A3E054E0F085268228
:102F1500852783A3A3A3A3A3A3A3E0543F4440F021
:102F2500852682852783A3A3A3A3A3A3A3E054CFC8
:102F3500F0E52942D6E52942D7E52955D160FAE5DC
:102F450029F452D190DE0E7405F090DE11E0FB7489
:102F5500014BF0E533C39CF533E5349DF534EC25A1
:102F650035F535ED3536F53690FC457413F0022E02
:102F75004590FC457414F090000022E5227005127E
:102F8500414480F722AFBE747F5FF5BE43BE80909B
:102F9500DE0B74F7F090DE0774FFF090DE09F04366
:102FA5008C10AF8C74FE5FF58CD2BD439A02758987
:102FB50000C2C5758B00C2E843A90243B902852644
:102FC50082852783A3A3A3A3E054E0F08526828509
:102FD5002783A3A3A3A3A3A3E0549F4420F085269E
:102FE50082852783A3A3A3A3A3A3A3E04408F08515
:102FF5002682852783A3A3A3A3A3A3A3E054FC440C
:1030050001F090DE01E0FF74FE5FF0E4F525F523A5
:10301500F524F52290DE0EF090DE107404F090DEBB
:1030250013F090F7BBE4F090F7BAF090F7AFF0A388
:10303500F090F7B17488F074F5A3F0E4A3F090F77D
:10304500B4F0A3F090F7B6F090F7B7F090F7B8F0BA
:10305500A3F090DE0E7405F090DE107408F090DE9B
:1030650013F090DE12E0FF74014FF090DE15E0FFE3
:1030750074014FF090F7CDE4F090F7CCF090F7C1E4
:10308500F0A3F090F7C374A8F074F5A3F0E4A3F0EF
:1030950090F7C6F0A3F090F7C8F090F7C9F090F755
:1030A500CAF0A3F0439A0222124492858228852809
:1030B500F005F07401800225E0D5F0FBF529E5283F
:1030C50075F008A424F9F52674F735F0F52790FC7A
:1030D500457402F0022F8AD29122C29122AFF0AE3E
:1030E50083E58290F7D6F0EEA3F0EFA3F090F7BB5F
:1030F500E06034D2909003E8124FADC2909003E89F
:10310500124FADD2909003E8124FADC2909003E8F4
:10311500124FADD2909003E8124FADC2909003E8E4
:10312500124FAD90FFFF2290F7D6E0FDA3E0FEA37E
:10313500E0FF90F7ACEDF0EEA3F0EFA3F090F7AF62
:10314500E537F0E538A3F090F7BB7401F090000087
:1031550022AF83E58290F7D9F0EFA3F090F7BBE0BB
:103165006034D2909003E8124FADC2909003E812FC
:103175004FADD2909003E8124FADC2909003E81284
:103185004FADD2909003E8124FADC2909003E81274
:103195004FAD90FFFF2290F7D9E0FEA3E0FF7D0041
:1031A50090F7ACEEF0EFA3F0EDA3F090F7AFE539B3
:1031B500F0E53AA3F090F7BB7401F0900000227F90
:1031C500007E0290DE0EE4F090F7AFE0FCA3E0FD98
:1031D500C3EC9420ED940040047B2080068C037F93
:1031E500017E0A8B017A00ECC399FCED9AFD90F7FC
:1031F500AFECF0EDA3F08B05ED603690F7ACE0FA9F
:10320500A3E0FBA3E0FC8A828B838CF01257C1906C
:10321500DE20F090F7ACE0FAA3E0FBA3E0FC0ABAED
:1032250000010B90F7ACEAF0EBA3F0ECA3F01D80E6
:10323500C790DE11E0FD4EF0EF600590F7BBE4F0BE
:103245002290F7BB7402F07582002290F7B1E0FD81
:10325500A3E0FEA3E0FF90DE11E0FCB40100E4333F
:10326500FC20E0F290DE0EE4F090DE16E0FC7B0040
:1032750090F7B4ECF0EBA3F090F7BAE0FC30E11373
:1032850090F7BB7403F090DE11E0FC74044CF090F1
:10329500FFFF2290F7BAE04402F090F7B4E0FBA3F9
:1032A500E0FCC374209BE49C501CD29090012CC080
:1032B50007C006C005124FADC29090012C124FAD4C
:1032C500D005D006D00790F7B4E0FBA3E0FC8D074E
:1032D500EB4C601690DE20E0FD8F828E83F0A3AF6D
:1032E50082AE831BBBFF011C80E6E52C452D6009E2
:1032F500852C82852D8312148990F7B4E0FEA3E016
:10330500FFC3EE9420EF9400501DE52A452B60097C
:10331500852A82852B8312148990DE11E0FF7408BB
:103325004FF090F7BBE4F090DE11E0FF74404FF0F2
:1033350090F7B4E0FEA3E08E82F5832285822E8588
:10334500832F2285823085833122753701753800B8
:1033550090002575F0400230E2AFF0AE83E5829033
:10336500F7DBF0EEA3F0EFA3F090F7DBE0FDA3E0D1
:10337500FEA3E0FF74022DFDE43EFE8D828E838F59
:10338500F01257C1FDA31257C18D2575220122AF39
:10339500827D087E5A8D828E83A3E090F7DEF090C1
:1033A50013E0E0F9A3E0FAA3E0FBA3E0FCE4B940F5
:1033B5000ABA6C07BB6104BC730104FCE4BF0301DA
:1033C50004FBAA1390F7DEE0F9B9FF02804DE9B5D9
:1033D5000732EB600CBA0309EC60067DE47E1380CE
:1033E5003AEA700890F7DE74FFF080D81A8D828E65
:1033F50083E02DFDE43EFE8D828E83A3E0F990F7F8
:10340500DEF080C08D828E83E02DFDE43EFE8D8250
:103415008E83A3E0F990F7DEF080A98D828E83225A
:10342500AFF0AE83E58290F7DFF0EEA3F0EFA3F007
:1034350090F7DFE0F53DA3E0F53EA3E0F53F74022C
:10344500253DFAE4353EFBAC3F8A828B838CF01236
:1034550057C1F8A31257C1F9893B753C007402B5F1
:103465003B06E4B53C0280227407B53B06E4B53C57
:10347500028002804274AF58FE7F008A828B838C63
:10348500F0EE12562AA3EF12562A8A828B838CF00D
:103495001257C1FAA31257C1F5828A13123394AE9B
:1034A50082AF8390F7E2EEF0EFA3F08E828F83A3D5
:1034B500A3E0FE7F00801C89828813123394AC82BE
:1034C500AD8390F7E2ECF0EDA3F08C828D83E0FC08
:1034D500FE7F007406253DFBE4353EFCAD3F8B8247
:1034E5008C838DF01257C1FCA31257C1FDC3EC9E0E
:1034F500ED9F50048C068D07EE4F700990DE11E0AC
:10350500FD74204DF090F7E2E0FCA3E0FD8E398FCD
:103515003A8C828D8302315690DE0EE4F090DE11F6
:10352500E0FF30E40E90F7BBE4F090DE11E0FE74AE
:10353500804EF0EF30E22490DE11E4F090FC46740A
:1035450004F090F7BBE4F0D290900014C007124F3E
:10355500ADC290900014124FADD00790F7BBE0FEBE
:10356500BE0319D290900032C007124FADC29090A1
:103575000032124FADD00790F7BBE4F090F7BBE0F7
:10358500600302385DEF20E00302385D90DE0EE453
:10359500F090DE16E0FFFE7B407C007D40EE60167D
:1035A50090DE20E0FA8B828C838DF012562AA3AB35
:1035B50082AC831E80E7E540FE20E70302373074C6
:1035C500605EFD6015BD20030236EABD400302368C
:1035D500F6BD600302371B023845741F5EFF70415C
:1035E500AD41BD0002801CBD06028005BD082680D8
:1035F5000C90004075F04012342502384512334FC7
:103605000238457537027538009059E675F0801215
:1036150030E202384590004075F04012437F023891
:1036250045BF0145AD41BD00028005BD0A2680129A
:103635007537027538009059E675F0801230E20250
:1036450038457537017538009059E975F0801230A5
:10365500E202384590DE11E0FD74204DF090004007
:1036650075F04012437F023845BF0236AD41BD00BB
:10367500028008BD1203023845801275370275387D
:10368500009059E675F0801230E202384590DE115F
:10369500E0FD74204DF090004075F04012437F022C
:1036A5003845BF032BE4B5411275370275380090D4
:1036B50059E675F0801230E202384590DE11E0FDE2
:1036C50074204DF090004075F04012437F0238455C
:1036D50090004075F04012437F90DE11E0FD7420AC
:1036E5004DF002384590DE11E0FD74204DF00238B2
:1036F50045E52E452F6013123701800BC02EC02FD4
:1037050090004075F0402202384590004075F04029
:1037150012387402384590DE11E0FD74204DF090AA
:10372500004075F04012437F02384574605EFD60CD
:1037350015BD20030237FCBD4003023810BD6003F0
:10374500023833023845741F5EFF7048AE41BE0132
:1037550003023845BE0303023845BE0502800BBE91
:103765000703023845BE0917800990DE00E542F0DF
:1037750002384590004075F04012335E023845909E
:10378500004075F04012437F90DE11E0FE74204E3C
:10379500F0023845BF0129AE41BE0103023845BEDE
:1037A5000303023845BE110302384590004075F009
:1037B5004012437F90DE11E0FE74204EF002384542
:1037C500BF0220AF41BF01028076BF030280719026
:1037D500004075F04012437F90DE11E0FF74204FEA
:1037E500F0805D90DE11E0FF74204FF09000407591
:1037F500F04012437F804990004075F04012437FAE
:1038050090DE11E0FF74204FF08035E52E452F60E6
:103815001212381B800BC02EC02F90004075F0404F
:1038250022801D90004075F040123874801290DEA1
:1038350011E0FF74204FF090004075F04012437F77
:1038450090DE11E0FF74404FF0E546454770099062
:10385500DE11E0FF74084FF090F7BBE0FFBF0103F6
:103865001231C490F7BBE0FFBF020302325022AF12
:10387500F0AE83E58290F7E4F0EEA3F0EFA3F090CD
:10388500F7E4E0FDA3E0FEA3E0FF8D828E838FF0D9
:103895001257C1FC20E7030239CE74012DFAE43E2C
:1038A500FB8F048A828B838CF01257C1FC601EBC8F
:1038B5000102802BBC0202803CBC03028073BC0465
:1038C5000302396BBCFE03023988023A34753702AC
:1038D50075380090FC4575F0001230E2023A3490DC
:1038E500DE00E0FC7B007539288B3A8C828B8312D5
:1038F5003156023A3474022DFAE43EFB8F048A8273
:103905008B838CF01257C1FAA31257C1FB74062D95
:10391500F8E43EF98F04888289838CF01257C1F54B
:1039250039A31257C1F53A8A828B83123156023A6E
:10393500348D028E038F048A488B498C4A74062D78
:10394500F8E43EF98F04888289838CF01257C1F51B
:1039550037A31257C1F538854882854983854AF0D2
:103965001230E2023A3490F7B1E0FAA3E0FBA3E0AB
:10397500FC753910753A008A828B838CF0123156AA
:10398500023A3474022DFAE43EFB8F0490FC4B742A
:10399500EBF07459A3F07480A3F07513047514004B
:1039A5008A828B838CF0125079E5828583F045F00D
:1039B5006012D29090012C124FADC29090012C1242
:1039C5004FAD806B75C983806690F7D1E0FCBC0173
:1039D5005674022DFDE43EFE8D828E838FF01257C4
:1039E500C1FDA31257C1FE90DE0EE4F090DE16E095
:1039F500FF7C007512088F828C83C007C006C00546
:103A0500C004124FF9D004D005D006D007EF4C60A2
:103A15001690DE20E0FB8D828E83F0A3AD82AE830F
:103A25001FBFFF011C80E690F7BAE054FDFFF09040
:103A350000002290F7CCE0FF30E10A90FC467405C7
:103A4500F090FFFF2290DE0E7405F090DE16E0FF89
:103A55008F4B754C0090DE17E0FCE4254BF54BECE5
:103A6500354CF54C90F7CAE0FCA3E0FD4C7058903E
:103A7500F7C6E4F0A3F090DE2AE090F7C8F090DEF8
:103A85002AE090F7C9F090DE2AE0FD7C0090F7CAA5
:103A9500EDF0ECA3F090DE2AE0FAE4FB2DFDEA3C24
:103AA500FC90F7CAEDF0ECA3F0E54B24FCF54BE5F3
:103AB5004C34FFF54CC374049D74029C500990F777
:103AC500CA7404F003A3F0E52955D16012D2909091
:103AD5000014124FADC290900014124FAD80E890C3
:103AE500F7C3E0FBA3E0FCA3E090F7C6E0FAA3E090
:103AF500FFEA2BFBEF3CFC7480252942D685268204
:103B050085278374DEF0852682852783A3742AF0B2
:103B1500852682852783A3A38C07EFF085268285DA
:103B25002783A3A3A3EBF0852682852783A3A3A3DD
:103B3500A3A3A3A3E0543FF0852682852783A3A3EF
:103B4500A3A3A3A3A3E054CF4410F074052526FE38
:103B5500E43527FF90DE16E0FD8E828F83EDF0744D
:103B6500042526FEE43527FF90DE17E08E828F833D
:103B7500541FF5F0E054E045F0F090F7C6E0FEA3E1
:103B8500E0FFEE254BFCEF354CFDC374049C74023D
:103B95009D500B7404C39EF54B74029FF54CC37482
:103BA50040954BE4954C502890FC467406F090DE09
:103BB50014E0FD74FE5DF0751204900005124FF9D6
:103BC500751210854B82854C83124FF990FFFE22AA
:103BD500E52942D6E52942D7E54B2EFEE54C3FFFC8
:103BE50090F7C6EEF0EFA3F0E52955D160FAE52987
:103BF500F452D190F7C6E0FEA3E0FF90F7CAE0FCCF
:103C0500A3E0FDC3EE9CEF9D402C90F7CCE0440271
:103C1500F090F7CAE4F0A3F090DE0E7405F0AE2341
:103C250074BF5524FF8E238F2490DE14E0FF74FEAD
:103C35005FF09000012290DE0E7405F0AE2374BF94
:103C45005524FF8E238F2490DE14E0FF74FE5FF071
:103C55009000002290F7CCE0FF20E1012290F7C30D
:103C6500E0FDA3E0FEA3E0FF90F7E7EDF0EEA3F0A3
:103C750090F7C8E0F55474FFB5540280030240EB99
:103C850090F7C9E0FBBB800050030240CDEB246FE9
:103C950050030240CDEB2480FA240A83F582EA24FE
:103CA5001583F583E473CD62F835154C6D84BDA697
:103CB500CDCDCDCD2558B43C3D3E3F3E3F3F3F3F6A
:103CC5003F404040404040408D828E838FF01257E8
:103CD500C1FA74012DF54FE43EF5508A5275530033
:103CE50090F7CAE552F0E553A3F0854F82855083DE
:103CF500E0F5517401254FF554E43550F555A951BA
:103D05008902E4F92552F552EA3553F55390F7CA7D
:103D1500E552F0E553A3F0855482855583E0F88597
:103D25004F82855083A3A3884D894EE0FAE4254D43
:103D3500F54DEA354EF54E854D35854E3690F7C82D
:103D4500E0FA90F7C9E0F5328552338553348A821B
:103D5500122E3590F7CAE4F0A3F00240E38D828E6F
:103D6500838FF01257C1FA8D828E83A38A4D754ECB
:103D750000E0FA74022DF554E43EF5558A018902F6
:103D8500E4254DF54DEA354EF54EA84DAA4E90F772
:103D9500CEE8F0EAA3F090F7C6E0F9A3E0FAE9244B
:103DA500FEF54DEA34FFF54E854D52854E53E552ED
:103DB5004553603D90F7CEE0F54FA3E0F550740113
:103DC500254FF9E43550FA90F7CEE9F0EAA3F085EE
:103DD5005482855583E0FAA3858254858355854FA2
:103DE50082855083EAF0155274FFB552021553804F
:103DF500BD90F7C8E0FA90F7C9E0F5327535CA7598
:103E050036F77533027534008A82122E350240E387
:103E150090F7CCE0FA20E23C8D828E838FF012572A
:103E2500C1FA8D828E83A38A4D754E00E0FA90F714
:103E3500E774022DF0E43EA3F08A018902E4F92536
:103E45004DF54DEA354EF54EA84DAA4E90F7CEE804
:103E5500F0EAA3F090F7CAE0F9A3E0FA894D8A4E9B
:103E6500C37440954DE4954E5006754D40754E0012
:103E7500E9C3954DF9EA954EFA90F7CAE9F0EAA338
:103E8500F090F7E7E0F552A3E0F553854D54854EE4
:103E950055E5544555603D90F7CEE0F54FA3E0F567
:103EA500507401254FF9E43550FA90F7CEE9F0EA60
:103EB500A3F0855282855383E0FAA38582528583D8
:103EC50053854F82855083EAF0155474FFB554022B
:103ED500155580BD90F7C8E0FA90F7C9E0F5327541
:103EE50035CA7536F77533027534008A82122E3558
:103EF5000240E3D290900002C007C006C005124FF1
:103F0500ADC290900002124FADD005D006D00790FB
:103F1500F7C8E0FA90F7C9E0F53290F7C6E0F53357
:103F2500A3E0F5348D358E368A82122E350240E3B4
:103F35007535F07536598B3275330D7534008554EA
:103F450082122E350240E390FC47E0F8A3E0F9A386
:103F5500E0A3E0883589368B3275330475340085E6
:103F65005482122E350240E37535D87536598B3299
:103F750075330E753400855482122E350240E39058
:103F8500F7C6E0F533A3E0F5348B328D358E3685F3
:103F95005482122E359000C8124FAD1244A1024032
:103FA500E37535CF7536598B327533097534008510
:103FB5005482122E350240E38D828E838FF0125784
:103FC500C1FC74012DF9E43EFABC0202800ABC036F
:103FD500028021BC0429800DC002C00112456AD0AF
:103FE50001D002801AC290C002C0011245B4D001AE
:103FF500D002800BC002C00112458BD001D00290C7
:10400500F7C8E0FC90F7C9E0F53290F7C6E0F53364
:10401500A3E0F53489358A368C82122E350240E3C9
:1040250090F7CA7401F0E4A3F07535367536DF9064
:10403500F7C8E0FC90F7C9E0F53290F7CAE0F53330
:10404500A3E0F5348C82122E3590F7CAE4F0A3F084
:104055000240E38D028E048C017C0090FC4B74FEC3
:10406500F07459A3F07480A3F07513098C148A8237
:1040750089838CF0C007C006C005125079E582859A
:1040850083F0D005D006D00745F0705275C98090F1
:10409500F7C8E0FC90F7C9E0F53290F7C6E0F533D4
:1040A500A3E0F5348D358E368C82122E35802F9017
:1040B500FC45E4F090FC46F090F7E9EDF0EEA3F056
:1040C500758202124113801690F7C6E0F533A3E01E
:1040D500F5348B328D358E36855482122E3590F718
:1040E500CCE054FDF022E5304531601985308285FC
:1040F5003183121489AE82AF83EE4F701090F7CCE6
:10410500E054FDF02290F7CCE054FDFFF022E5826B
:1041150090F7EBF090F7CCE054FDF090F7C8E0FF96
:1041250090F7C9E0F53290F7EBE0FE8E3375340079
:1041350090F7E9E0F535A3E0F5368F82022E35E5F7
:104145002330E01175220274FE5523FEAF248E2321
:104155008F2443BE01E5235406602F90FC45740A65
:10416500F075220374FD5523FEAF248E238F249012
:10417500DE01E0FF74044FF0900008124FAD90DEB1
:1041850001E0FF74FB5FF075220190DE0EE4F09014
:10419500DE11E0FF30E21A90DE11E0FF74DB5FF024
:1041A50090F7AFE4F0A3F090F7B4F0A3F090F7BB6D
:1041B500F090DE0E7405F090DE11E0FF30E5209002
:1041C500DE11E0FF74CF5FF090FC467408F090F7C5
:1041D500C1E4F0A3F090F7C6F0A3F090F7CDF0900E
:1041E500DE14E0FF30E62090DE14E0FF749F5FF000
:1041F50090FC467408F090F7C1E4F0A3F090F7C680
:10420500F0A3F090F7CDF0E52320E2057404B52284
:1042150014122F8A90FC45740BF074FB5523FEAFE6
:10422500248E238F24E52330E41112351D74E755C0
:1042350023FE740F5524FF8E238F24E52430E65486
:1042450090FC45740CF0123A38AE82AF83BEFE4145
:10425500BFFF3E90F7EC7406F0E4A3F090F7C8E0DA
:10426500FF90F7C9E0F5327535EC7536F775330211
:104275007534008F82122E3590F7C8E0FF7535EC46
:104285007536F77532017533027534008F82122E3B
:1042950035123C59E52354E07006E52454BD6029E8
:1042A50090FC467409F0751208900044124FF98588
:1042B5002382852483751210124FF974E05523FE6D
:1042C50074BD5524FF8E238F2422C0E0C082C08395
:1042D500C007C006C005C004C0D075D000E5BE301B
:1042E500E6FB90DE06E0FF7E00E5234207E524427B
:1042F500068F238E2490DE02E0FDE4CDC4CD6DCD86
:1043050054F0CD6DFCED4207EC42068F238E2490D0
:10431500DE04E025E0FCE4FD4207EC42068F23EED7
:10432500F52430E11290F7CCE054FEF0AE2374FD95
:104335005524FF8E238F24758B00C2E8D0D0D0047E
:10434500D005D006D007D083D082D0E032C0E0C0FF
:1043550007C0D075D000E5BE30E6FBC2AFE58930B9
:10436500E703752203AFBE74FC5FF5BE758900C215
:0B437500C5D2AFD0D0D007D0E032227C
:1059CF005344434376333530004348524F4E4F5381
:1059DF002072303436350000000000005253544E10
:1059EF0000554E494D504C454D454E54454400527F
:1059FF00455345545F4E4F570012011001000000F0
:105A0F0020501D47600001010203010A061001002A
:105A1F0000002001000902200001010080FA0904A2
:105A2F000000020000010007058502400001070584
:105A3F000502400001040309040C035200660043F1
:105A4F0000610074001E034300680072006F006E57
:105A5F00006F007300200044006F006E0067006C41
:0F5A6F000065000A03300030003900330000FFEB
:10438000AF83E58290F7EEF0EFA3F090F7EEE0FE5A
:10439000A3E0FF7C007D008E028F038A828B83E086
:1043A000F9A3AA82AB83E960070CBC00EE0D80EB99
:1043B0007532F08C338D348E358F367582FE022E39
:1043C00035AF83E58290F7F0F0EFA3F090F7F0E0DF
:1043D000FEA3E0FF7C007D008E028F038A828B8328
:1043E000E493F9A3AA82AB83E960070CBC00ED0D4E
:1043F00080EA8E358F367532F08C338D347582FEBF
:10440000022E35E58290F7F2F07535F27536F775C4
:1044100032F17533017534007582FE022E35AF839B
:10442000E58290F7F3F0EFA3F07535F37536F77585
:1044300032F27533027534007582FE022E35AF827A
:10444000AE83ADF0FC90F7F5EFF0EEA3F0EDA3F046
:10445000ECA3F07535F57536F77532F375330475E1
:0844600034007582FE022E35C6
:0314E400750D0083
:104468007EF97FF78FD57EF97FF78ED47E017FF8AE
:104478008FD37E017FF87F008ED28F137514188F2B
:104488001590F7F975F00002556A7403B50D0475B7
:1044980082FF22850D82050D2290DF46E0FFBFF0E6
:1044A8000E90DF47E0FFBF0D0690DF487469F0C249
:1044B800AF759A0075B80075A8001230DFAFBE74EA
:1044C8007F5FF5BE75D69FC290020000221255DEAE
:1044D800AC82AD83AEF0FFC004C005C006C0079033
:1044E80037BD75F086743D125466AC82AD83AEF06C
:1044F800FFE58124FCF581E4C0E0C0E074C0C0E0C1
:104508007441C0E08C828D838EF0EF1256FEAC822F
:10451800AD83AEF0FFE58124FCF5818C828D838E1E
:10452800F0EF1255F1AC82AD83AEF090DF09EEF0FA
:104538008D0390DF0AEBF090DF0BECF02275E104BD
:1045480090DF3BE0FFBF01F890FC1CE0F5E190FC38
:104558001CE0FFBF04012290DF3BE0FFBF010280A7
:10456800ED2290FC1CE0FFBF02012290DF13E0FF68
:1045780074F05FF0E0FF740F4FF090FC1C7402F0D1
:104588000249A990FC1CE0FFBF03012290DF13E061
:10459800FF74F05FF0E0FF740A4FF090FC1C7403A6
:1045A800F0F5E190DF3BE0FFBF13F82290FC1CE040
:1045B800FFBF04012290DF13E0FF74F05FF0AF91BA
:1045C80074EF5FF59175E10490DF3BE0FFBF01F800
:1045D800AF9B74FC5FF59BAFE974EF5FF5E990FC66
:1045E8001C7404F02290FC1FE4F0A3F090FC12F07D
:1045F800A3F090FC14F0A3F053C6C7759D00859EE8
:104608009E439E0485A9A943B90190FC1C7404F03B
:10461800751300751400F51590F81275F000125511
:104628006A122CE5D2A87591D175E900750E004380
:104638009A0175E10490DF3BE0FFBF01F8227E009C
:104648007F00C3EE94DCEF9405502490DF3CE0FD3E
:104658005450600490000122900032C007C0061236
:104668004FDBD006D00774322EFEE43FFF80D39094
:10467800000022AF83E58290FC3CF0EFA3F090FCB1
:104688003EE4F090DF02E0FF90DF3BE0FEBE130B5C
:10469800B290C007124144D00780EDC29090FC8AC6
:1046A800E4F090FC38E0FDA3E0FE90FC80EDF0EE35
:1046B800A3F090FC3AE0FBA3E0FC90FC86EBF0EC66
:1046C800A3F090FC36E0F9A3E0FA90FC82E9F0EA66
:1046D800A3F090FC84E9C39BF0EA9CA3F090FC84CF
:1046E800E0FBA3E0FC8D138E148B828C83C007C083
:1046F80006C005C002C001125645AB82AC83D0018A
:10470800D002D005D006D00790FC88EB29F0EC3A0F
:10471800A3F0E94A705D90FC3CE0FBA3E0FC8B82CF
:104728008C83E0F8880F75100090FC36E50FF0E5F3
:1047380010A3F090DF04E0F8530003B800028018DB
:10474800B80102800302480D90FC367401250FF071
:10475800E43510A3F002480D90FC3C74012BF0E402
:104768003CA3F090FC36E0FBA3E0FC90DF02EBF00A
:1047780002480D90DF04E0FC530403BC00028046AD
:10478800BC0102800302480D90FC3CE0FBA3E0FC66
:1047980090FC3FE9F0EAA3F090FC417401F0E4A337
:1047A800F08B828C83C007C002C001124F58D00121
:1047B800D002D00790FC3CE0FBA3E0FC89008B8290
:1047C8008C83E8F0803FED4E603690FC88E0FDA3D6
:1047D800E090DF02EDF090DF04E0FE74FC5EF09004
:1047E800FC88E0FDA3E0FEC374FF9DE49E500990A1
:1047F800DF04E0FE74024EF090FC8A7401F080053C
:1048080090DF02E9F0D2A890FC8BE0FE20E30302DF
:10481800493B90DF04E0FE530603BE010690FC3ED0
:104828007401F090FC3EE0FE90FC3CE0FCA3E0FD4F
:10483800EE2CFAE43DFB90FC36E0F8A3E0F990FC9E
:104848005DE8F0E9A3F08A828B83C007C006C00543
:10485800C0041252A7AA82AB83D004D005D006D0D8
:104868000790FC8BE0F9530104B90448C007EE2C0B
:10487800F8E43DF990FC8BE0FF5307F090FC61E809
:10488800F0E9A3F090FC63EAF0EBA3F090FC65EF8D
:10489800F088828983C007C006C005C004C003C071
:1048A800021252E1D002D003D004D005D006D007BE
:1048B800D0078046C007EE2CF8E43DF990FC8BE069
:1048C800FF5307F090FC68E8F0E9A3F090FC6AEA6F
:1048D800F0EBA3F090FC6CEFF088828983C007C0EE
:1048E80006C005C004C003C00212532AD002D00378
:1048F800D004D005D006D007D007EE601E90FC8B00
:10490800E0FE5306F0BE50098C828D837410F0804F
:10491800228A068C828D83EEF0801890FC8BE0FE54
:104928005306F0BE500890DF027410F0800590DF47
:1049380002EAF090FC3CE0FDA3E0FE90FC18EDF0EC
:10494800EEA3F090FC7EE4F0A3F075E1037D607EB9
:10495800EA90DF3BE0FCBC1302801C1DBDFF011E7A
:10496800ED4E6013B290C007C006C005124144D096
:1049780005D006D00780DAD290ED4E700690FC463E
:104988007413F090DF3BE0FEBE130BB290C0071229
:104998004144D00780EDC29090DF02EFF0758201AC
:1049A80022D2A875130075140075150290F81275B7
:1049B800F00012556A90FC12E4F0A3F090FC14F099
:1049C800A3F090FC16F090FC1704F090F811E4F0B6
:1049D800AF9B74FC5FF59BAFE974EF5FF5E975E198
:1049E8000290DF3BE0FFBF0DF84391102290FC8D51
:1049F8007401F02290FC8DE4F022C021C0E0C0F0E8
:104A0800C082C083C007C006C005C004C003C0027E
:104A1800C001C000C0D075D00090FC457411F0C230
:104A28008990DF3BE0FFBF0D028003024B4CD29020
:104A380090FC77E0E0602A90FC78E0FEA3E0FF902D
:104A4800FC78E024FFFCA3E034FFFD90FC78ECF058
:104A5800EDA3F074FF2F400990DF04E0FF74FC5FC2
:104A6800F090FC1C7402F090F811E025E0FEE424BC
:104A780012FFEE34F8FEE075F002A42412FC74FC78
:104A880035F0FD8C828D83E0FAA3E0FB74012AF8EF
:104A9800E43BF98C828D83E8F0E9A3F0EA2FF582F4
:104AA800EB3EF583E5D9F090F811E075F002A42407
:104AB80012F58274FC35F0F583E0FEA3E0FFC394A1
:104AC80002501A90F811E075F002A42412F58274CD
:104AD800FC35F0F583E0FEA3E0FF4E701A90F81164
:104AE800E0FF75F002A42412F58274FC35F0F5831A
:104AF80074FFF07401A3F090FC78E0A3E090FC78D8
:104B0800E0F5F0A3E045F06003024D0990FC77E082
:104B1800E07003024D0990FC7AE0FEA3E0FF90FCF0
:104B280078EEF0EFA3F090FC78E0FEA3E090DF02CF
:104B3800EEF090DF04E0FF74FC5FF0E0FF74024FDA
:104B4800F0024D0990DF3BE0FFBF13028003024DE6
:104B58000990FC8AE0E07003024C9A90FC2EE0FE7B
:104B6800A3E0FF0EBE00010F90FC2EEEF0EFA3F0C5
:104B780090FC7EE0FEA3E0FF90FC82E0FCA3E0FD59
:104B8800EEB50406EFB505028003024C6D90FC807B
:104B9800E0A3E090FC80E0F5F0A3E045F0603790FA
:104BA800FC80E0FEA3E0FFBEFF05BF00028014907A
:104BB800FC80E024FFFEA3E034FFFF90FC80EEF0D1
:104BC800EFA3F090FC86E0FEA3E0FF90FC7EEEF001
:104BD800EFA3F0024C6D90FC82E0F513A3E0F5140E
:104BE80090FC7CE0FF7E008F828E83125645AE8259
:104BF800AF8390FC18E0FCA3E0FDEE2CF582EF3DBE
:104C0800F583E4F090FC7CE02401F0E0FF90FC7D6B
:104C1800E0FEEFB5060590FC7CE4F090FC82E0F540
:104C280013A3E0F51490FC7CE0FF7E008F828E8356
:104C3800125645AE82AF8390FC18E0FCA3E0FDEE6F
:104C48002CFEEF3DFF8E828F83E0701090FC21E4F4
:104C5800F090FC467412F0124545C29090FC7E74A8
:104C680001F0E4A3F090FC88E0FEA3E0FF90FC884C
:104C7800E024FFFCA3E034FFFD90FC88ECF0EDA3FA
:104C8800F0BEFF22BF001F90DF04E0FF74FC5FF05E
:104C9800801490FC88E024FFFEA3E034FFFF90FC22
:104CA80088EEF0EFA3F090FC1C7403F090FC82E017
:104CB800F513A3E0F51490FC7CE0FF7E008F828E54
:104CC80083125645AE82AF8390FC7EE0FCA3E0FDE4
:104CD80090FC7EE02401F0A3E03400F0EC2EFEED21
:104CE8003FFF90FC18E0FCA3E0FDEE2CF582EF3DC1
:104CF800F583E0F5D990FC1AE02401F0A3E0340034
:104D0800F0D0D0D000D001D002D003D004D005D04C
:104D180006D007D083D082D0F0D0E0D02132C02195
:104D2800C0E0C0F0C082C083C007C006C005C00490
:104D3800C003C002C001C000C0D075D0007511000A
:104D480090FC457410F0AE9B74FC5EF59BE5E9425F
:104D58000EE5E930E02090FC1DE0FDA3E08D067D26
:104D680000AB9C7C0090FC1FED4BF0EE4CA3F0AE2A
:104D7800E974FE5EF5E9E5E954707003024F0990A5
:104D8800FC1CE0FEBE030AAE0E748F5EF50E024FE9
:104D98000290F811E0FEB40100E4332416F582E431
:104DA80034FCF583E0FEBE01028003024EDF90FC76
:104DB8008BE0FE20E103024EB890DF04E0FE5306CC
:104DC80003BE010375110190FC8BE0FE530601BE82
:104DD800017090F811E025E0FDE42412FEED34F8AE
:104DE800FDAB117C00EB2EFEEC3DFDE0F929FAE469
:104DF8002412F9EA34F8FAEB29FBEC3AFCE075F0F6
:104E080002A42412F58274FC35F0F583E0F9A3E0DE
:104E1800FAA8117F00E9C398F9EA9FFA90FC8BE0A1
:104E2800FF5307F090FC61EBF0ECA3F090FC63E912
:104E3800F0EAA3F090FC65EFF08E828D831252E1C8
:104E4800806E90F811E025E0FEE42412FFEE34F8BD
:104E5800FEAC117D00EC2FFFED3EFEE025E0FAE40C
:104E68002412FBEA34F8FAEC2BFCED3AFDE075F07D
:104E780002A42412F58274FC35F0F583E0FAA3E06D
:104E8800FBA8117900EAC398FAEB99FB90FC8BE038
:104E9800F95301F090FC68ECF0EDA3F090FC6AEA9D
:104EA800F0EBA3F090FC6CE9F08F828E8312532A0A
:104EB80090F811E0FF74016FF0E0FF75F002A42490
:104EC80012F58274FC35F0F583E4F0A3F090FC163B
:104ED800F090FC17F0802190FC467412F0B290908C
:104EE800F811E0FF75F002A42412F58274FC35F085
:104EF800F583E4F0A3F0B290C290AFE974CF5FF508
:104F0800E9E5E930E61490FC467410F0B2901245D9
:104F180045B290AFE974BF5FF5E9E5E930E7149071
:104F2800FC467411F0B290124545B290AFE9747F17
:104F38005FF5E9D0D0D000D001D002D003D004D0A2
:104F480005D006D007D083D082D0F0D0E0D021326F
:104F5800AF83E58290FC43F0EFA3F090FC41E0FEC4
:104F6800A3E0FF90FC43E0FCA3E0FD90FC3FE0FAE7
:104F7800A3E0FB8A008B011ABAFF011BE8496024F1
:104F8800EE2AF8EF3BF9E82CF8E93DF9EA2CF5822E
:104F9800EB3DF583C006C007E088828983F0D0071F
:054FA800D00680CF22BD
:105A7E000000000000000100000000000000000017
:075A8E000000000000000011
:104FAD00AE82AF831EBEFF011FC3E49E74808FF0DF
:104FBD0063F08095F050167C4C7D04EC24FFFAEDE7
:104FCD0034FFFB8A048B05EA4B70F080D722AE824A
:104FDD00E583CE25E0CE33FF1EBEFF011FC3E49E49
:104FED0074808FF063F08095F040ED22AE82AF8338
:104FFD00D2909003E8C007C006124FADC290900149
:10500D00F4124FADD006D0071512AD12ED20E754B6
:10501D00EE30E024900019C007C006C005124FAD58
:10502D00D290900226124FADC290900019124FAD42
:10503D00D005D006D0078022900113C007C006C04E
:10504D0005124FADD290900032124FADC29090012B
:10505D0013124FADD005D006D007EFC313CE13CE2C
:10506D00FF1D80A8C2909003E8024FADAFF0AE8354
:10507D00E58290FC4EF0EEA3F0EFA3F090FC4EE035
:10508D00FDA3E0FEA3E0FF90FC4BE0FAA3E0FBA341
:10509D00E0FCA813A914E8496050C000C0018D823E
:1050AD008E838FF01257C1F98A828B838CF0125741
:1050BD00C1F8E9C398F98915D001D0006010E51544
:1050CD00F5163395E0F517851682851783220DBDEC
:1050DD0000010E90FC4EEDF0EEA3F0EFA3F00ABA36
:1050ED0000010B18B8FF011980AC90000022AFBE73
:1050FD0074FB5FF5BEE5BE30E6FBAFC674B85FF579
:10510D00C6E5C620E6FB43BE04E5BE30E6FB53C64E
:10511D00C743E40C43E401D2B92243FE03C29022FB
:10512D00C0E0C082C083C0D090FC47E02401F0A352
:10513D00E03400F0A3E03400F0A3E03400F0D0D070
:10514D00D083D082D0E032124492AF8290FC55EFE2
:10515D00F08FF005F07401800225E0D5F0FB90FC96
:10516D0056F0EF75F008A424F9FE74F735F0FF90B2
:10517D00FC51EEF0EFA3F08E828F83A3A374DFF0CA
:10518D008E828F83A3A3A374B1F08E828F83A3A38A
:10519D00A3A3A37410F074062EF582E43FF583E00B
:1051AD0054E0441DF074072EF582E43FF583E0547E
:1051BD003F4440F074072EF582E43FF583E054FC44
:1051CD004401F0124492AF8290FC57EFF08FF0053E
:1051DD00F07401800225E0D5F0FB90FC58F0EF75DE
:1051ED00F008A424F9FE74F735F0FF90FC53EEF0AF
:1051FD00EFA3F08E828F8374DFF08E828F83A37482
:10520D00B2F08E828F83A3A3A3A3A37410F07406B0
:10521D002EF582E43FF583E054E0441EF074072E32
:10522D00F582E43FF583E054CF4410F074072EF57A
:10523D0082E43FF583E054FC4401F043A91043B9E7
:10524D001022AF83E58290FC5BF0EFA3F0E5B33065
:10525D00E3FB90FC51E0FEA3E0FF90FC5BE0FCA3C0
:10526D00E0FD8C028D038B028E828F83EAF090FC21
:10527D0051E0FEA3E0FF8E828F83A37D00ECF090C2
:10528D00FC56E042D690FC59E0FF90FC5AE0FE4FF0
:10529D004401F5B3E5B330E3FB22AF83E58290FC27
:1052AD005FF0EFA3F090FC5FE0FEA3E0FF90FC5DEC
:1052BD00E0FCA3E0FDEC540F60158C028D030CBCDB
:1052CD0000010DEA2EF582EB3FF583E4F080E68CCC
:1052DD00828D8322AF83E58290FC66F0EFA3F09080
:1052ED00FC66E0FEA3E0FF90FC61E0FCA3E0FD9016
:1052FD00FC63E0FAA3E0FB90FC65E0F990FC6FEC39
:10530D00F0EDA3F090FC71EAF0EBA3F090FC73E4E8
:10531D00F090FC74E9F08E828F83025374AF83E5B5
:10532D008290FC6DF0EFA3F090FC6DE0FEA3E0FF2A
:10533D0090FC68E0FCA3E0FD90FC6AE0FAA3E0FBC2
:10534D0090FC6CE0F990FC6FECF0EDA3F090FC712B
:10535D00EAF0EBA3F090FC737402F090FC74E9F0AA
:10536D008E828F83025374AF83E58290FC75F0EFCC
:10537D00A3F0E5B330E3FB90FC75E0FEA3E0FF90F6
:10538D00FC6FE0F519A3E0F51A90FC74E0FB745086
:10539D005BF51890FC73E0F94B4401FB740149F582
:1053AD001790FC71E0F513A3E0F514E4F515F5166F
:1053BD00C3E5159513E5169514400122C00390FC25
:1053CD0051E0F8A3E0FBE5152EF9E5163FFA890447
:1053DD008A058D0488828B83ECF090FC51E0FCA350
:1053ED00E0FD8C828D83A3E9F090FC53E0FCA3E0FB
:1053FD00FD8C828D83A3A3E5152519FCE516351AC1
:10540D00FD8C028D038B02EAF090FC53E0FAA3E0D1
:10541D00FB8A828B83A3A3A3ECF090FC58E0FD9054
:10542D00FC56E0FC4D42D6D003E5186017E5132479
:10543D00F0FCE51434FFFDECB51509EDB516058549
:10544D0017B380028BB3E5B330E3FB74102515F56C
:10545D0015E43516F5160253BD125509BC000302AD
:10546D0056D0EF60FA30D502B2D1E583B4FF030216
:10547D0056E6E582B4FF030256E6258340072482F3
:10548D00400B0256D024831450030256E6F582EAEF
:10549D008DF0A4A8F0EA8EF0A428F8E435F0F9EB2D
:1054AD008DF0A428E935F0F9E433CA8FF0A429F979
:1054BD00EA35F0FAEBF88EF0A429F9EA35F0FAE4C2
:1054CD0033FBEC8DF0A429F9EA35F0FAE43BFBE867
:1054DD008FF0A42AFAEB35F0FBE433CCFD8EF0A46B
:1054ED002AFAEB35F0FBE43CFCED8FF0A42BFBEC42
:1054FD0035F0FC20E7031255370256AFAA82AB8375
:10550D00A2F73392D1F5826002D2F7ACF0E5812497
:10551D00F9F8E6FD08E6FE0886F008E6A2F73392F4
:0A552D00D5F5836002D2F7AFF0223B
:0614BA00E478FFF6D8FD06
:105537007804EC7011E58224F8500AF582E4C9CAB0
:10554700CBFCD8EF22EC7820058220E713D5820127
:1055570022C3E933F9EA33FAEB33FBEC33FCD8EA3D
:10556700158222AC82AD83AE14AF15BE0004EF6086
:105577000C1F0FE51312562AA3DEFADFF88C828D73
:105587008322AD82AE83AFF08D188E198F1A8513E3
:105597001B85141C85151DA816A9178803890418CF
:1055A700B8FF0119EB4C6025851B82851C83851D7F
:1055B700F01257C1FCA385821B85831C8D828E83C5
:1055C7008FF0EC12562AA3AD82AE8380CE85188267
:0755D700851983851AF022FB
:101498007917E94400601B7A01905A7E7877759332
:1014A800FCE493F2A308B800020593D9F4DAF275C4
:0214B80093FFA0
:1055DE00FCABF0AA83A982749EC2D1F58212553714
:1055EE000256AF7F9E12561830D1030256D0C3EF2B
:1055FE009582500974FFF5F0F583F5822279001239
:10560E0057DD89828A838BF0EC22AA82AB83A2F7C4
:10561E003392D1F5826002D2F7ACF02220F711302E
:10562E00F6138883A88220F509F6A88375830022D5
:10563E0080FEF280F5F022E5828513F0A4C582C0CB
:10564E00F08514F0A4D0F025F0C5838513F0A425C1
:10565E0083F58322E513451460467A01E51325E0B0
:10566E00F513E514334012F514E5829513E5839591
:10567E001440030A80E6C3E51413F514E51313F57D
:10568E0013C3E5829513F5F0E58395144005F58374
:10569E0085F082C3E51413F514E51313F513DAE15F
:0156AE0022D9
:1014C0007800E84400600A79007593F0E4F309D8E5
:1014D000FC7877E8440C600C790D90F000E4F0A300
:0414E000D8FCD9FA61
:02148900E4730A
:1056AF00B98003EA13B34010EA2401FAE43BFBE4A8
:1056BF003CFC50047C800582BC000EBB000BBA0082
:1056CF0008E4F5F0F583F58222A2D1E582138CF080
:1056DF0092F78B838A8222E4F583F58275F080F44A
:1056EF00A2D11322E4F583F58275F0C0747F2212E4
:1056FF00550930D502B2D1BF0009BC00030256F3E1
:10570F000256E6BC00030256D0E583B4FF0BE582D8
:10571F00B4FF030256F30256D0E582B4FF030256DC
:10572F00E6C395835007247F400B0256D024801484
:10573F0050030256E6F582C3ED9AEE9BEF9C4011A3
:10574F001582C3EA33F9EB33FAEC33FBE433FC8015
:10575F0005E4CCCBCAF9C08275F019C3E99DEA9E66
:10576F00EB9FEC9400D5F002802D400EE99DF9EAF5
:10577F009EFAEB9FFBEC9400FCC3B3E833F8E58291
:10578F0033F582E58333F583C3E933F9EA33FAEB73
:10579F0033FBEC33FC80C4B3E4F938FAE43582FB15
:1057AF00E43583FCD082500405827C801255370289
:0257BF0056C7CB
:0D148B00758155125820E582600302148619
:1057C10020F71430F6148883A88220F507E6A88311
:1057D10075830022E280F7E49322E0226040F825FD
:1057E10082500274FFF582E824F8501ECCCBCAF92E
:1057F100E4CC24F85014CBCAF9E4CB24F8500BCAFA
:10580100F9E4CA24F8500379002224086010F8C38F
:10581100EC13FCEB13FBEA13FAE913F9D8F1227547
:03582100820022E0
:00000001FF
