:0614000002148B024A6792
:01140B0032AE
:0114130032A6
:01141B00329E
:011423003296
:01142B00328E
:031433000242EC86
:01143B00327E
:011443003276
:03144B0002519FAC
:03145300021ABEBC
:03145B00021D98D7
:011463003256
:03146B0002436FCA
:011473003246
:01147B00323E
:03148300024D8B8C
:0314E70002148666
:03148600022E52E1
:1014EA00AF83E58290F554F0EFA3F0C2A0C2A4D274
:1014FA00A375E10490DF3BE0FFBF01F890F554E0EB
:10150A00FEA3E090DF06EEF0C2A090FC8CE024FF80
:10151A0092A4E06401FF24FF92A375E10290DF3BED
:10152A00E0FFBF0DF8227E007F0090FC28E0FCA3BC
:10153A00E0FD8E028F03C3EA9CEB9D503AEE240035
:10154A00FCEF34F0FD90FC26E0F513A3E0F5148AD5
:10155A00828B83C007C006C005C0041256D4AA8273
:10156A00AB83D004D005D006D0078C828D83EAF0F5
:10157A000EBE00B60F80B322E58290F556F0E0FF6A
:10158A00E59CC39FF59CE59C24FAF59C439E10D2EA
:10159A00BA22AF9E74EF5FF59E22AF83E58290F583
:1015AA005AF0EFA3F090FC21E06013905896124392
:1015BA00DE90FC21E0F5821244207582EF2290FC35
:1015CA00217406F090DF3BE0FFBF130280F6C29160
:1015DA0090F557E0FEA3E0FF90FC88EEF0EFA3F051
:1015EA0090FC8274F1F0E4A3F090FC187472F07429
:1015FA00F3A3F090FC80E4F0A3F090FC33F090FCAD
:10160A007CF090FC32F090FC7E04F0E4A3F090FCB5
:10161A007D7402F090F55CE4F090000012175D9082
:10162A00F55AE0FEA3E0FF90F559E0FD7B007C004F
:10163A008D017A00C3EB99EC9A50548B02EA75F04B
:10164A00F0A42EF9E43FFA90F55C74F0F089828AEE
:10165A0083C007C006C005C004C00312175DAA8272
:10166A00D003D004D005D006D007EA601B9058E812
:10167A00C0021243DED00290FC21E4F08A82C0024A
:10168A00124420D0028A82220BBB00A40C80A190B3
:10169A00FC8BE0FF30E33390FC88E0FEA3E0FFEE32
:1016AA00540F602690FC88E0FEA3E053060F7F00EB
:1016BA007410C39EFEE49FFF90FC88E0FCA3E0FD4B
:1016CA0090FC88EE2CF0EF3DA3F090FC88E0FEA39E
:1016DA00E0FFC374FF9EE49F502390FC88E0FEA3C2
:1016EA00E090DF02EEF090DF04E0FF74FC5FF0E0D0
:1016FA00FF74024FF090FC8A7401F0801290FC880B
:10170A00E0FEA3E0FF90DF02EEF090FC8AE4F090A6
:10171A00FC8CE024FF92A0C2A490FC8CE06401241B
:10172A00FF92A375E1037E607FEA90DF3BE0FDBD97
:10173A00130280091EBEFF011FEE4F70EDD291EE1B
:10174A004F700C90FC467413F09059001243DE75EA
:10175A00820022AF83E58290F55DF0EFA3F090F569
:10176A005CE0FF240F500A9059111243DE7582FF84
:10177A0022EF703E90FC32E4F090FC32E0FE90FCE6
:10178A007DE0FDC3EE9D502190FC32E075F0F1A49E
:10179A002472F58274F335F0F583E4F090FC32E0BC
:1017AA00FE0E90FC32EEF080D090FC32E4F07582AE
:1017BA00002290FC21E0FE601DBE061E90FC32E075
:1017CA00601890DF3BE0FEBE1302800E90FC21748D
:1017DA0007F07582ED227582ED2290FC32E075F0F9
:1017EA00F1A42472FD74F335F0FE8D828E83E060DD
:1017FA000A90FC467418F07582FE228D828E8374DC
:10180A00FFF090FC32E075F0F1A42472FD74F33518
:10181A00F0FE0DBD00010E7C0090F55DE0FAA3E03C
:10182A00FB8A138B148C158F037F008B168F178DF1
:10183A00828E838CF0C007C0031255FBD003D007F9
:10184A0090FC8BE0FE20E30302190590FC32E07560
:10185A00F0F1A42472FD74F335F0FE0DBD00010E03
:10186A0090FC5DEBF0EFA3F08D828E83125319AEDC
:10187A008290F55CEEF090FC8BE0FF530704BF0406
:10188A003F90FC32E075F0F1A42472FD74F335F058
:10189A00FF0DBD00010F8E037C0090FC8BE0FA5314
:1018AA0002F090FC61EDF0EFA3F090FC63EBF0EC3A
:1018BA00A3F090FC65EAF08D828F83125353803B2C
:1018CA0090FC32E075F0F1A42472FD74F335F0FF58
:1018DA000DBD00010F7C0090FC8BE0FB5303F090E0
:1018EA00FC68EDF0EFA3F090FC6AEEF0ECA3F09048
:1018FA00FC6CEBF08D828F8312539C90FC32E07566
:10190A00F0F1A42472FE74F335F0FF90F55CE0FD6B
:10191A008E828F83F090FC32E0FF0F90FC32EFF062
:10192A0090FC7DE0FEEFB5060590FC32E4F075828E
:10193A000022AF83E58290F55FF0EFA3F090FC21DF
:10194A00E0FF6014BF0102800F90592B1243DE9012
:10195A00FC21E0F58212442012159C90FC2AE4F046
:10196A00A3F090FC2AE0FEA3E0FF8E828F83121A76
:10197A003E90DF3BE0FFBF0DF890DF3AE0FF5307F0
:10198A007FBF6000402790FC2AE0FEA3E0FF0EBE66
:10199A0000010F90FC2AEEF0EFA3F0D29190000A1A
:1019AA00125012C29190000A12501280B590FC2176
:1019BA007402F090FC47E0FCA3E0FDA3E0A3E090F2
:1019CA00FC2CECF0EDA3F090F55FE0FEA3E0FF90B5
:1019DA00FC30EEF0EFA3F02290FC21E4F090FC47FB
:1019EA00E0FCA3E0FDA3E0A3E090FC2CECF0EDA367
:1019FA00F02290FC217404F090FC47E0FCA3E0FD87
:101A0A00A3E0A3E090FC2CECF0EDA3F02290FC21E3
:101A1A007405F090FC34E4F0A3F090FC47E0FCA3DA
:101A2A00E0FDA3E0A3E090FC2CECF0EDA3F07582BE
:101A3A0000021582AF83E58290F561F0EFA3F09082
:101A4A00F561E0FEA3E0FFEE2400F582EF34F0F545
:101A5A0083E0FF7E008F828E830214EAAF83E582E1
:101A6A0090F563F0EFA3F090F563E0FEA3E0FF903A
:101A7A00F370EEF0EFA3F0222290FC2AE0FEA3E03E
:101A8A00FF0EBE00010F90FC2AEEF0EFA3F0C3EEAA
:101A9A009470EF9403400790FC2AE4F0A3F090FCC2
:101AAA002AE0FEA3E0FFEE2400F582EF34F0F5838E
:101ABA00E0F58222C021C0E0C0F0C082C083C00726
:101ACA00C006C005C004C003C002C001C000C0D027
:101ADA0075D00090FC1DE02401F0A3E03400F090E2
:101AEA00FC22E0FEA3E0FF90FC1DE0FCA3E0FDEC7D
:101AFA00B5060BEDB5070790FC1DE4F0A3F090FCCA
:101B0A001DE0FEA3E0FFBE0005BF0002800BBE0180
:101B1A0005BF00028068021C8090FC1DE0FEA3E065
:101B2A008E077E00AC9C7D00EC4206ED420790FCDD
:101B3A002EEEF0EFA3F090FC2AE0FEA3E0FF0EBE2B
:101B4A0000010F90FC2AEEF0EFA3F090FC28E0FCD5
:101B5A00A3E0FDC3EE9CEF9D400790FC2AE4F0A3AE
:101B6A00F090DF3BE0FFBF1303021D7B90FC2AE0ED
:101B7A00FEA3E0FF8E828F83121A3E021D7B90FC29
:101B8A0021E0FFBF05028003021D7B90001912505D
:101B9A001290F567741CF090FC2AE0FEA3E090F521
:101BAA0068EEF090FC2AE0A3E090F569F090F56AFF
:101BBA007442F090F56B744CF090F56C7441F090AF
:101BCA00F56D7448F090F56E7442F090F56F744CB0
:101BDA00F090F5707441F090F5717448F090F572D8
:101BEA007442F090F573744CF090F5747441F0906F
:101BFA00F5757448F090F5767442F090F577744C68
:101C0A00F090F5787441F090F5797448F090F57A8F
:101C1A007442F090F57B744CF090F57C7441F0902E
:101C2A00F57D7448F090F57E7442F090F57F744C1F
:101C3A00F090F5807441F090F5817448F090F58247
:101C4A007420F090FC36741CF0E4A3F090FC38F099
:101C5A00A3F090FC3AF0A3F090F5681246BA90FC13
:101C6A0034E0FEA3E0FF0EBE00010F90FC34EEF05C
:101C7A00EFA3F0021D7B90FC21E0FFBF0302806509
:101C8A00BF04028008BF05028003021D7B90FC2C62
:101C9A00E0FEA3E0FF90FC47E0FAA3E0FBA3E0FC30
:101CAA00A3E0FD8E008F01E4FEFFEAC398FAEB99E8
:101CBA00FBEC9EFCED9FFDC374649AE49BE49CE4F8
:101CCA009D50229059591243DE90FC217405F090E0
:101CDA00FC47E0FCA3E0FDA3E0FEA3E0FF90FC2CA0
:101CEA00ECF0EDA3F090FC33E075F0F1A42472FE61
:101CFA0074F335F0FF8E828F83E0607590001912BD
:101D0A00501290FC33E075F0F1A42472FE74F3359E
:101D1A00F0FF90DF04E05401FDB40100E4332EFD2E
:101D2A00E43FFC8E828F83E090FC36F0E4A3F090CF
:101D3A00FC38F0A3F090FC3AF0A3F08D828C831269
:101D4A0046BA90FC33E075F0F1A42472F58274F37C
:101D5A0035F0F583E4F090FC33E0FF0F90FC33EFAD
:101D6A00F0BF0200400590FC33E4F090597712432B
:101D7A00DED0D0D000D001D002D003D004D005D01C
:101D8A0006D007D083D082D0F0D0E0D02132329072
:101D9A00FC21E4F090FC32F090FC33F090FC2AF045
:101DAA00A3F090FC267453F0E4A3F090FC2874533B
:101DBA00F0E4A3F090FC2EF0A3F090FC2CF0A3F03A
:101DCA0090FC227406F0E4A3F090FC24F0A3F090B7
:101DDA00FC30F0A3F090FC34F0A3F012153090FC24
:101DEA0021E4F0759DDC859E9E439E0443CB102220
:101DFA00021D9990224512339790FC47E4F0A3F014
:101E0A00A3F0A3F0121DFA90F583E4F090F5847420
:101E1A0012F074F8A3F02290FC21E0FFBF00030245
:101E2A00217ABF010302204BBF0203021F49BF03ED
:101E3A000302217ABF040302217ABF050302215B50
:101E4A00BF060122BF40028006BF4102804822C26B
:101E5A00A0C2A4D2A375E10490DF3BE0FFBF01F862
:101E6A0090DF0374E5F090DF047404F090DF0774E8
:101E7A0012F090DF08E4F090DF147410F090DF178E
:101E8A00E0FF74C04FF090FC217441F090F5847427
:101E9A0012F074F8A3F090F583E4F090FC34E0FEBD
:101EAA00A3E0FF90F583E0FDFB7C00C3EB9EEC9F73
:101EBA00505D90DF06EDF0C2A0C2A4D2A375E10482
:101ECA0090DF3BE0FFBF01F8C2A090FC8CE024FF4A
:101EDA0092A4E06401FF24FF92A375E10290DF3B24
:101EEA00E0FFBF0DF890000212501290F584E0FE58
:101EFA00A3E0FF90F583E02EFEE43FFF90DF3AE097
:101F0A00FD8E828F83F090F583E02401F0808CC2ED
:101F1A00A0C2A4D2A375E10490DF3BE0FFBF01F8A1
:101F2A0090FC34E0FEA3E08E3375340090F584E033
:101F3A00F535A3E0F536753201758243022E84E544
:101F4A000E700302203990FC45740DF0AF9A74FEAE
:101F5A005FF59AE50E20E40302203990FC21740310
:101F6A00F090FC1FE0FEA3E08E8212158290598544
:101F7A001243DE90FC1FE0FEA3E0FF8E828F8312E5
:101F8A00443B90F811E025E0FEE42412FFEE34F819
:101F9A00FE8F828E831243DE90F811E0FFB40100B7
:101FAA00E433FF90F583F0EF2416FDE434FCFE8D54
:101FBA00828E83E0707290DF04E0FE30E0378F0695
:101FCA00EE2EFDE42412F582ED34F8F583E0FE8E60
:101FDA00337534008F06EE2EFDE42412FEED34F83C
:101FEA00FD74012EF535E43DF536753201758242F0
:101FFA00122E84802290DF02E0FE8E33E4F534EF65
:10200A002FFEE42412FFEE34F8FE8F358E36753239
:10201A0001758242122E8490F583E0FF2416F58220
:10202A00E434FCF5837401F0AF0E74EF5FF50ED261
:10203A000010AF02C200750E00A20092AF439A01CF
:10204A0022E50E700302214990FC45740DF0AF9A07
:10205A0074FE5FF59AE50E20E40302214990F81117
:10206A00E0FF90F583B40100E433F090599A1243EB
:10207A00DE90F583E025E0FEE42412FFEE34F8FE5C
:10208A008F828E8312443B90F583E025E0FEE424A0
:10209A0012FFEE34F8FE8F828E831243DE90F8111F
:1020AA00E0FFB40100E433FF90F583F0EF2416FD5E
:1020BA00E434FCFE8D828E83E0707290DF04E0FED1
:1020CA0030E0378F06EE2EFDE42412F582ED34F867
:1020DA00F583E0FE8E337534008F06EE2EFDE42480
:1020EA0012FEED34F8FD74012EF535E43DF5367532
:1020FA003201758242122E84802290DF02E0FE8E27
:10210A0033E4F534EF2FFEE42412FFEE34F8FE8FA9
:10211A00358E36753201758242122E8490F583E02F
:10212A00FF2416F582E434FCF5837401F0D2001022
:10213A00AF02C200AF0E74EF5FF50EA20092AFD2EB
:10214A000010AF02C200750E00A20092AF439A01BE
:10215A002290FC34E0FEA3E0FF90FC28E0FCA3E020
:10216A00FDC3EE9CEF9D50012290FC217404F022E5
:10217A00E50E70012290FC45740DF0E50E543070A6
:10218A00012290F811E0FFB40100E433FF90F583D7
:10219A00F0EF2416FDE434FCFE8D828E83E06003AA
:1021AA0002223290DF04E0FE30E0378F06EE2EFD89
:1021BA00E42412F582ED34F8F583E0FE8E337534AB
:1021CA00008F06EE2EFDE42412FEED34F8FD7401B4
:1021DA002EF535E43DF536753201758242122E84AC
:1021EA00803590FC77E0E0600A90FC7AE0FDA3E09D
:1021FA00FE800890DF02E0FCFD7E00EF2FFCE42465
:10220A0012FFEC34F8FC8F358C367532018D338E23
:10221A0034758242122E8490F583E0FF2416F582EB
:10222A00E434FCF5837401F0D20010AF02C200AFAF
:10223A000E74CF5FF50EA20092AF2290F7C3E0FDB5
:10224A00A3E0FEA3E0FF90F7C8E0FCBC42028003D3
:10225A00022BE090F7C9E0FC24BE5003022BD2EC1B
:10226A00240A83F582EC244683F583E473D2D24BA5
:10227A0093D2FEB9D7EA235C80C361D2D227A6CD16
:10228A00406578E4588DD2D2D2D2D2D2D237C007A2
:10229A00FD20D2D2D2D2D2D2D2D2D2D2D2D2D2D29B
:1022AA00D2D2D2D2D2D2D2D2D2D2D2D2D2FB352B1F
:1022BA002B23252B2324242425252525262B2B29AE
:1022CA0029292A2A2A2A28292B2B2B2B2B2B2B2B61
:1022DA002B2B292A2B2B2B2B2B2B2B2B2B2B2B2B47
:1022EA002B2B2B2B2B2B2B2B2B2B2B2B2B2B2B223D
:1022FA0023C007C006C00512159CD005D006D0071A
:10230A0090FC217440F08D828E838FF0125833FC3A
:10231A007B0090FC34ECF0EBA3F090F7E9EDF0EEE3
:10232A00A3F0758201124130022BE090FC21E4F007
:10233A0090F7E9EDF0EEA3F0758201124130022B1D
:10234A00E090FC21E060099059B41243DE022BE0D0
:10235A008D828E838FF0125833FC7B0090F586ECC9
:10236A00F0EBA3F08D828E83A3E0FAE4F92CFCEA69
:10237A003BFB90F586ECF0EBA3F08D828E83A3A352
:10238A00A3A3E0FA8A0889098D828E83A3A3A3A353
:10239A00A3E0FAE42508F508EA3509F50990FC1ADC
:1023AA00E4F0A3F074062DF9E43EFA90FC36ECF062
:1023BA00EBA3F090FC38E4F0A3F090FC3AE508F0C7
:1023CA00E509A3F089828A83C007C006C0051246C0
:1023DA00BAAC82D005D006D0078D828E838FF0ECFE
:1023EA0012569C90F7E9EDF0EEA3F07582011241C6
:1023FA0030022BE08D828E838FF012583390FC7A54
:10240A00F0E4A3F08D828E83A3E0FB7C0090FC7A3B
:10241A00E0F9A3E0FA90FC7AEC29F0EB3AA3F09009
:10242A00FC7AE0A3E090FC7AE0F5F0A3E045F060E6
:10243A004B90FC777401F090FC78E0A3E090FC7874
:10244A00E0F5F0A3E045F070471245E790FC7AE02A
:10245A00FBA3E0FC90FC78EBF0ECA3F090FC78E0B6
:10246A00FBA3E090DF02EBF090DF04E0FC74FC5C7D
:10247A00F0E0FC74024CF0124587801490FC77E47B
:10248A00F090FC78F0A3F090FC7AF0A3F01245E704
:10249A0090F7C8E0FC90F7C9E0F53275357A7536E1
:1024AA00FC7533017534008C82122E84022BE08D68
:1024BA00828E838FF012583390FC8BF090F7E9EDFF
:1024CA00F0EEA3F0758201124130022BE090F7E999
:1024DA00748BF074FCA3F0758201124130022BE078
:1024EA0090FC8BE0FC5304F090FC597406F090FCCD
:1024FA005AECF08D828E838FF0C007C006C0051299
:10250A0052C1D005D006D00790F7E9EDF0EEA3F05E
:10251A00758210124130022BE090FC8BE0FC5304D0
:10252A00F090FC597404F090FC5AECF08D828E8382
:10253A008FF0C007C006C0051252C1D005D006D020
:10254A000790F7E9EDF0EEA3F07582101241300220
:10255A002BE08D828E838FF012583390FC8CF0E042
:10256A00FC74015CF090F7E9EDF0EEA3F0758201DE
:10257A00124130022BE090F7E9748CF074FCA3F05E
:10258A00758201124130022BE08D828E838FF01208
:10259A005833FC7B008C828B83C007C006C00512AF
:1025AA001A66D005D006D00790F7E9EDF0EEA3F051
:1025BA00758201124130022BE090FC21E0601C8DF3
:1025CA00828E838FF074EF12569C90F7E9EDF0EE4D
:1025DA00A3F0758201124130022BE08D828E838F27
:1025EA00F0125833FC7B0090F586ECF0EBA3F08DEB
:1025FA00828E83A3E0FAE42CFCEA3BFB90F586EC9E
:10260A00F0EBA3F08D828E83A3A3E0FA90FC1AE488
:10261A00F0A3F074032DF8E43EF990F557ECF0EBD3
:10262A00A3F090F559EAF088828983C007C006C0F2
:10263A00051215A4AC82D005D006D0078D828E83F0
:10264A008FF0EC12569C90F7E9EDF0EEA3F075824C
:10265A0001124130022BE08D828E838FF0125833A3
:10266A00FB7C0090F586EBF0ECA3F0EB4C600302E8
:10267A00276990FC88E0A3E090FC88E0F5F0A3E0ED
:10268A0045F0601C90DF3BE0FABA1314900028C0B2
:10269A0007C006C005125012D005D006D00780D256
:1026AA0090FC88E0A3E090FC88E0F5F0A3E045F018
:1026BA00606B9059D9C007C006C0051243DE90FC72
:1026CA0088E0F9A3E0FA89828A8312443B90F37284
:1026DA00E0F58212442090F463E0F582124420D09F
:1026EA0005D006D00790FC467412F08D828E838F37
:1026FA00F074EC12569CC291C007C006C005124580
:10270A0062D005D006D00790FC21E4F090F7E9EDFD
:10271A00F0EEA3F0758201124130022BE0C29190D3
:10272A00FC21E4F08D828E838FF012569C9059ED35
:10273A00C007C006C0051243DE90FC1AE0F9A3E008
:10274A00FA89828A8312443BD005D006D00790F7D3
:10275A00E9EDF0EEA3F0758201124130022BE09010
:10276A00FC21E0FABA060280619059FDC007C00652
:10277A00C0051243DED005D006D00790FC46E0FA29
:10278A00BA121B8D828E838FF074EC12569C90F7CE
:10279A00E9EDF0EEA3F0758201124130801F90FC42
:1027AA00467417F08D828E838FF074EF12569C90C8
:1027BA00F7E9EDF0EEA3F0758201124130C29112F1
:1027CA00456290FC21E4F0022BE074012DF9E43E0D
:1027DA00FA90F55CEBF089828A83C007C006C005CF
:1027EA0012175DAC82D005D006D0078D828E838FFA
:1027FA00F0EC12569C8D828E838FF0125833FBECCC
:10280A00603BBBFE028036905A06C007C006C00570
:10281A001243DED005D006D0078D828E838FF01248
:10282A005833F582C007C006C005124420C291126F
:10283A004562D005D006D00790FC21E4F090F7E974
:10284A00EDF0EEA3F0758201124130022BE08D8289
:10285A008E838FF0125833FB7C0090F586EBF0ECF8
:10286A00A3F0C374F09BE49C50199059111243DEF3
:10287A0090F7E97486F074F5A3F07582011241307D
:10288A00022BE090FC32E075F0F1A42472F974F3A3
:10289A0035F0FA89828A83E06019905A131243DE6E
:1028AA0090F7E97486F074F5A3F07582011241304D
:1028BA00022BE08B0089828A83E8F090FC32E07573
:1028CA00F0F1A42472F974F335F0FA09B900010A97
:1028DA00890A8A0B750C0074012DF9E43EFA8913F2
:1028EA008A147515008B168C17850A82850B8385C9
:1028FA000CF01255FB90FC32E0FC0C90FC32ECF030
:10290A00BC0200400590FC32E4F090F7E97486F0CE
:10291A0074F5A3F0758201124130022BE08D828E8C
:10292A00838FF0125833FC7B0090FC26ECF0EBA36B
:10293A00F090FC26E0F9A3E0FAC374709C74039B40
:10294A00402E74022DFBE43EFC8B138C147515008B
:10295A0089168A1790F00075F0001255FB90F7E976
:10296A007426F074FCA3F0758202124130022BE047
:10297A0090F7E97434F0745AA3F075820812413062
:10298A00022BE090FC26E0FBA3E090F7E97400F04C
:10299A0074F0A3F08B82124130022BE0121A837B6F
:1029AA00008B83121A3E90FC2AE0FBA3E0FC90F70E
:1029BA00E9EB2400F0EC34F0A3F075820112413007
:1029CA00022BE08D828E838FF0125833FC7B008CB1
:1029DA00828B83C007C006C0051214EAD005D00650
:1029EA00D00790F7E9EDF0EEA3F0758201124130BD
:1029FA00022BE0758200C007C006C005121582D0FE
:102A0A0005D006D00790F7E9EDF0EEA3F075820144
:102A1A00124130022BE0C007C006C00512159CD037
:102A2A0005D006D00790F7E9EDF0EEA3F075820124
:102A3A00124130022BE08D828E838FF0125833FCC4
:102A4A007B0090FC22ECF0EBA3F090F7E9EDF0EEBE
:102A5A00A3F0758201124130022BE090F7E974224B
:102A6A00F074FCA3F0758204124130022BE08D82CF
:102A7A008E838FF0C007C006C00512439DD005D0D3
:102A8A0006D0078D828E838FF0125833F582C007E5
:102A9A00C006C005124420D005D006D0078D828E0C
:102AAA00838FF0125833FC7B008C138B148B1575B3
:102ABA0016158B1790FC2175F000C007C006C005DB
:102ACA001255FBD005D006D00790F7E9EDF0EEA33A
:102ADA00F0758215124130022BE090FC1DE0FBA339
:102AEA00E0FC90FC24EBF0ECA3F090F7E97421F001
:102AFA0074FCA3F0758215124130022BE08D828E90
:102B0A00838FF0125833FC7B008C828B83C007C002
:102B1A0006C00512193CD005D006D00790F7E9ED9A
:102B2A00F0EEA3F0758201124130022BE090FC47CF
:102B3A00E0F9A3E0FAA3E0A3E090FC2CE9F0EAA311
:102B4A00F08D828E838FF0125833FC90FC21F09026
:102B5A00FC21E0FBEC24FA404DEB2B2B902B6A7303
:102B6A00022B7C022B7C022B7C022B9E022B9E02C8
:102B7A002B8DC007C006C00512159CD005D006D003
:102B8A00078023C007C006C005121A17D005D00651
:102B9A00D0078012758200C007C006C005121582D0
:102BAA00D005D006D00790F7E9EDF0EEA3F07582D4
:102BBA0001124130802090F7E97421F074FCA3F0EF
:102BCA00758201124130800E90F7E9EDF0EEA3F024
:102BDA00758201124130900000222290F7D1E0FF65
:102BEA00BF013990F7B1E0FEA3E0FF90F7D4E0FC13
:102BFA00A3E0FD90F7B4E0FAA3E0FBEA4B601D8E78
:102C0A00828F83E0F9A3AE82AF838C828D83E9F051
:102C1A00A3AC82AD831ABAFF011B80DF90F7BAE03A
:102C2A0054FDF090DE11E0FF74084FF022AE82AF3F
:102C3A0083E0FD20E703022D308E828F83A3E0FD1F
:102C4A00601DBD0102802ABD0202803BBD030280D5
:102C5A005ABD04028076BDFE03022CF2022D3075A5
:102C6A00370275380090FC4575F000123131022D9B
:102C7A003090DE00E0FD7C007539288C3A8D828C1C
:102C8A00831231A5022D308E828F83A3A3E0FCA389
:102C9A00E0FD74062EF582E43FF583E0F539A3E002
:102CAA00F53A8C828D831231A5807B8E048F057B49
:102CBA000074062EF582E43FF583E0F537A3E0F5CC
:102CCA00388C828D838BF0123131805A90F7B1E0C3
:102CDA00FBA3E0FCA3E0FD753910753A008B828CEA
:102CEA00838DF01231A5803E74022EFEE43FFF7DF3
:102CFA0000754B3C754C5A754D807513048D148EB6
:102D0A00828F838DF01250DEE5828583F045F06074
:102D1A0012D29190012C125012C29190012C125091
:102D2A0012800375C9839000002290DF2FE4F0908F
:102D3A00DF30F090DF31F090DF00740CF090DF01AB
:102D4A00744EF090DF0274FFF090DF037440F0904D
:102D5A00DF04E4F090DF05F090DF06F090DF0774FF
:102D6A0006F090DF08E4F090DF097424F090DF0A9F
:102D7A00743AF090DF0B74F1F090DF0C74CAF090A3
:102D8A00DF0D74A3F090DF0E7401F090DF0F74234F
:102D9A00F090DF107411F090DF117436F090DF12AA
:102DAA007407F090DF13740FF090DF147418F0902A
:102DBA00DF1514F090DF16746CF090DF177403F0CF
:102DCA0090DF187440F090DF197491F090DF1A7454
:102DDA0056F090DF1B7410F090DF1C74E9F090DF5E
:102DEA001D742AF090DF1EE4F090DF1F741FF0902C
:102DFA00DF237488F090DF247431F090DF257409A2
:102E0A00F090DF2E74C0F090DF07C4F090DF0974F1
:102E1A0025F090DF0A7495F090DF0B7455F090DF7F
:102E2A001A74B6F090DF1B7410F090DF1C74EAF08D
:102E3A0090DF1D742AF090DF1EE4F090DF1F741FEC
:102E4A00F02212516002518C122E4C1244851251FA
:102E5A00C61230FC124626121DFD12312BD2AF12B9
:102E6A002FCFD291900002125012C29190000A12F2
:0A2E7A005012124161121E2180F86F
:1058960043616E6E6F742063616C6C207472616E0E
:1058A600736D69745F6C6F6E67207768696C6520CD
:1058B6004648535320486F7070696E67206F722098
:1058C600616C72656164792070726F636573736968
:1058D6006E67207472616E736D69745F6C6F6E674C
:1058E60021004D41435F74782829207265747572D2
:1058F6006E6564206572726F72006E6576657220E1
:10590600656E746572656420545800464853537832
:105916006D6974206D65737361676520746F6F20A0
:105926006C6F6E670046485353207374617465202C
:10593600656E746572696E672053594E4348494EC9
:10594600472066726F6D2077726F6E672073746181
:1059560074650053594E43485F4D41535445522098
:105966002D3E2053594E43494E474D4153544552BF
:105976000046485353786D697420646F6E65006EF7
:105986006574776F726B207061636B6574287379C9
:105996006E6329006E6574776F726B207061636B3E
:1059A600657428646973636F76657279290063721A
:1059B60061702C20706C6561736520757365204677
:1059C600485353786D6974282920696E737465612C
:1059D60064210064726F706F75742066696E616C05
:1059E60020776169742100746F74616C2062797428
:1059F60065732074783A00756E64657272756E0010
:105A0600627566666572206572726F72007374697C
:105A16006C6C2077616974696E67206F6E2074689C
:105A260065206C617374207061636B6574004E4F02
:0B5A3600204445414C005253544E00E8
:102E8400AF827E0190DE0E7405F090FC457412F062
:102E9400E53345347003022FC57C107D2790DE1185
:102EA400E0FB30E00D90FC467401F01CBCFF011DFA
:102EB40080EBEC4D7014D2919003E8125012C29141
:102EC4009003E812501290FFFF22BE012C7E009066
:102ED400DE2A7440F0EFF0E532F0AC337D00ECF024
:102EE400E534F0C3743B9533E4953450067C3B7D64
:102EF40000801AAC33AD348014C374409533E49528
:102F04003450067C407D008004AC33AD347480259D
:102F14002942D6852682852783AA35AB368B01E9DB
:102F2400F0852682852783A3EAF085268285278378
:102F3400A3A374DEF0852682852783A3A3A3742A22
:102F4400F0852682852783A3A3A3A3A3ECFBF085A6
:102F54002682852783A3A3A3A3E054E0F0852682D9
:102F6400852783A3A3A3A3A3A3A3E0543F4440F0D2
:102F7400852682852783A3A3A3A3A3A3A3E054CF79
:102F8400F0E52942D6E52942D7E52955D160FAE58D
:102F940029F452D190DE0E7405F090DE11E0FB743A
:102FA400014BF0E533C39CF533E5349DF534EC2552
:102FB40035F535ED3536F53690FC457413F0022EB3
:102FC4009490FC457414F090000022E522700512E0
:102FD400416180F722AFBE747F5FF5BE43BE80902F
:102FE400DE0B74F7F090DE0774FFF090DE09F04317
:102FF4008C10AF8C74FE5FF58CD2BD439A02758938
:1030040000C2C5758B00C2E843A90243B9028526F4
:1030140082852783A3A3A3A3E054E0F085268285B9
:103024002783A3A3A3A3A3A3E0549F4420F085264E
:1030340082852783A3A3A3A3A3A3A3E04408F085C5
:103044002682852783A3A3A3A3A3A3A3E054FC44BC
:1030540001F090DE01E0FF74FE5FF0E4F525F52356
:10306400F524F52290DE0EF090DE107404F090DE6C
:1030740013F090F7BBE4F090F7BAF090F7AFF0A339
:10308400F090F7B17488F074F5A3F0E4A3F090F72E
:10309400B4F0A3F090F7B6F090F7B7F090F7B8F06B
:1030A400A3F090DE0E7405F090DE107408F090DE4C
:1030B40013F090DE12E0FF74014FF090DE15E0FF94
:1030C40074014FF090F7CDE4F090F7CCF090F7C195
:1030D400F0A3F090F7C374A8F074F5A3F0E4A3F0A0
:1030E40090F7C6F0A3F090F7C8F090F7C9F090F706
:1030F400CAF0A3F0439A02221244AF85822885289D
:10310400F005F07401800225E0D5F0FBF529E528EF
:1031140075F008A424F9F52674F735F0F52790FC2A
:10312400457402F0022FD9D29022C29022AFF0AEA1
:1031340083E58290F7D6F0EEA3F0EFA3F090F7BB0F
:10314400E06034D2919003E8125012C2919003E8E7
:10315400125012D2919003E8125012C2919003E8D7
:10316400125012D2919003E8125012C2919003E8C7
:1031740012501290FFFF2290F7D6E0FDA3E0FEA3C9
:10318400E0FF90F7ACEDF0EEA3F0EFA3F090F7AF13
:10319400E537F0E538A3F090F7BB7401F090000038
:1031A40022AF83E58290F7D9F0EFA3F090F7BBE06C
:1031B4006034D2919003E8125012C2919003E81245
:1031C4005012D2919003E8125012C2919003E81267
:1031D4005012D2919003E8125012C2919003E81257
:1031E400501290FFFF2290F7D9E0FEA3E0FF7D008C
:1031F40090F7ACEEF0EFA3F0EDA3F090F7AFE53964
:10320400F0E53AA3F090F7BB7401F0900000227F40
:10321400007E0290DE0EE4F090F7AFE0FCA3E0FD48
:10322400C3EC9420ED940040047B2080068C037F43
:10323400017E0A8B017A00ECC399FCED9AFD90F7AC
:10324400AFECF0EDA3F08B05ED603690F7ACE0FA4F
:10325400A3E0FBA3E0FC8A828B838CF012583390AA
:10326400DE20F090F7ACE0FAA3E0FBA3E0FC0ABA9E
:1032740000010B90F7ACEAF0EBA3F0ECA3F01D8097
:10328400C790DE11E0FD4EF0EF600590F7BBE4F06F
:103294002290F7BB7402F07582002290F7B1E0FD32
:1032A400A3E0FEA3E0FF90DE11E0FCB40100E433F0
:1032B400FC20E0F290DE0EE4F090DE16E0FC7B00F1
:1032C40090F7B4ECF0EBA3F090F7BAE0FC30E11324
:1032D40090F7BB7403F090DE11E0FC74044CF090A2
:1032E400FFFF2290F7BAE04402F090F7B4E0FBA3AA
:1032F400E0FCC374209BE49C501CD29190012CC030
:1033040007C006C005125012C29190012C1250122F
:10331400D005D006D00790F7B4E0FBA3E0FC8D07FE
:10332400EB4C601690DE20E0FD8F828E83F0A3AF1D
:1033340082AE831BBBFF011C80E6E52C452D600992
:10334400852C82852D8312148990F7B4E0FEA3E0C6
:10335400FFC3EE9420EF9400501DE52A452B60092D
:10336400852A82852B8312148990DE11E0FF74086C
:103374004FF090F7BBE4F090DE11E0FF74404FF0A3
:1033840090F7B4E0FEA3E08E82F5832285822E8539
:10339400832F228582308583312275370175380069
:1033A40090002575F040023131AFF0AE83E5829094
:1033B400F7DBF0EEA3F0EFA3F090F7DBE0FDA3E082
:1033C400FEA3E0FF74022DFDE43EFE8D828E838F0A
:1033D400F0125833FDA31258338D2575220122AF04
:1033E400827D7F7E5A8D828E83A3E090F7DEF0ACDF
:1033F4001390F7DEE0FBBBFF02803EEBB50723EC46
:10340400700890F7DE74FFF080E71C8D828E83E0F5
:103414002DFDE43EFE8D828E83A3E0FB90F7DEF06B
:1034240080CF8D828E83E02DFDE43EFE8D828E83DF
:10343400A3E0FB90F7DEF080B88D828E8322AFF09C
:10344400AE83E58290F7DFF0EEA3F0EFA3F090F700
:10345400DFE0F53DA3E0F53EA3E0F53F7402253D32
:10346400FAE4353EFBAC3F8A828B838CF0125833EE
:10347400F8A3125833F9893B753C007402B53B0636
:10348400E4B53C0280227407B53B06E4B53C0280F7
:1034940002804274AF58FE7F008A828B838CF0EEE8
:1034A40012569CA3EF12569C8A828B838CF012587E
:1034B40033FAA3125833F5828A131233E3AE82AF80
:1034C4008390F7E2EEF0EFA3F08E828F83A3A3E064
:1034D400FE7F00801C898288131233E3AC82AD83A3
:1034E40090F7E2ECF0EDA3F08C828D83E0FCFE7F9C
:1034F400007406253DFBE4353EFCAD3F8B828C8396
:103504008DF0125833FCA3125833FDC3EC9EED9F8B
:1035140050048C068D07EE4F700990DE11E0FD74A7
:10352400204DF090F7E2E0FCA3E0FD8E398F3A8C59
:10353400828D830231A590DE0EE4F090DE11E0FF6F
:1035440030E40E90F7BBE4F090DE11E0FE74804EA0
:10355400F0EF30E22490DE11E4F090FC467404F0C5
:1035640090F7BBE4F0D291900014C007125012C23D
:1035740091900014125012D00790F7BBE0FEBE03E6
:1035840019D291900032C007125012C291900032A9
:10359400125012D00790F7BBE4F090F7BBE0600341
:1035A40002387AEF20E00302387A90DE0EE4F090DD
:1035B400DE16E0FFFE7B407C007D40EE601690DE70
:1035C40020E0FA8B828C838DF012569CA3AB82ACE4
:1035D400831E80E7E540FE20E70302374D74605EFA
:1035E400FD6015BD2003023707BD4003023713BD3C
:1035F4006003023738023862741F5EFF7041AD41C8
:10360400BD0002801CBD06028005BD0826800C900A
:10361400004075F04012344202386212339E023880
:1036240062753702753800905A5D75F08012313139
:1036340002386290004075F04012439C023862BF29
:103644000145AD41BD00028005BD0A2680127537D3
:1036540002753800905A5D75F0801231310238627B
:10366400753701753800905A6075F0801231310257
:10367400386290DE11E0FD74204DF090004075F04A
:103684004012439C023862BF0236AD41BD00028045
:1036940008BD120302386280127537027538009033
:1036A4005A5D75F08012313102386290DE11E0FD0E
:1036B40074204DF090004075F04012439C02386233
:1036C400BF032BE4B54112753702753800905A5D7B
:1036D40075F08012313102386290DE11E0FD742001
:1036E4004DF090004075F04012439C023862900007
:1036F4004075F04012439C90DE11E0FD74204DF0C3
:1037040002386290DE11E0FD74204DF0023862E56B
:103714002E452F601312371E800BC02EC02F900031
:103724004075F0402202386290004075F040123833
:103734009102386290DE11E0FD74204DF09000405B
:1037440075F04012439C02386274605EFD6015BDE2
:103754002003023819BD400302382DBD600302382E
:1037640050023862741F5EFF7048AE41BE0103020E
:103774003862BE0303023862BE0502800BBE070333
:10378400023862BE0917800990DE00E542F0023873
:103794006290004075F0401233AD023862900040F0
:1037A40075F04012439C90DE11E0FE74204EF0024E
:1037B4003862BF0129AE41BE0103023862BE030371
:1037C400023862BE110302386290004075F0401264
:1037D400439C90DE11E0FE74204EF0023862BF027A
:1037E40020AF41BF01028076BF0302807190004088
:1037F40075F04012439C90DE11E0FF74204FF0807E
:103804005D90DE11E0FF74204FF090004075F040B1
:1038140012439C804990004075F04012439C90DE16
:1038240011E0FF74204FF08035E52E452F60121211
:103834003838800BC02EC02F90004075F040228095
:103844001D90004075F040123891801290DE11E016
:10385400FF74204FF090004075F04012439C90DEBE
:1038640011E0FF74404FF0E5464547700990DE11C2
:10387400E0FF74084FF090F7BBE0FFBF0103123282
:103884001390F7BBE0FFBF020302329F22AFF0AEFA
:1038940083E58290F7E4F0EEA3F0EFA3F090F7E471
:1038A400E0FDA3E0FEA3E0FF8D828E838FF012582B
:1038B40033FC20E7030239EB74012DFAE43EFB8F5D
:1038C400048A828B838CF0125833FC601EBC010284
:1038D400802BBC0202803CBC03028073BC04030244
:1038E4003988BCFE030239A5023A5175370275388E
:1038F4000090FC4575F000123131023A5190DE001F
:10390400E0FC7B007539288B3A8C828B831231A5BD
:10391400023A5174022DFAE43EFB8F048A828B83AF
:103924008CF0125833FAA3125833FB74062DF8E4C2
:103934003EF98F04888289838CF0125833F539A3B9
:10394400125833F53A8A828B831231A5023A518D8B
:10395400028E038F048A488B498C4A74062DF8E43E
:103964003EF98F04888289838CF0125833F537A38B
:10397400125833F538854882854983854AF01231D7
:1039840031023A5190F7B1E0FAA3E0FBA3E0FC75F1
:103994003910753A008A828B838CF01231A5023A71
:1039A4005174022DFAE43EFB8F0490FC4B7462F0D8
:1039B400745AA3F07480A3F07513047514008A82FA
:1039C4008B838CF01250DEE5828583F045F0601223
:1039D400D29190012C125012C29190012C125012CB
:1039E400806B75C983806690F7D1E0FCBC01567486
:1039F400022DFDE43EFE8D828E838FF0125833FD3E
:103A0400A3125833FE90DE0EE4F090DE16E0FF7C45
:103A1400007512088F828C83C007C006C005C004DD
:103A240012505ED004D005D006D007EF4C6016903B
:103A3400DE20E0FB8D828E83F0A3AD82AE831FBFB8
:103A4400FF011C80E690F7BAE054FDFFF0900000FF
:103A54002290F7CCE0FF30E10A90FC467405F09028
:103A6400FFFF2290DE0E7405F090DE16E0FF8F4B10
:103A7400754C0090DE17E0FCE4254BF54BEC354C1F
:103A8400F54C90F7CAE0FCA3E0FD4C705890F7C6E3
:103A9400E4F0A3F090DE2AE090F7C8F090DE2AE08C
:103AA40090F7C9F090DE2AE0FD7C0090F7CAEDF0B3
:103AB400ECA3F090DE2AE0FAE4FB2DFDEA3CFC9056
:103AC400F7CAEDF0ECA3F0E54B24FCF54BE54C34E0
:103AD400FFF54CC374049D74029C500990F7CA749A
:103AE40004F003A3F0E52955D16012D2919000149B
:103AF400125012C29190001412501280E890F7C331
:103B0400E0FBA3E0FCA3E090F7C6E0FAA3E0FFEA41
:103B14002BFBEF3CFC7480252942D6852682852721
:103B24008374DEF0852682852783A3742AF0852694
:103B340082852783A3A38C07EFF0852682852783BC
:103B4400A3A3A3EBF0852682852783A3A3A3A3A322
:103B5400A3A3E0543FF0852682852783A3A3A3A3D0
:103B6400A3A3A3E054CF4410F074052526FEE43546
:103B740027FF90DE16E0FD8E828F83EDF07404251E
:103B840026FEE43527FF90DE17E08E828F83541FD4
:103B9400F5F0E054E045F0F090F7C6E0FEA3E0FF56
:103BA400EE254BFCEF354CFDC374049C74029D5010
:103BB4000B7404C39EF54B74029FF54CC37440957B
:103BC4004BE4954C502890FC467406F090DE14E0CB
:103BD400FD74FE5DF075120490000512505E7512BE
:103BE40010854B82854C8312505E90FFFE22E5299E
:103BF40042D6E52942D7E54B2EFEE54C3FFF90F730
:103C0400C6EEF0EFA3F0E52955D160FAE529F452A8
:103C1400D190F7C6E0FEA3E0FF90F7CAE0FCA3E072
:103C2400FDC3EE9CEF9D402C90F7CCE04402F09055
:103C3400F7CAE4F0A3F090DE0E7405F0AE2374BF6F
:103C44005524FF8E238F2490DE14E0FF74FE5FF072
:103C54009000012290DE0E7405F0AE2374BF55244B
:103C6400FF8E238F2490DE14E0FF74FE5FF090003B
:103C7400002290F7CCE0FF20E1012290F7C3E0FDA1
:103C8400A3E0FEA3E0FF90F7E7EDF0EEA3F090F7DA
:103C9400C8E0F55474FFB55402800302410890F75C
:103CA400C9E0FBBB800050030240EAEB246F5003E1
:103CB4000240EAEB2480FA240A83F582EA2415837D
:103CC400F583E473EA7F155232698AA1DAC3EAEA1A
:103CD400EAEA4275D13C3D3F3F3E3F3F3F3F3F40D4
:103CE4004040404040408D828E838FF0125833FA1A
:103CF40074012DF54FE43EF5508A5275530090F748
:103D0400CAE552F0E553A3F0854F82855083E0F570
:103D1400517401254FF554E43550F555A9518902E4
:103D2400E4F92552F552EA3553F55390F7CAE552B2
:103D3400F0E553A3F0855482855583E0F8854F82DE
:103D4400855083A3A3884D894EE0FAE4254DF54DB3
:103D5400EA354EF54E854D35854E3690F7C8E0FA76
:103D640090F7C9E0F5328552338553348A82122E96
:103D74008490F7CAE4F0A3F00241008D828E838F11
:103D8400F0125833FA8D828E83A38A4D754E00E06B
:103D9400FA74022DF554E43EF5558A018902E425AE
:103DA4004DF54DEA354EF54EA84DAA4E90F7CEE8A6
:103DB400F0EAA3F090F7C6E0F9A3E0FAE924FEF5EF
:103DC4004DEA34FFF54E854D52854E53E552455329
:103DD400603D90F7CEE0F54FA3E0F5507401254F18
:103DE400F9E43550FA90F7CEE9F0EAA3F08554826D
:103DF400855583E0FAA3858254858355854F828552
:103E04005083EAF0155274FFB55202155380BD90E9
:103E1400F7C8E0FA90F7C9E0F5327535CA7536F798
:103E24007533027534008A82122E8402410090F7A1
:103E3400CCE0FA20E23C8D828E838FF0125833FA64
:103E44008D828E83A38A4D754E00E0FA90F7E77455
:103E5400022DF0E43EA3F08A018902E4F9254DF530
:103E64004DEA354EF54EA84DAA4E90F7CEE8F0EA4D
:103E7400A3F090F7CAE0F9A3E0FA894D8A4EC3741F
:103E840040954DE4954E5006754D40754E00E9C37E
:103E9400954DF9EA954EFA90F7CAE9F0EAA3F09045
:103EA400F7E7E0F552A3E0F553854D54854E55E50B
:103EB400544555603D90F7CEE0F54FA3E0F55074BE
:103EC40001254FF9E43550FA90F7CEE9F0EAA3F072
:103ED400855282855383E0FAA38582528583538574
:103EE4004F82855083EAF0155474FFB5540215557A
:103EF40080BD90F7C8E0FA90F7C9E0F5327535CA8D
:103F04007536F77533027534008A82122E840241A5
:103F140000D291900002C007C006C005125012C220
:103F240091900002125012D005D006D00790F7C825
:103F3400E0FA90F7C9E0F53290F7C6E0F533A3E074
:103F4400F5348D358E368A82122E84024100753501
:103F54006775365A8B3275330D7534008554821269
:103F64002E8402410090FC47E0F8A3E0F9A3E0A30B
:103F7400E0883589368B3275330475340085548274
:103F8400122E8402410075354A75365A8B327533C8
:103F940013753400855482122E8402410090F7C6B2
:103FA400E0F533A3E0F5348B328D358E36855482BB
:103FB400122E849000C81250121244BE02410075A1
:103FC400354175365A8B3275330975340085548200
:103FD400122E840241008D828E838FF0125833FC9E
:103FE40074012DF9E43EFABC0202800ABC0302808B
:103FF40021BC0429800DC002C001124587D001D024
:1040040002801AC291C002C0011245E7D001D00259
:10401400800BC002C0011245A8D001D00290F7C89D
:10402400E0FC90F7C9E0F53290F7C6E0F533A3E081
:10403400F53489358A368C82122E8402410090F739
:10404400CA7401F0E4A3F07535367536DF90F7C80D
:10405400E0FC90F7C9E0F53290F7CAE0F533A3E04D
:10406400F5348C82122E8490F7CAE4F0A3F0024156
:10407400008D028E048C017C0090FC4B7475F074EE
:104084005AA3F07480A3F07513098C148A8289836F
:104094008CF0C007C006C0051250DEE5828583F0AF
:1040A400D005D006D00745F0705275C98090F7C886
:1040B400E0FC90F7C9E0F53290F7C6E0F533A3E0F1
:1040C400F5348D358E368C82122E84802F90FC45EB
:1040D400E4F090FC46F090F7E9EDF0EEA3F0758281
:1040E40002124130801690F7C6E0F533A3E0F534B0
:1040F4008B328D358E36855482122E8490F7CCE027
:1041040054FDF022E53045316019853082853183D4
:10411400121489AE82AF83EE4F701090F7CCE05446
:10412400FDF02290F7CCE054FDFFF022E58290F7F9
:10413400EBF090F7CCE054FDF090F7C8E0FF90F777
:10414400C9E0F53290F7EBE0FE8E3375340090F75A
:10415400E9E0F535A3E0F5368F82022E84E52330BD
:10416400E01175220274FE5523FEAF248E238F24A2
:1041740043BE01E5235406602F90FC45740AF07594
:10418400220374FD5523FEAF248E238F2490DE0179
:10419400E0FF74044FF090000812501290DE01E02A
:1041A400FF74FB5FF075220190DE0EE4F090DE11E7
:1041B400E0FF30E21A90DE11E0FF74DB5FF090F76D
:1041C400AFE4F0A3F090F7B4F0A3F090F7BBF09055
:1041D400DE0E7405F090DE11E0FF30E52090DE1174
:1041E400E0FF74CF5FF090FC467408F090F7C1E4F0
:1041F400F0A3F090F7C6F0A3F090F7CDF090DE14A2
:10420400E0FF30E62090DE14E0FF749F5FF090FC46
:10421400467408F090F7C1E4F0A3F090F7C6F0A359
:10422400F090F7CDF0E52320E2057404B5221412D2
:104234002FD990FC45740BF074FB5523FEAF248EEC
:10424400238F24E52330E41112353A74E75523FE15
:10425400740F5524FF8E238F24E52430E65490FCFC
:1042640045740CF0123A55AE82AF83BEFE41BFFFD7
:104274003E90F7EC7406F0E4A3F090F7C8E0FF90EA
:10428400F7C9E0F5327535EC7536F77533027534D8
:10429400008F82122E8490F7C8E0FF7535EC7536D6
:1042A400F77532017533027534008F82122E841231
:1042B4003C76E52354E07006E52454BD602990FC67
:1042C400467409F075120890004412505E852382EA
:1042D40085248375121012505E74E05523FE74BD5C
:1042E4005524FF8E238F2422C0E0C082C083C007E0
:1042F400C006C005C004C0D075D000E5BE30E6FBE2
:1043040090DE06E0FF7E00E5234207E52442068FA7
:10431400238E2490DE02E0FDE4CDC4CD6DCD54F0B7
:10432400CD6DFCED4207EC42068F238E2490DE0413
:10433400E025E0FCE4FD4207EC42068F23EEF52481
:1043440030E11290F7CCE054FEF0AE2374FD552416
:10435400FF8E238F24758B00C2E8D0D0D004D00503
:10436400D006D007D083D082D0E032C0E0C007C0EE
:10437400D075D000E5BE30E6FBC2AFE58930E70377
:10438400752203AFBE74FC5FF5BE758900C2C5D249
:09439400AFD0D0D007D0E03222F6
:105A4100534443437633353000594152445354490A
:105A5100434B4F4E45207230343635000000000074
:105A6100005253544E00554E494D504C454D454EF4
:105A71005445440052455345545F4E4F570012015F
:105A8100100100000020501D5B60000101020301B4
:105A91000A06100100000020010009022000010196
:105AA1000080FA09040000020000010007058502D8
:105AB1004000010705050240000104030904280311
:105AC100470072006500610074002000530063000C
:105AD1006F007400740020004700610064006700DB
:105AE1006500740073001E03590041005200440018
:105AF100200053007400690063006B0020004F0018
:105B01006E0065000A03300030003900330000FFE9
:10439D00AF83E58290F7EEF0EFA3F090F7EEE0FE3D
:1043AD00A3E0FF7C007D008E028F038A828B83E069
:1043BD00F9A3AA82AB83E960070CBC00EE0D80EB7C
:1043CD007532F08C338D348E358F367582FE022E1C
:1043DD0084AF83E58290F7F0F0EFA3F090F7F0E073
:1043ED00FEA3E0FF7C007D008E028F038A828B830B
:1043FD00E493F9A3AA82AB83E960070CBC00ED0D31
:10440D0080EA8E358F367532F08C338D347582FEA1
:10441D00022E84E58290F7F2F07535F27536F77558
:10442D0032F17533017534007582FE022E84AF832F
:10443D00E58290F7F3F0EFA3F07535F37536F77568
:10444D0032F27533027534007582FE022E84AF820E
:10445D00AE83ADF0FC90F7F5EFF0EEA3F0EDA3F029
:10446D00ECA3F07535F57536F77532F375330475C4
:08447D0034007582FE022E845A
:0314E400750D0083
:104485007EF97FF78FD57EF97FF78ED47E017FF891
:104495008FD37E017FF87F008ED28F137514188F0E
:1044A5001590F7F975F0000255DC7403B50D047528
:1044B50082FF22850D82050D2290DF46E0FFBFF0C9
:1044C5000E90DF47E0FFBF0D0690DF487469F0C22C
:1044D500AF759A0075B80075A80012312EAFBE747D
:1044E5007F5FF5BE75D69FC291020000221256501D
:1044F500AC82AD83AEF0FFC004C005C006C0079016
:1045050037BD75F086743D1254D8AC82AD83AEF0DC
:10451500FFE58124FCF581E4C0E0C0E074C0C0E0A3
:104525007441C0E08C828D838EF0EF125770AC829F
:10453500AD83AEF0FFE58124FCF5818C828D838E01
:10454500F0EF125663AC82AD83AEF090DF09EEF06A
:104555008D0390DF0AEBF090DF0BECF02275E104A0
:1045650090DF3BE0FFBF01F890FC1CE0F5E190FC1B
:104575001CE0FFBF04012290DF3BE0FFBF0102808A
:10458500ED2290FC1CE0FFBF02012290DF13E0FF4B
:1045950074F05FF0E0FF740F4FF090FC1C7402F0B4
:1045A5000249FC90FC1CE0FFBF03012290DF13E0F1
:1045B500FF74F05FF0E0FF740A4FF090FC1C740389
:1045C500F090FC8CE024FF92A0C2A490FC8CE064E7
:1045D50001FF24FF92A375E10390DF3BE0FFBF13CA
:1045E500F82290FC1CE0FFBF04012290DF13E0FFDE
:1045F50074F05FF0AF9174EF5FF591C2A0C2A4D2E1
:10460500A375E10490DF3BE0FFBF01F8AF9B74FCAD
:104615005FF59BAFE974EF5FF5E990FC1C7404F05E
:104625002290FC1FE4F0A3F090FC12F0A3F090FCA4
:1046350014F0A3F053C6C7759D00859E9E439E0446
:1046450085A9A943B90190FC1C7404F07513007584
:104655001400F51590F81275F0001255DC122D3482
:10466500D2A87591D175E900750E00439A01C2A0D3
:10467500C2A4D2A375E10490DF3BE0FFBF01F8229D
:104685007E007F00C3EE94DCEF9405502490DF3C60
:10469500E0FD5450600490000122900032C007C034
:1046A50006125040D006D00774322EFEE43FFF803C
:1046B500D390000022AF83E58290FC3CF0EFA3F09D
:1046C50090FC3EE4F090DF02E0FF90DF3BE0FEBEB1
:1046D500130BB291C007124161D00780EDC29190D2
:1046E500FC8AE4F090FC38E0FDA3E0FE90FC80ED50
:1046F500F0EEA3F090FC3AE0FBA3E0FC90FC86EB27
:10470500F0ECA3F090FC36E0F9A3E0FA90FC82E926
:10471500F0EAA3F090FC84E9C39BF0EA9CA3F09037
:10472500FC84E0FBA3E0FC8D138E148B828C83C08C
:1047350007C006C005C002C0011256B7AB82AC83E4
:10474500D001D002D005D006D00790FC88EB29F027
:10475500EC3AA3F0E94A705D90FC3CE0FBA3E0FC79
:104765008B828C83E0F8880F75100090FC36E50F7E
:10477500F0E510A3F090DF04E0F8530003B8000261
:104785008018B80102800302484C90FC367401255C
:104795000FF0E43510A3F002484C90FC3C74012B5B
:1047A500F0E43CA3F090FC36E0FBA3E0FC90DF02D4
:1047B500EBF002484C90DF04E0FC530403BC00021C
:1047C5008046BC0102800302484C90FC3CE0FBA300
:1047D500E0FC90FC3FE9F0EAA3F090FC417401F0A5
:1047E500E4A3F08B828C83C007C002C001124FBDC9
:1047F500D001D002D00790FC3CE0FBA3E0FC89008F
:104805008B828C83E8F0803FED4E603690FC88E02B
:10481500FDA3E090DF02EDF090DF04E0FE74FC5EA6
:10482500F090FC88E0FDA3E0FEC374FF9DE49E507C
:104835000990DF04E0FE74024EF090FC8A7401F0EA
:10484500800590DF02E9F0D2A890FC8BE0FE20E322
:104855000302497A90DF04E0FE530603BE01069089
:10486500FC3E7401F090FC3EE0FE90FC3CE0FCA3B5
:10487500E0FDEE2CFAE43DFB90FC36E0F8A3E0F910
:1048850090FC5DE8F0E9A3F08A828B83C007C0063F
:10489500C005C004125319AA82AB83D004D005D039
:1048A50006D00790FC8BE0F9530104B90448C00712
:1048B500EE2CF8E43DF990FC8BE0FF5307F090FCFB
:1048C50061E8F0E9A3F090FC63EAF0EBA3F090FC5B
:1048D50065EFF088828983C007C006C005C004C0A3
:1048E50003C002125353D002D003D004D005D00622
:1048F500D007D0078046C007EE2CF8E43DF990FCC0
:104905008BE0FF5307F090FC68E8F0E9A3F090FC1A
:104915006AEAF0EBA3F090FC6CEFF088828983C023
:1049250007C006C005C004C003C00212539CD002D4
:10493500D003D004D005D006D007D007EE601E9076
:10494500FC8BE0FE5306F0BE50098C828D837410FB
:10495500F080228A068C828D83EEF0801890FC8B85
:10496500E0FE5306F0BE500890DF027410F080059B
:1049750090DF02EAF090FC3CE0FDA3E0FE90FC181D
:10498500EDF0EEA3F090FC7EE4F0A3F090FC8CE05B
:1049950024FF92A0C2A490FC8CE0640124FF92A3A2
:1049A50075E1037D607EEA90DF3BE0FCBC1302808D
:1049B5001C1DBDFF011EED4E6013B291C007C00660
:1049C500C005124161D005D006D00780DAD291ED3D
:1049D5004E700690FC467413F090DF3BE0FEBE136C
:1049E5000BB291C007124161D00780EDC29190DFF3
:1049F50002EFF075820122D2A875130075140075B7
:104A0500150290F81275F0001255DC90FC12E4F0D6
:104A1500A3F090FC14F0A3F090FC16F090FC1704A2
:104A2500F090F811E4F0AF9B74FC5FF59BAFE9746F
:104A3500EF5FF5E9C2A090FC8CE024FF92A4E0644E
:104A450001FF24FF92A375E10290DF3BE0FFBF0D5C
:104A5500F84391102290FC8D7401F02290FC8DE4B6
:104A6500F022C021C0E0C0F0C082C083C007C006EC
:104A7500C005C004C003C002C001C000C0D075D0CD
:104A85000090FC457411F0C28990DF3BE0FFBF0D3B
:104A9500028003024BB1D29190FC77E0E0602A904E
:104AA500FC78E0FEA3E0FF90FC78E024FFFCA3E0A7
:104AB50034FFFD90FC78ECF0EDA3F074FF2F400976
:104AC50090DF04E0FF74FC5FF090FC1C7402F09032
:104AD500F811E025E0FEE42412FFEE34F8FEE0755F
:104AE500F002A42412FC74FC35F0FD8C828D83E069
:104AF500FAA3E0FB74012AF8E43BF98C828D83E884
:104B0500F0E9A3F0EA2FF582EB3EF583E5D9F090C5
:104B1500F811E075F002A42412F58274FC35F0F565
:104B250083E0FEA3E0FFC39402501A90F811E075EC
:104B3500F002A42412F58274FC35F0F583E0FEA39F
:104B4500E0FF4E701A90F811E0FF75F002A42412F0
:104B5500F58274FC35F0F58374FFF07401A3F090D1
:104B6500FC78E0A3E090FC78E0F5F0A3E045F06088
:104B750003024D6E90FC77E0E07003024D6E90FCF1
:104B85007AE0FEA3E0FF90FC78EEF0EFA3F090FC56
:104B950078E0FEA3E090DF02EEF090DF04E0FF7422
:104BA500FC5FF0E0FF74024FF0024D6E90DF3BE0DA
:104BB500FFBF13028003024D6E90FC8AE0E0700394
:104BC500024CFF90FC2EE0FEA3E0FF0EBE00010F9D
:104BD50090FC2EEEF0EFA3F090FC7EE0FEA3E0FF4C
:104BE50090FC82E0FCA3E0FDEEB50406EFB50502FE
:104BF5008003024CD290FC80E0A3E090FC80E0F5BD
:104C0500F0A3E045F0603790FC80E0FEA3E0FFBE36
:104C1500FF05BF0002801490FC80E024FFFEA3E0A6
:104C250034FFFF90FC80EEF0EFA3F090FC86E0FEF1
:104C3500A3E0FF90FC7EEEF0EFA3F0024CD290FCD7
:104C450082E0F513A3E0F51490FC7CE0FF7E008F75
:104C5500828E831256B7AE82AF8390FC18E0FCA318
:104C6500E0FDEE2CF582EF3DF583E4F090FC7CE071
:104C75002401F0E0FF90FC7DE0FEEFB5060590FC19
:104C85007CE4F090FC82E0F513A3E0F51490FC7C45
:104C9500E0FF7E008F828E831256B7AE82AF83907F
:104CA500FC18E0FCA3E0FDEE2CFEEF3DFF8E828FAD
:104CB50083E0701090FC21E4F090FC467412F01231
:104CC5004562C29190FC7E7401F0E4A3F090FC88EB
:104CD500E0FEA3E0FF90FC88E024FFFCA3E034FFA6
:104CE500FD90FC88ECF0EDA3F0BEFF22BF001F9005
:104CF500DF04E0FF74FC5FF0801490FC88E024FF83
:104D0500FEA3E034FFFF90FC88EEF0EFA3F090FCEB
:104D15001C7403F090FC82E0F513A3E0F51490FCFD
:104D25007CE0FF7E008F828E831256B7AE82AF8302
:104D350090FC7EE0FCA3E0FD90FC7EE02401F0A366
:104D4500E03400F0EC2EFEED3FFF90FC18E0FCA3F4
:104D5500E0FDEE2CF582EF3DF583E0F5D990FC1AE8
:104D6500E02401F0A3E03400F0D0D0D000D001D091
:104D750002D003D004D005D006D007D083D082D08E
:104D8500F0D0E0D02132C021C0E0C0F0C082C083A5
:104D9500C007C006C005C004C003C002C001C000F2
:104DA500C0D075D00075110090FC457410F0AE9B15
:104DB50074FC5EF59BE5E9420EE5E930E02090FCE8
:104DC5001DE0FDA3E08D067D00AB9C7C0090FC1FE3
:104DD500ED4BF0EE4CA3F0AEE974FE5EF5E9E5E9C6
:104DE50054707003024F6E90FC1CE0FEBE030AAEC9
:104DF5000E748F5EF50E024F6790F811E0FEB40158
:104E050000E4332416F582E434FCF583E0FEBE01AC
:104E1500028003024F4490FC8BE0FE20E103024F29
:104E25001D90DF04E0FE530603BE010375110190DA
:104E3500FC8BE0FE530601BE017090F811E025E001
:104E4500FDE42412FEED34F8FDAB117C00EB2EFEE3
:104E5500EC3DFDE0F929FAE42412F9EA34F8FAEB1D
:104E650029FBEC3AFCE075F002A42412F58274FCEF
:104E750035F0F583E0F9A3E0FAA8117F00E9C398BE
:104E8500F9EA9FFA90FC8BE0FF5307F090FC61EB89
:104E9500F0ECA3F090FC63E9F0EAA3F090FC65EF79
:104EA500F08E828D83125353806E90F811E025E0C9
:104EB500FEE42412FFEE34F8FEAC117D00EC2FFF6A
:104EC500ED3EFEE025E0FAE42412FBEA34F8FAECC4
:104ED5002BFCED3AFDE075F002A42412F58274FC7A
:104EE50035F0F583E0FAA3E0FBA8117900EAC39851
:104EF500FAEB99FB90FC8BE0F95301F090FC68EC20
:104F0500F0EDA3F090FC6AEAF0EBA3F090FC6CE9FD
:104F1500F08F828E8312539C90F811E0FF74016F1D
:104F2500F0E0FF75F002A42412F58274FC35F0F56B
:104F350083E4F0A3F090FC16F090FC17F08021902C
:104F4500FC467412F0B29190F811E0FF75F002A4DE
:104F55002412F58274FC35F0F583E4F0A3F0B291E8
:104F6500C291AFE974CF5FF5E9E5E930E61490FC4D
:104F7500467410F0B291124562B291AFE974BF5F09
:104F8500F5E9E5E930E71490FC467411F0B29112A9
:104F95004562B291AFE9747F5FF5E9D0D0D000D01A
:104FA50001D002D003D004D005D006D007D083D0DD
:104FB50082D0F0D0E0D02132AF83E58290FC43F07F
:104FC500EFA3F090FC41E0FEA3E0FF90FC43E0FC82
:104FD500A3E0FD90FC3FE0FAA3E0FB8A008B011AF9
:104FE500BAFF011BE8496024EE2AF8EF3BF9E82CEB
:104FF500F8E93DF9EA2CF582EB3DF583C006C007DB
:0D500500E088828983F0D007D00680CF229A
:105B11000000000000000100000000000000000083
:075B2100000000000000007D
:10501200AE82AF831EBEFF011FC3E49E74808FF079
:1050220063F08095F050167C4C7D04EC24FFFAED81
:1050320034FFFB8A048B05EA4B70F080D722AE82E4
:10504200E583CE25E0CE33FF1EBEFF011FC3E49EE3
:1050520074808FF063F08095F040ED22AE82AF83D2
:10506200D2919003E8C007C006125012C29190017B
:10507200F4125012D006D0071512AD12ED20E754EB
:10508200EE30E024900019C007C006C0051250128D
:10509200D291900226125012C2919000191250120F
:1050A200D005D006D0078022900113C007C006C0E9
:1050B20005125012D291900032125012C2919001F8
:1050C20013125012D005D006D007EFC313CE13CE61
:1050D200FF1D80A8C2919003E8025012AFF0AE8388
:1050E200E58290FC4EF0EEA3F0EFA3F090FC4EE0D0
:1050F200FDA3E0FEA3E0FF90FC4BE0FAA3E0FBA3DC
:10510200E0FCA813A914E8496050C000C0018D82D8
:105112008E838FF0125833F98A828B838CF0125867
:1051220033F8E9C398F98915D001D0006010E5156C
:10513200F5163395E0F517851682851783220DBD86
:1051420000010E90FC4EEDF0EEA3F0EFA3F00ABAD0
:1051520000010B18B8FF011980AC90000022AFBE0D
:1051620074FB5FF5BEE5BE30E6FBAFC674B85FF513
:10517200C6E5C620E6FB43BE04E5BE30E6FB53C6E9
:10518200C743E40C43E401D2B92243FE0F43FF19A3
:10519200C292C293C2A0C2A4D2A3C29122C0E0C052
:1051A20082C083C0D090FC47E02401F0A3E0340029
:1051B200F0A3E03400F0A3E03400F0D0D0D083D0EC
:1051C20082D0E0321244AFAF8290FC55EFF08FF004
:1051D20005F07401800225E0D5F0FB90FC56F0EF5B
:1051E20075F008A424F9FE74F735F0FF90FC51EE37
:1051F200F0EFA3F08E828F83A3A374DFF08E828FF1
:1052020083A3A3A374B1F08E828F83A3A3A3A3A3CA
:105212007410F074062EF582E43FF583E054E04406
:105222001DF074072EF582E43FF583E0543F4440BD
:10523200F074072EF582E43FF583E054FC4401F05C
:105242001244AFAF8290FC57EFF08FF005F074017B
:10525200800225E0D5F0FB90FC58F0EF75F008A431
:1052620024F9FE74F735F0FF90FC53EEF0EFA3F053
:105272008E828F8374DFF08E828F83A374B2F08E5E
:10528200828F83A3A3A3A3A37410F074062EF582C6
:10529200E43FF583E054E0441EF074072EF582E407
:1052A2003FF583E054CF4410F074072EF582E43FBB
:1052B200F583E054FC4401F043A91043B91022AF36
:1052C20083E58290FC5BF0EFA3F0E5B330E3FB9063
:1052D200FC51E0FEA3E0FF90FC5BE0FCA3E0FD8C50
:1052E200028D038B028E828F83EAF090FC51E0FEE6
:1052F200A3E0FF8E828F83A37D00ECF090FC56E04A
:1053020042D690FC59E0FF90FC5AE0FE4F4401F572
:10531200B3E5B330E3FB22AF83E58290FC5FF0EFAD
:10532200A3F090FC5FE0FEA3E0FF90FC5DE0FCA335
:10533200E0FDEC540F60158C028D030CBC00010DD6
:10534200EA2EF582EB3FF583E4F080E68C828D83D2
:1053520022AF83E58290FC66F0EFA3F090FC66E05A
:10536200FEA3E0FF90FC61E0FCA3E0FD90FC63E0A3
:10537200FAA3E0FB90FC65E0F990FC6FECF0EDA382
:10538200F090FC71EAF0EBA3F090FC73E4F090FC77
:1053920074E9F08E828F830253E6AF83E58290FC3C
:1053A2006DF0EFA3F090FC6DE0FEA3E0FF90FC68CF
:1053B200E0FCA3E0FD90FC6AE0FAA3E0FB90FC6C49
:1053C200E0F990FC6FECF0EDA3F090FC71EAF0EBE9
:1053D200A3F090FC737402F090FC74E9F08E828F5B
:1053E200830253E6AF83E58290FC75F0EFA3F0E50C
:1053F200B330E3FB90FC75E0FEA3E0FF90FC6FE0AE
:10540200F519A3E0F51A90FC74E0FB74505BF518F3
:1054120090FC73E0F94B4401FB740149F51790FCD1
:1054220071E0F513A3E0F514E4F515F516C3E515DF
:105432009513E5169514400122C00390FC51E0F843
:10544200A3E0FBE5152EF9E5163FFA89048A058DDE
:105452000488828B83ECF090FC51E0FCA3E0FD8C8D
:10546200828D83A3E9F090FC53E0FCA3E0FD8C82E3
:105472008D83A3A3E5152519FCE516351AFD8C02CB
:105482008D038B02EAF090FC53E0FAA3E0FB8A82E0
:105492008B83A3A3A3ECF090FC58E0FD90FC56E0B4
:1054A200FC4D42D6D003E5186017E51324F0FCE565
:1054B2001434FFFDECB51509EDB516058517B3805B
:1054C200028BB3E5B330E3FB74102515F515E43513
:1054D20016F51602542F12557BBC0003025742EFF9
:1054E20060FA30D502B2D1E583B4FF03025758E522
:1054F20082B4FF03025758258340072482400B02DF
:1055020057422483145003025758F582EA8DF0A4BF
:10551200A8F0EA8EF0A428F8E435F0F9EB8DF0A4B7
:1055220028E935F0F9E433CA8FF0A429F9EA35F015
:10553200FAEBF88EF0A429F9EA35F0FAE433FBEC41
:105542008DF0A429F9EA35F0FAE43BFBE88FF0A4E8
:105552002AFAEB35F0FBE433CCFD8EF0A42AFAEB09
:1055620035F0FBE43CFCED8FF0A42BFBEC35F0FCBA
:1055720020E7031255A9025721AA82AB83A2F7336F
:1055820092D1F5826002D2F7ACF0E58124F9F8E617
:10559200FD08E6FE0886F008E6A2F73392D5F58309
:0755A2006002D2F7AFF02216
:0614BA00E478FFF6D8FD06
:1055A9007804EC7011E58224F8500AF582E4C9CA3E
:1055B900CBFCD8EF22EC7820058220E713D58201B5
:1055C90022C3E933F9EA33FAEB33FBEC33FCD8EACB
:1055D900158222AC82AD83AE14AF15BE0004EF6014
:1055E9000C1F0FE51312569CA3DEFADFF88C828D8F
:1055F9008322AD82AE83AFF08D188E198F1A851371
:105609001B85141C85151DA816A91788038904185C
:10561900B8FF0119EB4C6025851B82851C83851D0C
:10562900F0125833FCA385821B85831C8D828E83DF
:105639008FF0EC12569CA3AD82AE8380CE85188282
:07564900851983851AF02288
:101498007917E94400601B7A01905B11787775939E
:1014A800FCE493F2A308B800020593D9F4DAF275C4
:0214B80093FFA0
:10565000FCABF0AA83A982749EC2D1F5821255A92F
:105660000257217F9E12568A30D103025742C3EF60
:105670009582500974FFF5F0F583F58222790012C6
:10568000584F89828A838BF0EC22AA82AB83A2F7DF
:105690003392D1F5826002D2F7ACF02220F71130BC
:1056A000F6138883A88220F509F6A8837583002263
:1056B00080FEF280F5F022E5828513F0A4C582C059
:1056C000F08514F0A4D0F025F0C5838513F0A4254F
:1056D00083F58322E513451460467A01E51325E03E
:1056E000F513E514334012F514E5829513E583951F
:1056F0001440030A80E6C3E51413F514E51313F50B
:1057000013C3E5829513F5F0E58395144005F58301
:1057100085F082C3E51413F514E51313F513DAE1EC
:015720002266
:1014C0007800E84400600A79007593F0E4F309D8E5
:1014D000FC7877E8440C600C790D90F000E4F0A300
:0414E000D8FCD9FA61
:02148900E4730A
:10572100B98003EA13B34010EA2401FAE43BFBE435
:105731003CFC50047C800582BC000EBB000BBA000F
:1057410008E4F5F0F583F58222A2D1E582138CF00D
:1057510092F78B838A8222E4F583F58275F080F4D7
:10576100A2D11322E4F583F58275F0C0747F221271
:10577100557B30D502B2D1BF0009BC000302576589
:10578100025758BC0003025742E583B4FF0BE58280
:10579100B4FF03025765025742E582B4FF03025783
:1057A10058C395835007247F400B0257422480142D
:1057B1005003025758F582C3ED9AEE9BEF9C4011BE
:1057C1001582C3EA33F9EB33FAEC33FBE433FC80A3
:1057D10005E4CCCBCAF9C08275F019C3E99DEA9EF4
:1057E100EB9FEC9400D5F002802D400EE99DF9EA83
:1057F1009EFAEB9FFBEC9400FCC3B3E833F8E5821F
:1058010033F582E58333F583C3E933F9EA33FAEB00
:1058110033FBEC33FC80C4B3E4F938FAE43582FBA2
:10582100E43583FCD082500405827C801255A902A4
:025831005739E5
:0D148B00758155125892E5826003021486A7
:1058330020F71430F6148883A88220F507E6A8839E
:1058430075830022E280F7E49322E0226040F8258A
:1058530082500274FFF582E824F8501ECCCBCAF9BB
:10586300E4CC24F85014CBCAF9E4CB24F8500BCA87
:10587300F9E4CA24F8500379002224086010F8C31D
:10588300EC13FCEB13FBEA13FAE913F9D8F12275D5
:035893008200226E
:00000001FF
