:0600000002008B02360233
:01000B0032C2
:0100130032BA
:01001B0032B2
:0100230032AA
:01002B0032A2
:03003300022ECFCB
:01003B003292
:01004300328A
:03004B00023D2D46
:030053000206930F
:03005B0002096D2A
:01006300326A
:03006B00022F520F
:01007300325A
:01007B003252
:0300830002392619
:0300E7000200868E
:03008600021A0358
:1000EA00AF83E58290F554F0EFA3F075E10490DF59
:1000FA003BE0FFBF01F890F554E0FEA3E0FF90DF7C
:10010A0006EEF075E10290DF3BE0FFBF0DF8227EBC
:10011A00007F0090FC28E0FCA3E0FD8E028F03C361
:10012A00EA9CEB9D503AEE2400FCEF34F0FD90FC83
:10013A0026E0F513A3E0F5148A828B83C007C00674
:10014A00C005C004124262AA82AB83D004D005D093
:10015A0006D0078C828D83EAF00EBE00B60F80B3FC
:10016A0022E58290F556F0E0FFE59CC39FF59CE5F9
:10017A009C24FAF59C439E10D2BA22AF9E74EF5F7C
:10018A00F59E22AF83E58290F55AF0EFA3F090FC3A
:10019A0021E06013904424122FC190FC21E0F582E3
:1001AA001230037582EF2290FC217406F090DF3B37
:1001BA00E0FFBF130280F6C29190F557E0FEA3E07C
:1001CA00FF90FC88EEF0EFA3F090FC8274F1F0E46B
:1001DA00A3F090FC187472F074F3A3F090FC80E41E
:1001EA00F0A3F090FC33F090FC7CF090FC32F0909D
:1001FA00FC7E04F0E4A3F090FC7D7402F090F55CC0
:10020A00E4F090000012033290F55AE0FEA3E0FFFA
:10021A0090F559E0FD7B007C008D017A00C3EB99D3
:10022A00EC9A50548B02EA75F0F0A42EF9E43FFAE6
:10023A0090F55C74F0F089828A83C007C006C00515
:10024A00C004C003120332AA82D003D004D005D05E
:10025A0006D007EA601B904476C002122FC1D00272
:10026A0090FC21E4F08A82C002123003D0028A8212
:10027A00220BBB00A40C80A190FC8BE0FF30E3337F
:10028A0090FC88E0FEA3E0FFEE540F602690FC8805
:10029A00E0FEA3E053060F7F007410C39EFEE49FA6
:1002AA00FF90FC88E0FCA3E0FD90FC88EE2CF0EFC8
:1002BA003DA3F090FC88E0FEA3E0FFC374FF9EE438
:1002CA009F502390FC88E0FEA3E090DF02EEF090BE
:1002DA00DF04E0FF74FC5FF0E0FF74024FF090FC73
:1002EA008A7401F0801290FC88E0FEA3E0FF90DFA0
:1002FA0002EEF090FC8AE4F075E1037E607FEA90FA
:10030A00DF3BE0FDBD130280091EBEFF011FEE4F59
:10031A0070EDD291EE4F700C90FC467413F090443D
:10032A008E122FC175820022AF83E58290F55DF0AF
:10033A00EFA3F090F55CE0FF240F500A90449F125F
:10034A002FC17582FF22EF703E90FC32E4F090FCE0
:10035A0032E0FE90FC7DE0FDC3EE9D502190FC3220
:10036A00E075F0F1A42472F58274F335F0F583E4B4
:10037A00F090FC32E0FE0E90FC32EEF080D090FC61
:10038A0032E4F07582002290FC21E0FE601DBE0678
:10039A001E90FC32E0601890DF3BE0FEBE13028044
:1003AA000E90FC217407F07582ED227582ED229081
:1003BA00FC32E075F0F1A42472FD74F335F0FE8D81
:1003CA00828E83E0600A90FC467418F07582FE22E1
:1003DA008D828E8374FFF090FC32E075F0F1A424D4
:1003EA0072FD74F335F0FE0DBD00010E7C0090F530
:1003FA005DE0FAA3E0FB8A138B148C158F037F0050
:10040A008B168F178D828E838CF0C007C003124122
:10041A0089D003D00790FC8BE0FE20E3030204DAC4
:10042A0090FC32E075F0F1A42472FD74F335F0FE0D
:10043A000DBD00010E90FC5DEBF0EFA3F08D828EF6
:10044A0083123EA7AE8290F55CEEF090FC8BE0FF43
:10045A00530704BF043F90FC32E075F0F1A4247204
:10046A00FD74F335F0FF0DBD00010F8E037C009083
:10047A00FC8BE0FA5302F090FC61EDF0EFA3F090F0
:10048A00FC63EBF0ECA3F090FC65EAF08D828F83BD
:10049A00123EE1803B90FC32E075F0F1A42472FD3B
:1004AA0074F335F0FF0DBD00010F7C0090FC8BE06A
:1004BA00FB5303F090FC68EDF0EFA3F090FC6AEEBA
:1004CA00F0ECA3F090FC6CEBF08D828F83123F2A44
:1004DA0090FC32E075F0F1A42472FE74F335F0FF5B
:1004EA0090F55CE0FD8E828F83F090FC32E0FF0F86
:1004FA0090FC32EFF090FC7DE0FEEFB5060590FC33
:10050A0032E4F075820022AF83E58290F55FF0EF66
:10051A00A3F090FC21E0FF6014BF0102800F904419
:10052A00B9122FC190FC21E0F58212300312018525
:10053A0090FC2AE4F0A3F090FC2AE0FEA3E0FF8EF0
:10054A00828F8312061390DF3BE0FFBF0DF890DF26
:10055A003AE0FF53077FBF6000402790FC2AE0FE85
:10056A00A3E0FF0EBE00010F90FC2AEEF0EFA3F00D
:10057A00D29190000A123BADC29190000A123BAD93
:10058A0080B590FC217402F090FC47E0FCA3E0FDEA
:10059A00A3E0A3E090FC2CECF0EDA3F090F55FE073
:1005AA00FEA3E0FF90FC30EEF0EFA3F02290FC21D6
:1005BA00E4F090FC47E0FCA3E0FDA3E0A3E090FC9C
:1005CA002CECF0EDA3F02290FC217404F090FC478F
:1005DA00E0FCA3E0FDA3E0A3E090FC2CECF0EDA38B
:1005EA00F02290FC217405F090FC34E4F0A3F09022
:1005FA00FC47E0FCA3E0FDA3E0A3E090FC2CECF0B8
:10060A00EDA3F075820002016BAF83E58290F5617C
:10061A00F0EFA3F090F561E0FEA3E0FFEE2400F511
:10062A0082EF34F0F583E0FF7E008F828E83020032
:10063A00EAAF83E58290F563F0EFA3F090F563E00B
:10064A00FEA3E0FF90F370EEF0EFA3F0222290FCFD
:10065A002AE0FEA3E0FF0EBE00010F90FC2AEEF096
:10066A00EFA3F0C3EE9470EF9403400790FC2AE4E2
:10067A00F0A3F090FC2AE0FEA3E0FFEE2400F5824E
:10068A00EF34F0F583E0F58222C021C0E0C0F0C06B
:10069A0082C083C007C006C005C004C003C002C030
:1006AA0001C000C0D075D00090FC1DE02401F0A369
:1006BA00E03400F090FC22E0FEA3E0FF90FC1DE095
:1006CA00FCA3E0FDECB5060BEDB5070790FC1DE4B5
:1006DA00F0A3F090FC1DE0FEA3E0FFBE0005BF0002
:1006EA0002800BBE0105BF0002806802085590FC1B
:1006FA001DE0FEA3E08E077E00AC9C7D00EC420666
:10070A00ED420790FC2EEEF0EFA3F090FC2AE0FEFB
:10071A00A3E0FF0EBE00010F90FC2AEEF0EFA3F05B
:10072A0090FC28E0FCA3E0FDC3EE9CEF9D400790FF
:10073A00FC2AE4F0A3F090DF3BE0FFBF13030209B9
:10074A005090FC2AE0FEA3E0FF8E828F83120613EC
:10075A0002095090FC21E0FFBF0502800302095004
:10076A00900019123BAD90F567741CF090FC2AE0DA
:10077A00FEA3E090F568EEF090FC2AE0A3E090F585
:10078A0069F090F56A7442F090F56B744CF090F54C
:10079A006C7441F090F56D7448F090F56E7442F007
:1007AA0090F56F744CF090F5707441F090F5717497
:1007BA0048F090F5727442F090F573744CF090F52D
:1007CA00747441F090F5757448F090F5767442F0BF
:1007DA0090F577744CF090F5787441F090F579744F
:1007EA0048F090F57A7442F090F57B744CF090F5ED
:1007FA007C7441F090F57D7448F090F57E7442F077
:10080A0090F57F744CF090F5807441F090F5817406
:10081A0048F090F5827420F090FC36741CF0E4A342
:10082A00F090FC38F0A3F090FC3AF0A3F090F56851
:10083A0012327B90FC34E0FEA3E0FF0EBE00010FF3
:10084A0090FC34EEF0EFA3F002095090FC21E0FF97
:10085A00BF03028065BF04028008BF05028003024D
:10086A00095090FC2CE0FEA3E0FF90FC47E0FAA3BD
:10087A00E0FBA3E0FCA3E0FD8E008F01E4FEFFEAAB
:10088A00C398FAEB99FBEC9EFCED9FFDC374649A46
:10089A00E49BE49CE49D50229044E7122FC190FC13
:1008AA00217405F090FC47E0FCA3E0FDA3E0FEA361
:1008BA00E0FF90FC2CECF0EDA3F090FC33E075F037
:1008CA00F1A42472FE74F335F0FF8E828F83E06008
:1008DA0075900019123BAD90FC33E075F0F1A42439
:1008EA0072FE74F335F0FF90DF04E05401FDB401A9
:1008FA0000E4332EFDE43FFC8E828F83E090FC36C9
:10090A00F0E4A3F090FC38F0A3F090FC3AF0A3F0E6
:10091A008D828C8312327B90FC33E075F0F1A42433
:10092A0072F58274F335F0F583E4F090FC33E0FF5E
:10093A000F90FC33EFF0BF0200400590FC33E4F067
:10094A00904505122FC1D0D0D000D001D002D003DB
:10095A00D004D005D006D007D083D082D0F0D0E022
:10096A00D021323290FC21E4F090FC32F090FC333A
:10097A00F090FC2AF0A3F090FC267453F0E4A3F064
:10098A0090FC287453F0E4A3F090FC2EF0A3F090AE
:10099A00FC2CF0A3F090FC227406F0E4A3F090FC87
:1009AA0024F0A3F090FC30F0A3F090FC34F0A3F014
:1009BA0012011990FC21E4F0759DDC859E9E439EF0
:1009CA000443CB102202096E900DF6121F4890FCC8
:1009DA0047E4F0A3F0A3F0A3F01209CF90F583E463
:1009EA00F090F5847412F074F8A3F02290FC21E0E0
:1009FA00FFBF0003020D2BBF0103020BFCBF020362
:100A0A00020AFABF0303020D2BBF0403020D2BBF18
:100A1A000503020D0CBF060122BF40028006BF413A
:100A2A000280422275E10490DF3BE0FFBF01F890AB
:100A3A00DF0374E5F090DF047404F090DF077412AA
:100A4A00F090DF08E4F090DF147410F090DF17E004
:100A5A00FF74C04FF090FC217441F090F584741239
:100A6A00F074F8A3F090F583E4F090FC34E0FEA370
:100A7A00E0FF90F583E0FDFB7C00C3EB9EEC9F500A
:100A8A004590DF06EDF075E10490DF3BE0FFBF0122
:100A9A00F875E10290DF3BE0FFBF0DF8900002120B
:100AAA003BAD90F584E0FEA3E0FF90F583E02EFED7
:100ABA00E43FFF90DF3AE0FD8E828F83F090F5836A
:100ACA00E02401F080A475E10490DF3BE0FFBF0160
:100ADA00F890FC34E0FEA3E08E3375340090F58480
:100AEA00E0F535A3E0F536753201758243021A3511
:100AFA00E50E7003020BEA90FC45740DF0AF9A7490
:100B0A00FE5FF59AE50E20E403020BEA90FC2174DD
:100B1A0003F090FC1FE0FEA3E08E8212016B904569
:100B2A0013122FC190FC1FE0FEA3E0FF8E828F8379
:100B3A0012301E90F811E025E0FEE42412FFEE3494
:100B4A00F8FE8F828E83122FC190F811E0FFB40154
:100B5A0000E433FF90F583F0EF2416FDE434FCFE45
:100B6A008D828E83E0707290DF04E0FE30E0378F72
:100B7A0006EE2EFDE42412F582ED34F8F583E0FE4C
:100B8A008E337534008F06EE2EFDE42412FEED340A
:100B9A00F8FD74012EF535E43DF53675320175829E
:100BAA0042121A35802290DF02E0FE8E33E4F534D9
:100BBA00EF2FFEE42412FFEE34F8FE8F358E3675E1
:100BCA003201758242121A3590F583E0FF2416F538
:100BDA0082E434FCF5837401F0AF0E74EF5FF50E16
:100BEA00D20010AF02C200750E00A20092AF439A63
:100BFA000122E50E7003020CFA90FC45740DF0AF69
:100C0A009A74FE5FF59AE50E20E403020CFA90F856
:100C1A0011E0FF90F583B40100E433F09045281207
:100C2A002FC190F583E025E0FEE42412FFEE34F8AC
:100C3A00FE8F828E8312301E90F583E025E0FEE45B
:100C4A002412FFEE34F8FE8F828E83122FC190F8A1
:100C5A0011E0FFB40100E433FF90F583F0EF2416AE
:100C6A00FDE434FCFE8D828E83E0707290DF04E036
:100C7A00FE30E0378F06EE2EFDE42412F582ED34C5
:100C8A00F8F583E0FE8E337534008F06EE2EFDE410
:100C9A002412FEED34F8FD74012EF535E43DF536E7
:100CAA00753201758242121A35802290DF02E0FE07
:100CBA008E33E4F534EF2FFEE42412FFEE34F8FE0F
:100CCA008F358E36753201758242121A3590F58348
:100CDA00E0FF2416F582E434FCF5837401F0D200B7
:100CEA0010AF02C200AF0E74EF5FF50EA20092AF12
:100CFA00D20010AF02C200750E00A20092AF439A52
:100D0A00012290FC34E0FEA3E0FF90FC28E0FCA363
:100D1A00E0FDC3EE9CEF9D50012290FC217404F08B
:100D2A0022E50E70012290FC45740DF0E50E543058
:100D3A0070012290F811E0FFB40100E433FF90F54E
:100D4A0083F0EF2416FDE434FCFE8D828E83E0608E
:100D5A0003020DE390DF04E0FE30E0378F06EE2E4B
:100D6A00FDE42412F582ED34F8F583E0FE8E337546
:100D7A0034008F06EE2EFDE42412FEED34F8FD74E5
:100D8A00012EF535E43DF536753201758242121AA7
:100D9A0035803590FC77E0E0600A90FC7AE0FDA3AC
:100DAA00E0FE800890DF02E0FCFD7E00EF2FFCE40D
:100DBA002412FFEC34F8FC8F358C367532018D33F2
:100DCA008E34758242121A3590F583E0FF2416F5A7
:100DDA0082E434FCF5837401F0D20010AF02C20041
:100DEA00AF0E74CF5FF50EA20092AF2290F7C3E068
:100DFA00FDA3E0FEA3E0FF90F7C8E0FCBC4202803E
:100E0A000302179190F7C9E0FC24BE50030217832E
:100E1A00EC240A83F582EC244683F583E473838306
:100E2A00FC4483AF6A889BD40D3174128383D857EC
:100E3A007EF1162995093E83838383838383E87130
:100E4A00B8AED183838383838383838383838383BA
:100E5A008383838383838383838383838383ACE6CC
:100E6A0017170E11170F1010101011111112171752
:100E7A001415151516161614151717171717171709
:100E8A0016171615151717171717171717171717EE
:100E9A0017171717171717171717171717171717D8
:100EAA000E0EC007C006C005120185D005D006D0B7
:100EBA000790FC217440F08D828E838FF01243C11B
:100ECA00FC7B0090FC34ECF0EBA3F090F7E9EDF03A
:100EDA00EEA3F0758201122D1302179190FC21E402
:100EEA00F090F7E9EDF0EEA3F0758201122D1302EE
:100EFA00179190FC21E06009904542122FC1021718
:100F0A00918D828E838FF01243C1FC7B0090F5860F
:100F1A00ECF0EBA3F08D828E83A3E0FAE4F92CFCCB
:100F2A00EA3BFB90F586ECF0EBA3F08D828E83A36F
:100F3A00A3A3A3E0FA8A0889098D828E83A3A3A3B7
:100F4A00A3A3E0FAE42508F508EA3509F50990FCB7
:100F5A001AE4F0A3F074062DF9E43EFA90FC36EC9C
:100F6A00F0EBA3F090FC38E4F0A3F090FC3AE5082B
:100F7A00F0E509A3F089828A83C007C006C005127A
:100F8A00327BAC82D005D006D0078D828E838FF05B
:100F9A00EC12422A90F7E9EDF0EEA3F07582011205
:100FAA002D130217918D828E838FF01243C190FC0C
:100FBA007AF0E4A3F08D828E83A3E0FB7C0090FCA0
:100FCA007AE0F9A3E0FA90FC7AEC29F0EB3AA3F084
:100FDA0090FC7AE0A3E090FC7AE0F5F0A3E045F01B
:100FEA00604B90FC777401F090FC78E0A3E090FCF1
:100FFA0078E0F5F0A3E045F070471231B490FC7A3E
:10100A00E0FBA3E0FC90FC78EBF0ECA3F090FC781A
:10101A00E0FBA3E090DF02EBF090DF04E0FC74FC5D
:10102A005CF0E0FC74024CF012316A801490FC7798
:10103A00E4F090FC78F0A3F090FC7AF0A3F012317F
:10104A00B490F7C8E0FC90F7C9E0F53275357A75C7
:10105A0036FC7533017534008C82121A35021791E9
:10106A008D828E838FF01243C190FC8BF090F7E94A
:10107A00EDF0EEA3F0758201122D1302179190F78D
:10108A00E9748BF074FCA3F0758201122D13021718
:10109A009190FC8BE0FC5304F090FC597406F0909C
:1010AA00FC5AECF08D828E838FF0C007C006C00513
:1010BA00123E4FD005D006D00790F7E9EDF0EEA327
:1010CA00F0758210122D1302179190FC8BE0FC53DD
:1010DA0004F090FC597404F090FC5AECF08D828E66
:1010EA00838FF0C007C006C005123E4FD005D00658
:1010FA00D00790F7E9EDF0EEA3F0758210122D13E8
:10110A000217918D828E838FF01243C190FC8CF06E
:10111A00E0FC74015CF090F7E9EDF0EEA3F0758263
:10112A0001122D1302179190F7E9748CF074FCA345
:10113A00F0758201122D130217918D828E838FF022
:10114A001243C1FC7B008C828B83C007C006C0059A
:10115A0012063BD005D006D00790F7E9EDF0EEA3D2
:10116A00F0758201122D1302179190FC21E0601C88
:10117A008D828E838FF074EF12422A90F7E9EDF098
:10118A00EEA3F0758201122D130217918D828E83C0
:10119A008FF01243C1FC7B0090F586ECF0EBA3F0D4
:1011AA008D828E83A3E0FAE42CFCEA3BFB90F58661
:1011BA00ECF0EBA3F08D828E83A3A3E0FA90FC1AE5
:1011CA00E4F0A3F074032DF8E43EF990F557ECF03F
:1011DA00EBA3F090F559EAF088828983C007C0062C
:1011EA00C00512018DAC82D005D006D0078D828E43
:1011FA00838FF0EC12422A90F7E9EDF0EEA3F07536
:10120A008201122D130217918D828E838FF0124361
:10121A00C1FB7C0090F586EBF0ECA3F0EB4C60038D
:10122A0002131A90FC88E0A3E090FC88E0F5F0A392
:10123A00E045F0601C90DF3BE0FABA1314900028F6
:10124A00C007C006C005123BADD005D006D0078046
:10125A00D290FC88E0A3E090FC88E0F5F0A3E0459A
:10126A00F0606B904567C007C006C005122FC19099
:10127A00FC88E0F9A3E0FA89828A8312301E90F38F
:10128A0072E0F58212300390F463E0F582123003C3
:10129A00D005D006D00790FC467412F08D828E835A
:1012AA008FF074EC12422AC291C007C006C0051220
:1012BA003145D005D006D00790FC21E4F090F7E93B
:1012CA00EDF0EEA3F0758201122D13021791C2916F
:1012DA0090FC21E4F08D828E838FF012422A904591
:1012EA007BC007C006C005122FC190FC1AE0F9A303
:1012FA00E0FA89828A8312301ED005D006D0079080
:10130A00F7E9EDF0EEA3F0758201122D13021791A1
:10131A0090FC21E0FABA0602806190458BC007C0B2
:10132A0006C005122FC1D005D006D00790FC46E0B2
:10133A00FABA121B8D828E838FF074EC12422A90B5
:10134A00F7E9EDF0EEA3F0758201122D13801F90DC
:10135A00FC467417F08D828E838FF074EF12422A46
:10136A0090F7E9EDF0EEA3F0758201122D13C29108
:10137A0012314590FC21E4F002179174012DF9E431
:10138A003EFA90F55CEBF089828A83C007C006C0FA
:10139A0005120332AC82D005D006D0078D828E8327
:1013AA008FF0EC12422A8D828E838FF01243C1FB9A
:1013BA00EC603BBBFE028036904594C007C006C075
:1013CA0005122FC1D005D006D0078D828E838FF0EB
:1013DA001243C1F582C007C006C005123003C2918C
:1013EA00123145D005D006D00790FC21E4F090F7E1
:1013FA00E9EDF0EEA3F0758201122D130217918D1B
:10140A00828E838FF01243C1FB7C0090F586EBF04D
:10141A00ECA3F0C374F09BE49C501990449F122FE4
:10142A00C190F7E97486F074F5A3F0758201122D64
:10143A001302179190FC32E075F0F1A42472F9744A
:10144A00F335F0FA89828A83E060199045A1122F58
:10145A00C190F7E97486F074F5A3F0758201122D34
:10146A00130217918B0089828A83E8F090FC32E09C
:10147A0075F0F1A42472F974F335F0FA09B9000190
:10148A000A890A8A0B750C0074012DF9E43EFA895F
:10149A00138A147515008B168C17850A82850B839F
:1014AA00850CF012418990FC32E0FC0C90FC32EC85
:1014BA00F0BC0200400590FC32E4F090F7E9748633
:1014CA00F074F5A3F0758201122D130217918D8223
:1014DA008E838FF01243C1FC7B0090FC26ECF0EB6C
:1014EA00A3F090FC26E0F9A3E0FAC374709C74039D
:1014FA009B402E74022DFBE43EFC8B138C14751555
:10150A000089168A1790F00075F00012418990F749
:10151A00E97426F074FCA3F0758202122D130217E7
:10152A009190F7E974C2F07445A3F0758208122D00
:10153A001302179190FC26E0FBA3E090F7E97400F0
:10154A00F074F0A3F08B82122D1302179112065831
:10155A007B008B8312061390FC2AE0FBA3E0FC902D
:10156A00F7E9EB2400F0EC34F0A3F0758201122DB8
:10157A00130217918D828E838FF01243C1FC7B0078
:10158A008C828B83C007C006C0051200EAD005D042
:10159A0006D00790F7E9EDF0EEA3F0758201122D5F
:1015AA0013021791758200C007C006C00512016BAD
:1015BA00D005D006D00790F7E9EDF0EEA3F07582DA
:1015CA0001122D13021791C007C006C0051201852A
:1015DA00D005D006D00790F7E9EDF0EEA3F07582BA
:1015EA0001122D130217918D828E838FF01243C13F
:1015FA00FC7B0090FC22ECF0EBA3F090F7E9EDF015
:10160A00EEA3F0758201122D1302179190F7E97477
:10161A0022F074FCA3F0758204122D130217918D27
:10162A00828E838FF0C007C006C005122F80D005B6
:10163A00D006D0078D828E838FF01243C1F582C007
:10164A0007C006C005123003D005D006D0078D8228
:10165A008E838FF01243C1FC7B008C138B148B1585
:10166A007516158B1790FC2175F000C007C006C0CF
:10167A0005124189D005D006D00790F7E9EDF0EEC2
:10168A00A3F0758215122D1302179190FC1DE0FB31
:10169A00A3E0FC90FC24EBF0ECA3F090F7E97421B2
:1016AA00F074FCA3F0758215122D130217918D8226
:1016BA008E838FF01243C1FC7B008C828B83C00720
:1016CA00C006C005120511D005D006D00790F7E96B
:1016DA00EDF0EEA3F0758201122D1302179190FC22
:1016EA0047E0F9A3E0FAA3E0A3E090FC2CE9F0EAD2
:1016FA00A3F08D828E838FF01243C1FC90FC21F0FF
:10170A0090FC21E0FBEC24FA404DEB2B2B90171BAD
:10171A007302172D02172D02172D02174F02174FAA
:10172A0002173EC007C006C005120185D005D006C3
:10173A00D0078023C007C006C0051205ECD005D02B
:10174A0006D0078012758200C007C006C0051201C4
:10175A006BD005D006D00790F7E9EDF0EEA3F0754F
:10176A008201122D13802090F7E97421F074FCA3F2
:10177A00F0758201122D13800E90F7E9EDF0EEA3B9
:10178A00F0758201122D13900000222290F7D1E009
:10179A00FFBF013990F7B1E0FEA3E0FF90F7D4E074
:1017AA00FCA3E0FD90F7B4E0FAA3E0FBEA4B601D6E
:1017BA008E828F83E0F9A3AE82AF838C828D83E918
:1017CA00F0A3AC82AD831ABAFF011B80DF90F7BA8F
:1017DA00E054FDF090DE11E0FF74084FF022AE8273
:1017EA00AF83E0FD20E7030218E18E828F83A3E036
:1017FA00FD601DBD0102802ABD0202803BBD0302BD
:10180A00805ABD04028076BDFE030218A30218E1C5
:10181A0075370275380090FC4575F000121CE2021B
:10182A0018E190DE00E0FD7C007539288C3A8D8243
:10183A008C83121D560218E18E828F83A3A3E0FCCB
:10184A00A3E0FD74062EF582E43FF583E0F539A3A3
:10185A00E0F53A8C828D83121D56807B8E048F05AB
:10186A007B0074062EF582E43FF583E0F537A3E0AA
:10187A00F5388C828D838BF0121CE2805A90F7B176
:10188A00E0FBA3E0FCA3E0FD753910753A008B82FA
:10189A008C838DF0121D56803E74022EFEE43FFFAB
:1018AA007D00754BCA754C45754D807513048D14B2
:1018BA008E828F838DF0123C79E5828583F045F024
:1018CA006012D29190012C123BADC29190012C1260
:1018DA003BAD800375C9839000002290DF2FE4F0AE
:1018EA0090DF30F090DF31F090DF00740CF090DF81
:1018FA0001744EF090DF0274FFF090DF037440F041
:10190A0090DF04E4F090DF05F090DF06F090DF0747
:10191A007406F090DF08E4F090DF097424F090DF99
:10192A000A743AF090DF0B74F1F090DF0C74CAF08D
:10193A0090DF0D74A3F090DF0E7401F090DF0F7446
:10194A0023F090DF107411F090DF117436F090DFFD
:10195A00127407F090DF13740FF090DF147418F00C
:10196A0090DF1514F090DF16746CF090DF17740393
:10197A00F090DF187440F090DF197491F090DF1A3C
:10198A007456F090DF1B7410F090DF1C74E9F0902D
:10199A00DF1D742AF090DF1EE4F090DF1F741FF041
:1019AA0090DF237488F090DF247431F090DF25747F
:1019BA0009F090DF2E74C0F090DF07C4F090DF09C1
:1019CA007425F090DF0A7495F090DF0B7455F0904F
:1019DA00DF1A74B6F090DF1B7410F090DF1C74EA03
:1019EA00F090DF1D742AF090DF1EE4F090DF1F7480
:1019FA001FF022123CFB023D271219FD1230681219
:101A0A003D54121CAD1231ED1209D2121CDCD2AFB8
:101A1A00121B80D291900002123BADC29190000A33
:0B1A2A00123BAD122D441209F680F8AB
:1044240043616E6E6F742063616C6C207472616E94
:10443400736D69745F6C6F6E67207768696C652053
:104444004648535320486F7070696E67206F72201E
:10445400616C72656164792070726F6365737369EE
:104464006E67207472616E736D69745F6C6F6E67D2
:1044740021004D41435F7478282920726574757258
:104484006E6564206572726F72006E657665722067
:10449400656E7465726564205458004648535378B9
:1044A4006D6974206D65737361676520746F6F2027
:1044B4006C6F6E67004648535320737461746520B3
:1044C400656E746572696E672053594E4348494E50
:1044D400472066726F6D2077726F6E672073746108
:1044E40074650053594E43485F4D4153544552201F
:1044F4002D3E2053594E43494E474D415354455246
:104504000046485353786D697420646F6E65006E7D
:104514006574776F726B207061636B65742873794F
:104524006E6329006E6574776F726B207061636BC4
:10453400657428646973636F7665727929006372A0
:1045440061702C20706C65617365207573652046FD
:10455400485353786D6974282920696E73746561B2
:1045640064210064726F706F75742066696E616C8B
:1045740020776169742100746F74616C20627974AE
:1045840065732074783A00756E64657272756E0096
:10459400627566666572206572726F720073746903
:1045A4006C6C2077616974696E67206F6E20746823
:1045B40065206C617374207061636B6574004E4F89
:0B45C400204445414C005253544E006F
:101A3500AF827E0190DE0E7405F090FC457412F0C5
:101A4500E53345347003021B767C107D2790DE114B
:101A5500E0FB30E00D90FC467401F01CBCFF011D5D
:101A650080EBEC4D7014D2919003E8123BADC2911E
:101A75009003E8123BAD90FFFF22BE012C7E009043
:101A8500DE2A7440F0EFF0E532F0AC337D00ECF087
:101A9500E534F0C3743B9533E4953450067C3B7DC7
:101AA50000801AAC33AD348014C374409533E4958B
:101AB5003450067C407D008004AC33AD3474802501
:101AC5002942D6852682852783AA35AB368B01E93F
:101AD500F0852682852783A3EAF0852682852783DC
:101AE500A3A374DEF0852682852783A3A3A3742A86
:101AF500F0852682852783A3A3A3A3A3ECFBF0850A
:101B05002682852783A3A3A3A3E054E0F08526823C
:101B1500852783A3A3A3A3A3A3A3E0543F4440F035
:101B2500852682852783A3A3A3A3A3A3A3E054CFDC
:101B3500F0E52942D6E52942D7E52955D160FAE5F0
:101B450029F452D190DE0E7405F090DE11E0FB749D
:101B5500014BF0E533C39CF533E5349DF534EC25B5
:101B650035F535ED3536F53690FC457413F0021A2A
:101B75004590FC457414F090000022E52270051292
:101B85002D4480F722AFBE747F5FF5BE43BE8090C3
:101B9500DE0B74F7F090DE0774FFF090DE09F0437A
:101BA5008C10AF8C74FE5FF58CD2BD439A0275899B
:101BB50000C2C5758B00C2E843A90243B902852658
:101BC50082852783A3A3A3A3E054E0F0852682851D
:101BD5002783A3A3A3A3A3A3E0549F4420F08526B2
:101BE50082852783A3A3A3A3A3A3A3E04408F08529
:101BF5002682852783A3A3A3A3A3A3A3E054FC4420
:101C050001F090DE01E0FF74FE5FF0E4F525F523B9
:101C1500F524F52290DE0EF090DE107404F090DECF
:101C250013F090F7BBE4F090F7BAF090F7AFF0A39C
:101C3500F090F7B17488F074F5A3F0E4A3F090F791
:101C4500B4F0A3F090F7B6F090F7B7F090F7B8F0CE
:101C5500A3F090DE0E7405F090DE107408F090DEAF
:101C650013F090DE12E0FF74014FF090DE15E0FFF7
:101C750074014FF090F7CDE4F090F7CCF090F7C1F8
:101C8500F0A3F090F7C374A8F074F5A3F0E4A3F003
:101C950090F7C6F0A3F090F7C8F090F7C9F090F769
:101CA500CAF0A3F0439A0222123092858228852831
:101CB500F005F07401800225E0D5F0FBF529E52853
:101CC50075F008A424F9F52674F735F0F52790FC8E
:101CD500457402F0021B8AD29022C29022AFF0AE68
:101CE50083E58290F7D6F0EEA3F0EFA3F090F7BB73
:101CF500E06034D2919003E8123BADC2919003E8C5
:101D0500123BADD2919003E8123BADC2919003E82E
:101D1500123BADD2919003E8123BADC2919003E81E
:101D2500123BAD90FFFF2290F7D6E0FDA3E0FEA3A6
:101D3500E0FF90F7ACEDF0EEA3F0EFA3F090F7AF76
:101D4500E537F0E538A3F090F7BB7401F09000009B
:101D550022AF83E58290F7D9F0EFA3F090F7BBE0CF
:101D65006034D2919003E8123BADC2919003E81222
:101D75003BADD2919003E8123BADC2919003E812BE
:101D85003BADD2919003E8123BADC2919003E812AE
:101D95003BAD90FFFF2290F7D9E0FEA3E0FF7D0069
:101DA50090F7ACEEF0EFA3F0EDA3F090F7AFE539C7
:101DB500F0E53AA3F090F7BB7401F0900000227FA4
:101DC500007E0290DE0EE4F090F7AFE0FCA3E0FDAC
:101DD500C3EC9420ED940040047B2080068C037FA7
:101DE500017E0A8B017A00ECC399FCED9AFD90F710
:101DF500AFECF0EDA3F08B05ED603690F7ACE0FAB3
:101E0500A3E0FBA3E0FC8A828B838CF01243C19094
:101E1500DE20F090F7ACE0FAA3E0FBA3E0FC0ABA01
:101E250000010B90F7ACEAF0EBA3F0ECA3F01D80FA
:101E3500C790DE11E0FD4EF0EF600590F7BBE4F0D2
:101E45002290F7BB7402F07582002290F7B1E0FD95
:101E5500A3E0FEA3E0FF90DE11E0FCB40100E43353
:101E6500FC20E0F290DE0EE4F090DE16E0FC7B0054
:101E750090F7B4ECF0EBA3F090F7BAE0FC30E11387
:101E850090F7BB7403F090DE11E0FC74044CF09005
:101E9500FFFF2290F7BAE04402F090F7B4E0FBA30D
:101EA500E0FCC374209BE49C501CD29190012CC093
:101EB50007C006C005123BADC29190012C123BAD87
:101EC500D005D006D00790F7B4E0FBA3E0FC8D0762
:101ED500EB4C601690DE20E0FD8F828E83F0A3AF81
:101EE50082AE831BBBFF011C80E6E52C452D6009F6
:101EF500852C82852D8312008990F7B4E0FEA3E03E
:101F0500FFC3EE9420EF9400501DE52A452B600990
:101F1500852A82852B8312008990DE11E0FF7408E3
:101F25004FF090F7BBE4F090DE11E0FF74404FF006
:101F350090F7B4E0FEA3E08E82F5832285822E859C
:101F4500832F2285823085833122753701753800CC
:101F550090002575F040021CE2AFF0AE83E582905B
:101F6500F7DBF0EEA3F0EFA3F090F7DBE0FDA3E0E5
:101F7500FEA3E0FF74022DFDE43EFE8D828E838F6D
:101F8500F01243C1FDA31243C18D2575220122AF75
:101F9500827D0B7E468D828E83A3E090F7DEF090E6
:101FA50013E0E0F9A3E0FAA3E0FBA3E0FCE4B94009
:101FB5000ABA6C07BB6104BC730104FCE4BF0301EE
:101FC50004FBAA1390F7DEE0F9B9FF02804DE9B5ED
:101FD5000732EB600CBA0309EC60067DE47E1380E2
:101FE5003AEA700890F7DE74FFF080D81A8D828E79
:101FF50083E02DFDE43EFE8D828E83A3E0F990F70C
:10200500DEF080C08D828E83E02DFDE43EFE8D8264
:102015008E83A3E0F990F7DEF080A98D828E83226E
:10202500AFF0AE83E58290F7DFF0EEA3F0EFA3F01B
:1020350090F7DFE0F53DA3E0F53EA3E0F53F740240
:10204500253DFAE4353EFBAC3F8A828B838CF0124A
:1020550043C1F8A31243C1F9893B753C007402B52D
:102065003B06E4B53C0280227407B53B06E4B53C6B
:10207500028002804274AF58FE7F008A828B838C77
:10208500F0EE12422AA3EF12422A8A828B838CF049
:102095001243C1FAA31243C1F5828A13121F94AEEB
:1020A50082AF8390F7E2EEF0EFA3F08E828F83A3E9
:1020B500A3E0FE7F00801C89828813121F94AC82E6
:1020C500AD8390F7E2ECF0EDA3F08C828D83E0FC1C
:1020D500FE7F007406253DFBE4353EFCAD3F8B825B
:1020E5008C838DF01243C1FCA31243C1FDC3EC9E4A
:1020F500ED9F50048C068D07EE4F700990DE11E0C0
:10210500FD74204DF090F7E2E0FCA3E0FD8E398FE1
:102115003A8C828D83021D5690DE0EE4F090DE111E
:10212500E0FF30E40E90F7BBE4F090DE11E0FE74C2
:10213500804EF0EF30E22490DE11E4F090FC46741E
:1021450004F090F7BBE4F0D291900014C007123B65
:10215500ADC291900014123BADD00790F7BBE0FEE5
:10216500BE0319D291900032C007123BADC29190C7
:102175000032123BADD00790F7BBE4F090F7BBE01F
:10218500600302245DEF20E00302245D90DE0EE48F
:10219500F090DE16E0FFFE7B407C007D40EE601691
:1021A50090DE20E0FA8B828C838DF012422AA3AB5D
:1021B50082AC831E80E7E540FE20E70302233074EE
:1021C500605EFD6015BD20030222EABD40030222C8
:1021D500F6BD600302231B022445741F5EFF704198
:1021E500AD41BD0002801CBD06028005BD082680EC
:1021F5000C90004075F040122025022445121F4F17
:102205000224457537027538009045E975F080124E
:102215001CE202244590004075F040122F7F0224F5
:1022250045BF0145AD41BD00028005BD0A268012AE
:102235007537027538009045E975F080121CE20289
:1022450024457537017538009045EC75F080121CF2
:10225500E202244590DE11E0FD74204DF09000402F
:1022650075F040122F7F022445BF0236AD41BD00F7
:10227500028008BD120302244580127537027538A5
:10228500009045E975F080121CE202244590DE11AC
:10229500E0FD74204DF090004075F040122F7F0254
:1022A5002445BF032BE4B5411275370275380090FC
:1022B50045E975F080121CE202244590DE11E0FD2F
:1022C50074204DF090004075F040122F7F02244598
:1022D50090004075F040122F7F90DE11E0FD7420D4
:1022E5004DF002244590DE11E0FD74204DF00224EE
:1022F50045E52E452F6013122301800BC02EC02FFC
:1023050090004075F0402202244590004075F04051
:1023150012247402244590DE11E0FD74204DF090E6
:10232500004075F040122F7F02244574605EFD6009
:1023350015BD20030223FCBD4003022410BD60032C
:10234500022433022445741F5EFF7048AE41BE016E
:1023550003022445BE0303022445BE0502800BBECD
:102365000703022445BE0917800990DE00E542F007
:1023750002244590004075F040121F5E02244590EE
:10238500004075F040122F7F90DE11E0FE74204E64
:10239500F0022445BF0129AE41BE0103022445BE1A
:1023A5000303022445BE110302244590004075F045
:1023B50040122F7F90DE11E0FE74204EF00224457E
:1023C500BF0220AF41BF01028076BF03028071903A
:1023D500004075F040122F7F90DE11E0FF74204F12
:1023E500F0805D90DE11E0FF74204FF090004075A5
:1023F500F040122F7F804990004075F040122F7FEA
:1024050090DE11E0FF74204FF08035E52E452F60FA
:102415001212241B800BC02EC02F90004075F04077
:1024250022801D90004075F040122474801290DEC9
:1024350011E0FF74204FF090004075F040122F7F9F
:1024450090DE11E0FF74404FF0E546454770099076
:10245500DE11E0FF74084FF090F7BBE0FFBF01030A
:10246500121DC490F7BBE0FFBF0203021E5022AF4E
:10247500F0AE83E58290F7E4F0EEA3F0EFA3F090E1
:10248500F7E4E0FDA3E0FEA3E0FF8D828E838FF0ED
:102495001243C1FC20E7030225CE74012DFAE43E68
:1024A500FB8F048A828B838CF01243C1FC601EBCB7
:1024B5000102802BBC0202803CBC03028073BC0479
:1024C5000302256BBCFE03022588022634753702FC
:1024D50075380090FC4575F000121CE20226349018
:1024E500DE00E0FC7B007539288B3A8C828B8312E9
:1024F5001D5602263474022DFAE43EFB8F048A82AF
:102505008B838CF01243C1FAA31243C1FB74062DD1
:10251500F8E43EF98F04888289838CF01243C1F573
:1025250039A31243C1F53A8A828B83121D560226BE
:10253500348D028E038F048A488B498C4A74062D8C
:10254500F8E43EF98F04888289838CF01243C1F543
:1025550037A31243C1F538854882854983854AF0FA
:10256500121CE202263490F7B1E0FAA3E0FBA3E0E7
:10257500FC753910753A008A828B838CF0121D56D2
:1025850002263474022DFAE43EFB8F0490FC4B7452
:10259500EEF07445A3F07480A3F075130475140070
:1025A5008A828B838CF0123C79E5828583F045F035
:1025B5006012D29190012C123BADC29190012C1268
:1025C5003BAD806B75C983806690F7D1E0FCBC019B
:1025D5005674022DFDE43EFE8D828E838FF01243EC
:1025E500C1FDA31243C1FE90DE0EE4F090DE16E0BD
:1025F500FF7C007512088F828C83C007C006C0055A
:10260500C004123BF9D004D005D006D007EF4C60CA
:102615001690DE20E0FB8D828E83F0A3AD82AE8323
:102625001FBFFF011C80E690F7BAE054FDFFF09054
:1026350000002290F7CCE0FF30E10A90FC467405DB
:10264500F090FFFF2290DE0E7405F090DE16E0FF9D
:102655008F4B754C0090DE17E0FCE4254BF54BECF9
:10266500354CF54C90F7CAE0FCA3E0FD4C70589052
:10267500F7C6E4F0A3F090DE2AE090F7C8F090DE0C
:102685002AE090F7C9F090DE2AE0FD7C0090F7CAB9
:10269500EDF0ECA3F090DE2AE0FAE4FB2DFDEA3C38
:1026A500FC90F7CAEDF0ECA3F0E54B24FCF54BE507
:1026B5004C34FFF54CC374049D74029C500990F78B
:1026C500CA7404F003A3F0E52955D16012D29190A4
:1026D5000014123BADC291900014123BAD80E890FE
:1026E500F7C3E0FBA3E0FCA3E090F7C6E0FAA3E0A4
:1026F500FFEA2BFBEF3CFC7480252942D685268218
:1027050085278374DEF0852682852783A3742AF0C6
:10271500852682852783A3A38C07EFF085268285EE
:102725002783A3A3A3EBF0852682852783A3A3A3F1
:10273500A3A3A3A3E0543FF0852682852783A3A303
:10274500A3A3A3A3A3E054CF4410F074052526FE4C
:10275500E43527FF90DE16E0FD8E828F83EDF07461
:10276500042526FEE43527FF90DE17E08E828F8351
:10277500541FF5F0E054E045F0F090F7C6E0FEA3F5
:10278500E0FFEE254BFCEF354CFDC374049C740251
:102795009D500B7404C39EF54B74029FF54CC37496
:1027A50040954BE4954C502890FC467406F090DE1D
:1027B50014E0FD74FE5DF0751204900005123BF9FE
:1027C500751210854B82854C83123BF990FFFE22D2
:1027D500E52942D6E52942D7E54B2EFEE54C3FFFDC
:1027E50090F7C6EEF0EFA3F0E52955D160FAE5299B
:1027F500F452D190F7C6E0FEA3E0FF90F7CAE0FCE3
:10280500A3E0FDC3EE9CEF9D402C90F7CCE0440285
:10281500F090F7CAE4F0A3F090DE0E7405F0AE2355
:1028250074BF5524FF8E238F2490DE14E0FF74FEC1
:102835005FF09000012290DE0E7405F0AE2374BFA8
:102845005524FF8E238F2490DE14E0FF74FE5FF085
:102855009000002290F7CCE0FF20E1012290F7C321
:10286500E0FDA3E0FEA3E0FF90F7E7EDF0EEA3F0B7
:1028750090F7C8E0F55474FFB554028003022CEBC1
:1028850090F7C9E0FBBB80005003022CCDEB246F11
:102895005003022CCDEB2480FA240A83F582EA2426
:1028A5001583F583E473CD62F835154C6D84BDA6AB
:1028B500CDCDCDCD2558B428292A2B2A2B2B2B2B32
:1028C5002B2C2C2C2C2C2C2C8D828E838FF01243B0
:1028D500C1FA74012DF54FE43EF5508A5275530047
:1028E50090F7CAE552F0E553A3F0854F82855083F2
:1028F500E0F5517401254FF554E43550F555A951CE
:102905008902E4F92552F552EA3553F55390F7CA91
:10291500E552F0E553A3F0855482855583E0F885AB
:102925004F82855083A3A3884D894EE0FAE4254D57
:10293500F54DEA354EF54E854D35854E3690F7C841
:10294500E0FA90F7C9E0F5328552338553348A822F
:10295500121A3590F7CAE4F0A3F0022CE38D828EAB
:10296500838FF01243C1FA8D828E83A38A4D754EF3
:1029750000E0FA74022DF554E43EF5558A0189020A
:10298500E4254DF54DEA354EF54EA84DAA4E90F786
:10299500CEE8F0EAA3F090F7C6E0F9A3E0FAE9245F
:1029A500FEF54DEA34FFF54E854D52854E53E55201
:1029B5004553603D90F7CEE0F54FA3E0F550740127
:1029C500254FF9E43550FA90F7CEE9F0EAA3F08502
:1029D5005482855583E0FAA3858254858355854FB6
:1029E50082855083EAF0155274FFB5520215538063
:1029F500BD90F7C8E0FA90F7C9E0F5327535CA75AC
:102A050036F77533027534008A82121A35022CE3C3
:102A150090F7CCE0FA20E23C8D828E838FF0124352
:102A2500C1FA8D828E83A38A4D754E00E0FA90F728
:102A3500E774022DF0E43EA3F08A018902E4F9254A
:102A45004DF54DEA354EF54EA84DAA4E90F7CEE818
:102A5500F0EAA3F090F7CAE0F9A3E0FA894D8A4EAF
:102A6500C37440954DE4954E5006754D40754E0026
:102A7500E9C3954DF9EA954EFA90F7CAE9F0EAA34C
:102A8500F090F7E7E0F552A3E0F553854D54854EF8
:102A950055E5544555603D90F7CEE0F54FA3E0F57B
:102AA500507401254FF9E43550FA90F7CEE9F0EA74
:102AB500A3F0855282855383E0FAA38582528583EC
:102AC50053854F82855083EAF0155474FFB554023F
:102AD500155580BD90F7C8E0FA90F7C9E0F5327555
:102AE50035CA7536F77533027534008A82121A3580
:102AF500022CE3D291900002C007C006C005123B2C
:102B0500ADC291900002123BADD005D006D0079022
:102B1500F7C8E0FA90F7C9E0F53290F7C6E0F5336B
:102B2500A3E0F5348D358E368A82121A35022CE3F0
:102B35007535F37536458B3275330D75340085540F
:102B450082121A35022CE390FC47E0F8A3E0F9A3C2
:102B5500E0A3E0883589368B3275330475340085FA
:102B65005482121A35022CE37535D87536458B32E9
:102B7500753311753400855482121A35022CE39091
:102B8500F7C6E0F533A3E0F5348B328D358E368507
:102B95005482121A359000C8123BAD1230A1022C96
:102BA500E37535CF7536458B327533097534008538
:102BB5005482121A35022CE38D828E838FF01243D4
:102BC500C1FC74012DF9E43EFABC0202800ABC0383
:102BD500028021BC0429800DC002C00112316AD0D7
:102BE50001D002801AC291C002C0011231B4D001D5
:102BF500D002800BC002C00112318BD001D00290EF
:102C0500F7C8E0FC90F7C9E0F53290F7C6E0F53378
:102C1500A3E0F53489358A368C82121A35022CE305
:102C250090F7CA7401F0E4A3F07535367536DF9078
:102C3500F7C8E0FC90F7C9E0F53290F7CAE0F53344
:102C4500A3E0F5348C82121A3590F7CAE4F0A3F0AC
:102C5500022CE38D028E048C017C0090FC4B7401E8
:102C6500F07446A3F07480A3F07513098C148A825E
:102C750089838CF0C007C006C005123C79E58285C2
:102C850083F0D005D006D00745F0705275C9809005
:102C9500F7C8E0FC90F7C9E0F53290F7C6E0F533E8
:102CA500A3E0F5348D358E368C82121A35802F903F
:102CB500FC45E4F090FC46F090F7E9EDF0EEA3F06A
:102CC500758202122D13801690F7C6E0F533A3E046
:102CD500F5348B328D358E36855482121A3590F740
:102CE500CCE054FDF022E530453160198530828510
:102CF5003183120089AE82AF83EE4F701090F7CC0E
:102D0500E054FDF02290F7CCE054FDFFF022E5827F
:102D150090F7EBF090F7CCE054FDF090F7C8E0FFAA
:102D250090F7C9E0F53290F7EBE0FE8E337534008D
:102D350090F7E9E0F535A3E0F5368F82021A35E51F
:102D45002330E01175220274FE5523FEAF248E2335
:102D55008F2443BE01E5235406602F90FC45740A79
:102D6500F075220374FD5523FEAF248E238F249026
:102D7500DE01E0FF74044FF0900008123BAD90DED9
:102D850001E0FF74FB5FF075220190DE0EE4F09028
:102D9500DE11E0FF30E21A90DE11E0FF74DB5FF038
:102DA50090F7AFE4F0A3F090F7B4F0A3F090F7BB81
:102DB500F090DE0E7405F090DE11E0FF30E5209016
:102DC500DE11E0FF74CF5FF090FC467408F090F7D9
:102DD500C1E4F0A3F090F7C6F0A3F090F7CDF09022
:102DE500DE14E0FF30E62090DE14E0FF749F5FF014
:102DF50090FC467408F090F7C1E4F0A3F090F7C694
:102E0500F0A3F090F7CDF0E52320E2057404B52298
:102E150014121B8A90FC45740BF074FB5523FEAF0E
:102E2500248E238F24E52330E41112211D74E755E8
:102E350023FE740F5524FF8E238F24E52430E6549A
:102E450090FC45740CF0122638AE82AF83BEFE416D
:102E5500BFFF3E90F7EC7406F0E4A3F090F7C8E0EE
:102E6500FF90F7C9E0F5327535EC7536F775330225
:102E75007534008F82121A3590F7C8E0FF7535EC6E
:102E85007536F77532017533027534008F82121A63
:102E950035122859E52354E07006E52454BD602910
:102EA50090FC467409F0751208900044123BF985B0
:102EB5002382852483751210123BF974E05523FE95
:102EC50074BD5524FF8E238F2422C0E0C082C083A9
:102ED500C007C006C005C004C0D075D000E5BE302F
:102EE500E6FB90DE06E0FF7E00E5234207E524428F
:102EF500068F238E2490DE02E0FDE4CDC4CD6DCD9A
:102F050054F0CD6DFCED4207EC42068F238E2490E4
:102F1500DE04E025E0FCE4FD4207EC42068F23EEEB
:102F2500F52430E11290F7CCE054FEF0AE2374FDA9
:102F35005524FF8E238F24758B00C2E8D0D0D00492
:102F4500D005D006D007D083D082D0E032C0E0C013
:102F550007C0D075D000E5BE30E6FBC2AFE58930CD
:102F6500E703752203AFBE74FC5FF5BE758900C229
:0B2F7500C5D2AFD0D0D007D0E0322290
:1045CF00534443437633353000444F4E53444F4E9C
:1045DF00474C452072303436350000000000005241
:1045EF0053544E00554E494D504C454D454E544534
:1045FF00440052455345545F4E4F5700120110016E
:10460F0000000020501D48600001010203010A064E
:10461F0010010000002001000902200001010080AC
:10462F00FA0904000002000001000705850240009E
:10463F000107050502400001040309040C035200A1
:10464F006600430061007400180344006F006E00A1
:10465F007300200044006F006E0067006C0065005F
:0C466F000A03300030003900330000FF67
:102F8000AF83E58290F7EEF0EFA3F090F7EEE0FE6E
:102F9000A3E0FF7C007D008E028F038A828B83E09A
:102FA000F9A3AA82AB83E960070CBC00EE0D80EBAD
:102FB0007532F08C338D348E358F367582FE021A61
:102FC00035AF83E58290F7F0F0EFA3F090F7F0E0F3
:102FD000FEA3E0FF7C007D008E028F038A828B833C
:102FE000E493F9A3AA82AB83E960070CBC00ED0D62
:102FF00080EA8E358F367532F08C338D347582FED3
:10300000021A35E58290F7F2F07535F27536F775EC
:1030100032F17533017534007582FE021A35AF83C3
:10302000E58290F7F3F0EFA3F07535F37536F77599
:1030300032F27533027534007582FE021A35AF82A2
:10304000AE83ADF0FC90F7F5EFF0EEA3F0EDA3F05A
:10305000ECA3F07535F57536F77532F375330475F5
:0830600034007582FE021A35EE
:0300E400750D0097
:103068007EF97FF78FD57EF97FF78ED47E017FF8C2
:103078008FD37E017FF87F008ED28F137514188F3F
:103088001590F7F975F00002416A7403B50D0475DF
:1030980082FF22850D82050D2290DF46E0FFBFF0FA
:1030A8000E90DF47E0FFBF0D0690DF487469F0C25D
:1030B800AF759A0075B80075A800121CDFAFBE7412
:1030C8007F5FF5BE75D69FC291020000221241DED5
:1030D800AC82AD83AEF0FFC004C005C006C0079047
:1030E80037BD75F086743D124066AC82AD83AEF094
:1030F800FFE58124FCF581E4C0E0C0E074C0C0E0D5
:103108007441C0E08C828D838EF0EF1242FEAC8257
:10311800AD83AEF0FFE58124FCF5818C828D838E32
:10312800F0EF1241F1AC82AD83AEF090DF09EEF022
:103138008D0390DF0AEBF090DF0BECF02275E104D1
:1031480090DF3BE0FFBF01F890FC1CE0F5E190FC4C
:103158001CE0FFBF04012290DF3BE0FFBF010280BB
:10316800ED2290FC1CE0FFBF02012290DF13E0FF7C
:1031780074F05FF0E0FF740F4FF090FC1C7402F0E5
:103188000235A990FC1CE0FFBF03012290DF13E089
:10319800FF74F05FF0E0FF740A4FF090FC1C7403BA
:1031A800F0F5E190DF3BE0FFBF13F82290FC1CE054
:1031B800FFBF04012290DF13E0FF74F05FF0AF91CE
:1031C80074EF5FF59175E10490DF3BE0FFBF01F814
:1031D800AF9B74FC5FF59BAFE974EF5FF5E990FC7A
:1031E8001C7404F02290FC1FE4F0A3F090FC12F091
:1031F800A3F090FC14F0A3F053C6C7759D00859EFC
:103208009E439E0485A9A943B90190FC1C7404F04F
:10321800751300751400F51590F81275F000124139
:103228006A1218E5D2A87591D175E900750E0043A8
:103238009A0175E10490DF3BE0FFBF01F8227E00B0
:103248007F00C3EE94DCEF9405502490DF3CE0FD52
:103258005450600490000122900032C007C006124A
:103268003BDBD006D00774322EFEE43FFF80D390BC
:10327800000022AF83E58290FC3CF0EFA3F090FCC5
:103288003EE4F090DF02E0FF90DF3BE0FEBE130B70
:10329800B291C007122D44D00780EDC29190FC8AEC
:1032A800E4F090FC38E0FDA3E0FE90FC80EDF0EE49
:1032B800A3F090FC3AE0FBA3E0FC90FC86EBF0EC7A
:1032C800A3F090FC36E0F9A3E0FA90FC82E9F0EA7A
:1032D800A3F090FC84E9C39BF0EA9CA3F090FC84E3
:1032E800E0FBA3E0FC8D138E148B828C83C007C097
:1032F80006C005C002C001124245AB82AC83D001B2
:10330800D002D005D006D00790FC88EB29F0EC3A23
:10331800A3F0E94A705D90FC3CE0FBA3E0FC8B82E3
:103328008C83E0F8880F75100090FC36E50FF0E507
:1033380010A3F090DF04E0F8530003B800028018EF
:10334800B80102800302340D90FC367401250FF099
:10335800E43510A3F002340D90FC3C74012BF0E42A
:103368003CA3F090FC36E0FBA3E0FC90DF02EBF01E
:1033780002340D90DF04E0FC530403BC00028046D5
:10338800BC0102800302340D90FC3CE0FBA3E0FC8E
:1033980090FC3FE9F0EAA3F090FC417401F0E4A34B
:1033A800F08B828C83C007C002C001123B58D00149
:1033B800D002D00790FC3CE0FBA3E0FC89008B82A4
:1033C8008C83E8F0803FED4E603690FC88E0FDA3EA
:1033D800E090DF02EDF090DF04E0FE74FC5EF09018
:1033E800FC88E0FDA3E0FEC374FF9DE49E500990B5
:1033F800DF04E0FE74024EF090FC8A7401F0800550
:1034080090DF02E9F0D2A890FC8BE0FE20E30302F3
:10341800353B90DF04E0FE530603BE010690FC3EF8
:103428007401F090FC3EE0FE90FC3CE0FCA3E0FD63
:10343800EE2CFAE43DFB90FC36E0F8A3E0F990FCB2
:103448005DE8F0E9A3F08A828B83C007C006C00557
:10345800C004123EA7AA82AB83D004D005D006D000
:103468000790FC8BE0F9530104B90448C007EE2C1F
:10347800F8E43DF990FC8BE0FF5307F090FC61E81D
:10348800F0E9A3F090FC63EAF0EBA3F090FC65EFA1
:10349800F088828983C007C006C005C004C003C085
:1034A80002123EE1D002D003D004D005D006D007E6
:1034B800D0078046C007EE2CF8E43DF990FC8BE07D
:1034C800FF5307F090FC68E8F0E9A3F090FC6AEA83
:1034D800F0EBA3F090FC6CEFF088828983C007C002
:1034E80006C005C004C003C002123F2AD002D003A0
:1034F800D004D005D006D007D007EE601E90FC8B14
:10350800E0FE5306F0BE50098C828D837410F08063
:10351800228A068C828D83EEF0801890FC8BE0FE68
:103528005306F0BE500890DF027410F0800590DF5B
:1035380002EAF090FC3CE0FDA3E0FE90FC18EDF000
:10354800EEA3F090FC7EE4F0A3F075E1037D607ECD
:10355800EA90DF3BE0FCBC1302801C1DBDFF011E8E
:10356800ED4E6013B291C007C006C005122D44D0BD
:1035780005D006D00780DAD291ED4E700690FC4651
:103588007413F090DF3BE0FEBE130BB291C007123C
:103598002D44D00780EDC29190DF02EFF0758201D3
:1035A80022D2A875130075140075150290F81275CB
:1035B800F00012416A90FC12E4F0A3F090FC14F0C1
:1035C800A3F090FC16F090FC1704F090F811E4F0CA
:1035D800AF9B74FC5FF59BAFE974EF5FF5E975E1AC
:1035E8000290DF3BE0FFBF0DF84391102290FC8D65
:1035F8007401F02290FC8DE4F022C021C0E0C0F0FC
:10360800C082C083C007C006C005C004C003C00292
:10361800C001C000C0D075D00090FC457411F0C244
:103628008990DF3BE0FFBF0D02800302374CD29147
:1036380090FC77E0E0602A90FC78E0FEA3E0FF9041
:10364800FC78E024FFFCA3E034FFFD90FC78ECF06C
:10365800EDA3F074FF2F400990DF04E0FF74FC5FD6
:10366800F090FC1C7402F090F811E025E0FEE424D0
:1036780012FFEE34F8FEE075F002A42412FC74FC8C
:1036880035F0FD8C828D83E0FAA3E0FB74012AF803
:10369800E43BF98C828D83E8F0E9A3F0EA2FF58208
:1036A800EB3EF583E5D9F090F811E075F002A4241B
:1036B80012F58274FC35F0F583E0FEA3E0FFC394B5
:1036C80002501A90F811E075F002A42412F58274E1
:1036D800FC35F0F583E0FEA3E0FF4E701A90F81178
:1036E800E0FF75F002A42412F58274FC35F0F5832E
:1036F80074FFF07401A3F090FC78E0A3E090FC78EC
:10370800E0F5F0A3E045F0600302390990FC77E0AA
:10371800E0700302390990FC7AE0FEA3E0FF90FC18
:1037280078EEF0EFA3F090FC78E0FEA3E090DF02E3
:10373800EEF090DF04E0FF74FC5FF0E0FF74024FEE
:10374800F002390990DF3BE0FFBF13028003023922
:103758000990FC8AE0E0700302389A90FC2EE0FEA3
:10376800A3E0FF0EBE00010F90FC2EEEF0EFA3F0D9
:1037780090FC7EE0FEA3E0FF90FC82E0FCA3E0FD6D
:10378800EEB50406EFB50502800302386D90FC80A3
:10379800E0A3E090FC80E0F5F0A3E045F06037900E
:1037A800FC80E0FEA3E0FFBEFF05BF00028014908E
:1037B800FC80E024FFFEA3E034FFFF90FC80EEF0E5
:1037C800EFA3F090FC86E0FEA3E0FF90FC7EEEF015
:1037D800EFA3F002386D90FC82E0F513A3E0F51436
:1037E80090FC7CE0FF7E008F828E83124245AE8281
:1037F800AF8390FC18E0FCA3E0FDEE2CF582EF3DD2
:10380800F583E4F090FC7CE02401F0E0FF90FC7D7F
:10381800E0FEEFB5060590FC7CE4F090FC82E0F554
:1038280013A3E0F51490FC7CE0FF7E008F828E836A
:10383800124245AE82AF8390FC18E0FCA3E0FDEE97
:103848002CFEEF3DFF8E828F83E0701090FC21E408
:10385800F090FC467412F0123145C29190FC7E74CF
:1038680001F0E4A3F090FC88E0FEA3E0FF90FC8860
:10387800E024FFFCA3E034FFFD90FC88ECF0EDA30E
:10388800F0BEFF22BF001F90DF04E0FF74FC5FF072
:10389800801490FC88E024FFFEA3E034FFFF90FC36
:1038A80088EEF0EFA3F090FC1C7403F090FC82E02B
:1038B800F513A3E0F51490FC7CE0FF7E008F828E68
:1038C80083124245AE82AF8390FC7EE0FCA3E0FD0C
:1038D80090FC7EE02401F0A3E03400F0EC2EFEED35
:1038E8003FFF90FC18E0FCA3E0FDEE2CF582EF3DD5
:1038F800F583E0F5D990FC1AE02401F0A3E0340048
:10390800F0D0D0D000D001D002D003D004D005D060
:1039180006D007D083D082D0F0D0E0D02132C021A9
:10392800C0E0C0F0C082C083C007C006C005C004A4
:10393800C003C002C001C000C0D075D0007511001E
:1039480090FC457410F0AE9B74FC5EF59BE5E94273
:103958000EE5E930E02090FC1DE0FDA3E08D067D3A
:1039680000AB9C7C0090FC1FED4BF0EE4CA3F0AE3E
:10397800E974FE5EF5E9E5E954707003023B0990CD
:10398800FC1CE0FEBE030AAE0E748F5EF50E023B11
:103998000290F811E0FEB40100E4332416F582E445
:1039A80034FCF583E0FEBE01028003023ADF90FC9E
:1039B8008BE0FE20E103023AB890DF04E0FE5306F4
:1039C80003BE010375110190FC8BE0FE530601BE96
:1039D800017090F811E025E0FDE42412FEED34F8C2
:1039E800FDAB117C00EB2EFEEC3DFDE0F929FAE47D
:1039F8002412F9EA34F8FAEB29FBEC3AFCE075F00A
:103A080002A42412F58274FC35F0F583E0F9A3E0F2
:103A1800FAA8117F00E9C398F9EA9FFA90FC8BE0B5
:103A2800FF5307F090FC61EBF0ECA3F090FC63E926
:103A3800F0EAA3F090FC65EFF08E828D83123EE1F0
:103A4800806E90F811E025E0FEE42412FFEE34F8D1
:103A5800FEAC117D00EC2FFFED3EFEE025E0FAE420
:103A68002412FBEA34F8FAEC2BFCED3AFDE075F091
:103A780002A42412F58274FC35F0F583E0FAA3E081
:103A8800FBA8117900EAC398FAEB99FB90FC8BE04C
:103A9800F95301F090FC68ECF0EDA3F090FC6AEAB1
:103AA800F0EBA3F090FC6CE9F08F828E83123F2A32
:103AB80090F811E0FF74016FF0E0FF75F002A424A4
:103AC80012F58274FC35F0F583E4F0A3F090FC164F
:103AD800F090FC17F0802190FC467412F0B291909F
:103AE800F811E0FF75F002A42412F58274FC35F099
:103AF800F583E4F0A3F0B291C291AFE974CF5FF51A
:103B0800E9E5E930E61490FC467410F0B291123100
:103B180045B291AFE974BF5FF5E9E5E930E7149084
:103B2800FC467411F0B291123145B291AFE9747F3D
:103B38005FF5E9D0D0D000D001D002D003D004D0B6
:103B480005D006D007D083D082D0F0D0E0D0213283
:103B5800AF83E58290FC43F0EFA3F090FC41E0FED8
:103B6800A3E0FF90FC43E0FCA3E0FD90FC3FE0FAFB
:103B7800A3E0FB8A008B011ABAFF011BE849602405
:103B8800EE2AF8EF3BF9E82CF8E93DF9EA2CF58242
:103B9800EB3DF583C006C007E088828983F0D00733
:053BA800D00680CF22D1
:10467B00000000000000010000000000000000002E
:07468B000000000000000028
:103BAD00AE82AF831EBEFF011FC3E49E74808FF0F3
:103BBD0063F08095F050167C4C7D04EC24FFFAEDFB
:103BCD0034FFFB8A048B05EA4B70F080D722AE825E
:103BDD00E583CE25E0CE33FF1EBEFF011FC3E49E5D
:103BED0074808FF063F08095F040ED22AE82AF834C
:103BFD00D2919003E8C007C006123BADC29190016F
:103C0D00F4123BADD006D0071512AD12ED20E754DE
:103C1D00EE30E024900019C007C006C005123BAD80
:103C2D00D291900226123BADC291900019123BAD7C
:103C3D00D005D006D0078022900113C007C006C062
:103C4D0005123BADD291900032123BADC291900165
:103C5D0013123BADD005D006D007EFC313CE13CE54
:103C6D00FF1D80A8C2919003E8023BADAFF0AE837B
:103C7D00E58290FC4EF0EEA3F0EFA3F090FC4EE049
:103C8D00FDA3E0FEA3E0FF90FC4BE0FAA3E0FBA355
:103C9D00E0FCA813A914E8496050C000C0018D8252
:103CAD008E838FF01243C1F98A828B838CF012437D
:103CBD00C1F8E9C398F98915D001D0006010E51558
:103CCD00F5163395E0F517851682851783220DBD00
:103CDD0000010E90FC4EEDF0EEA3F0EFA3F00ABA4A
:103CED0000010B18B8FF011980AC90000022AFBE87
:103CFD0074FB5FF5BEE5BE30E6FBAFC674B85FF58D
:103D0D00C6E5C620E6FB43BE04E5BE30E6FB53C662
:103D1D00C743E40C43E401D2B92243FE03C291220E
:103D2D00C0E0C082C083C0D090FC47E02401F0A366
:103D3D00E03400F0A3E03400F0A3E03400F0D0D084
:103D4D00D083D082D0E032123092AF8290FC55EF0A
:103D5D00F08FF005F07401800225E0D5F0FB90FCAA
:103D6D0056F0EF75F008A424F9FE74F735F0FF90C6
:103D7D00FC51EEF0EFA3F08E828F83A3A374DFF0DE
:103D8D008E828F83A3A3A374B1F08E828F83A3A39E
:103D9D00A3A3A37410F074062EF582E43FF583E01F
:103DAD0054E0441DF074072EF582E43FF583E05492
:103DBD003F4440F074072EF582E43FF583E054FC58
:103DCD004401F0123092AF8290FC57EFF08FF00566
:103DDD00F07401800225E0D5F0FB90FC58F0EF75F2
:103DED00F008A424F9FE74F735F0FF90FC53EEF0C3
:103DFD00EFA3F08E828F8374DFF08E828F83A37496
:103E0D00B2F08E828F83A3A3A3A3A37410F07406C4
:103E1D002EF582E43FF583E054E0441EF074072E46
:103E2D00F582E43FF583E054CF4410F074072EF58E
:103E3D0082E43FF583E054FC4401F043A91043B9FB
:103E4D001022AF83E58290FC5BF0EFA3F0E5B33079
:103E5D00E3FB90FC51E0FEA3E0FF90FC5BE0FCA3D4
:103E6D00E0FD8C028D038B028E828F83EAF090FC35
:103E7D0051E0FEA3E0FF8E828F83A37D00ECF090D6
:103E8D00FC56E042D690FC59E0FF90FC5AE0FE4F04
:103E9D004401F5B3E5B330E3FB22AF83E58290FC3B
:103EAD005FF0EFA3F090FC5FE0FEA3E0FF90FC5D00
:103EBD00E0FCA3E0FDEC540F60158C028D030CBCEF
:103ECD0000010DEA2EF582EB3FF583E4F080E68CE0
:103EDD00828D8322AF83E58290FC66F0EFA3F09094
:103EED00FC66E0FEA3E0FF90FC61E0FCA3E0FD902A
:103EFD00FC63E0FAA3E0FB90FC65E0F990FC6FEC4D
:103F0D00F0EDA3F090FC71EAF0EBA3F090FC73E4FC
:103F1D00F090FC74E9F08E828F83023F74AF83E5DD
:103F2D008290FC6DF0EFA3F090FC6DE0FEA3E0FF3E
:103F3D0090FC68E0FCA3E0FD90FC6AE0FAA3E0FBD6
:103F4D0090FC6CE0F990FC6FECF0EDA3F090FC713F
:103F5D00EAF0EBA3F090FC737402F090FC74E9F0BE
:103F6D008E828F83023F74AF83E58290FC75F0EFF4
:103F7D00A3F0E5B330E3FB90FC75E0FEA3E0FF900A
:103F8D00FC6FE0F519A3E0F51A90FC74E0FB74509A
:103F9D005BF51890FC73E0F94B4401FB740149F596
:103FAD001790FC71E0F513A3E0F514E4F515F51683
:103FBD00C3E5159513E5169514400122C00390FC39
:103FCD0051E0F8A3E0FBE5152EF9E5163FFA89045B
:103FDD008A058D0488828B83ECF090FC51E0FCA364
:103FED00E0FD8C828D83A3E9F090FC53E0FCA3E00F
:103FFD00FD8C828D83A3A3E5152519FCE516351AD5
:10400D00FD8C028D038B02EAF090FC53E0FAA3E0E5
:10401D00FB8A828B83A3A3A3ECF090FC58E0FD9068
:10402D00FC56E0FC4D42D6D003E5186017E513248D
:10403D00F0FCE51434FFFDECB51509EDB51605855D
:10404D0017B380028BB3E5B330E3FB74102515F580
:10405D0015E43516F516023FBD124109BC000302E9
:10406D0042D0EF60FA30D502B2D1E583B4FF03023E
:10407D0042E6E582B4FF030242E62583400724822F
:10408D00400B0242D024831450030242E6F582EA2B
:10409D008DF0A4A8F0EA8EF0A428F8E435F0F9EB41
:1040AD008DF0A428E935F0F9E433CA8FF0A429F98D
:1040BD00EA35F0FAEBF88EF0A429F9EA35F0FAE4D6
:1040CD0033FBEC8DF0A429F9EA35F0FAE43BFBE87B
:1040DD008FF0A42AFAEB35F0FBE433CCFD8EF0A47F
:1040ED002AFAEB35F0FBE43CFCED8FF0A42BFBEC56
:1040FD0035F0FC20E7031241370242AFAA82AB83B1
:10410D00A2F73392D1F5826002D2F7ACF0E58124AB
:10411D00F9F8E6FD08E6FE0886F008E6A2F7339208
:0A412D00D5F5836002D2F7AFF0224F
:0600BA00E478FFF6D8FD1A
:104137007804EC7011E58224F8500AF582E4C9CAC4
:10414700CBFCD8EF22EC7820058220E713D582013B
:1041570022C3E933F9EA33FAEB33FBEC33FCD8EA51
:10416700158222AC82AD83AE14AF15BE0004EF609A
:104177000C1F0FE51312422AA3DEFADFF88C828D9B
:104187008322AD82AE83AFF08D188E198F1A8513F7
:104197001B85141C85151DA816A9178803890418E3
:1041A700B8FF0119EB4C6025851B82851C83851D93
:1041B700F01243C1FCA385821B85831C8D828E83ED
:1041C7008FF0EC12422AA3AD82AE8380CE8518828F
:0741D700851983851AF0220F
:100098007917E94400601B7A0190467B787775935D
:1000A800FCE493F2A308B800020593D9F4DAF275D8
:0200B80093FFB4
:1041DE00FCABF0AA83A982749EC2D1F5821241373C
:1041EE000242AF7F9E12421830D1030242D0C3EF7B
:1041FE009582500974FFF5F0F583F582227900124D
:10420E0043DD89828A838BF0EC22AA82AB83A2F7EC
:10421E003392D1F5826002D2F7ACF02220F7113042
:10422E00F6138883A88220F509F6A88375830022E9
:10423E0080FEF280F5F022E5828513F0A4C582C0DF
:10424E00F08514F0A4D0F025F0C5838513F0A425D5
:10425E0083F58322E513451460467A01E51325E0C4
:10426E00F513E514334012F514E5829513E58395A5
:10427E001440030A80E6C3E51413F514E51313F591
:10428E0013C3E5829513F5F0E58395144005F58388
:10429E0085F082C3E51413F514E51313F513DAE173
:0142AE0022ED
:1000C0007800E84400600A79007593F0E4F309D8F9
:1000D000FC7877E8440C600C790D90F000E4F0A314
:0400E000D8FCD9FA75
:02008900E4731E
:1042AF00B98003EA13B34010EA2401FAE43BFBE4BC
:1042BF003CFC50047C800582BC000EBB000BBA0096
:1042CF0008E4F5F0F583F58222A2D1E582138CF094
:1042DF0092F78B838A8222E4F583F58275F080F45E
:1042EF00A2D11322E4F583F58275F0C0747F2212F8
:1042FF00410930D502B2D1BF0009BC00030242F31D
:10430F000242E6BC00030242D0E583B4FF0BE58214
:10431F00B4FF030242F30242D0E582B4FF0302422C
:10432F00E6C395835007247F400B0242D0248014AC
:10433F0050030242E6F582C3ED9AEE9BEF9C4011CB
:10434F001582C3EA33F9EB33FAEC33FBE433FC8029
:10435F0005E4CCCBCAF9C08275F019C3E99DEA9E7A
:10436F00EB9FEC9400D5F002802D400EE99DF9EA09
:10437F009EFAEB9FFBEC9400FCC3B3E833F8E582A5
:10438F0033F582E58333F583C3E933F9EA33FAEB87
:10439F0033FBEC33FC80C4B3E4F938FAE43582FB29
:1043AF00E43583FCD082500405827C8012413702B1
:0243BF0042C7F3
:0D008B00758155124420E582600302008655
:1043C10020F71430F6148883A88220F507E6A88325
:1043D10075830022E280F7E49322E0226040F82511
:1043E10082500274FFF582E824F8501ECCCBCAF942
:1043F100E4CC24F85014CBCAF9E4CB24F8500BCA0E
:10440100F9E4CA24F8500379002224086010F8C3A3
:10441100EC13FCEB13FBEA13FAE913F9D8F122755B
:03442100820022F4
:00000001FF
